{
	"data": {
		"bytecode": {
			"linkReferences": {},
			"object": "60806040525f600155348015610013575f80fd5b5061582b806100215f395ff3fe608060405234801562000010575f80fd5b506004361062000044575f3560e01c806380c9419e1462000048578063af640d0f146200007e578063ef26a31514620000a0575b5f80fd5b62000066600480360381019062000060919062000216565b620000c0565b60405162000075919062000289565b60405180910390f35b62000088620000fb565b604051620000979190620002b5565b60405180910390f35b620000be6004803603810190620000b8919062000492565b62000101565b005b5f8181548110620000cf575f80fd5b905f5260205f20015f915054906101000a900473ffffffffffffffffffffffffffffffffffffffff1681565b60015481565b5f848484846040516200011490620001bf565b620001239493929190620005d4565b604051809103905ff0801580156200013d573d5f803e3d5ffd5b5090505f81908060018154018082558091505060019003905f5260205f20015f9091909190916101000a81548173ffffffffffffffffffffffffffffffffffffffff021916908373ffffffffffffffffffffffffffffffffffffffff16021790555060015f815480929190620001b3906200065a565b91905055505050505050565b61514f80620006a783390190565b5f604051905090565b5f80fd5b5f80fd5b5f819050919050565b620001f281620001de565b8114620001fd575f80fd5b50565b5f813590506200021081620001e7565b92915050565b5f602082840312156200022e576200022d620001d6565b5b5f6200023d8482850162000200565b91505092915050565b5f73ffffffffffffffffffffffffffffffffffffffff82169050919050565b5f620002718262000246565b9050919050565b620002838162000265565b82525050565b5f6020820190506200029e5f83018462000278565b92915050565b620002af81620001de565b82525050565b5f602082019050620002ca5f830184620002a4565b92915050565b620002db8162000265565b8114620002e6575f80fd5b50565b5f81359050620002f981620002d0565b92915050565b5f80fd5b5f80fd5b5f601f19601f8301169050919050565b7f4e487b71000000000000000000000000000000000000000000000000000000005f52604160045260245ffd5b6200034f8262000307565b810181811067ffffffffffffffff8211171562000371576200037062000317565b5b80604052505050565b5f62000385620001cd565b905062000393828262000344565b919050565b5f67ffffffffffffffff821115620003b557620003b462000317565b5b620003c08262000307565b9050602081019050919050565b828183375f83830152505050565b5f620003f1620003eb8462000398565b6200037a565b90508281526020810184848401111562000410576200040f62000303565b5b6200041d848285620003cd565b509392505050565b5f82601f8301126200043c576200043b620002ff565b5b81356200044e848260208601620003db565b91505092915050565b5f60ff82169050919050565b6200046e8162000457565b811462000479575f80fd5b50565b5f813590506200048c8162000463565b92915050565b5f805f8060808587031215620004ad57620004ac620001d6565b5b5f620004bc87828801620002e9565b945050602085013567ffffffffffffffff811115620004e057620004df620001da565b5b620004ee8782880162000425565b935050604085013567ffffffffffffffff811115620005125762000511620001da565b5b620005208782880162000425565b925050606062000533878288016200047c565b91505092959194509250565b5f81519050919050565b5f82825260208201905092915050565b5f5b83811015620005785780820151818401526020810190506200055b565b5f8484015250505050565b5f6200058f826200053f565b6200059b818562000549565b9350620005ad81856020860162000559565b620005b88162000307565b840191505092915050565b620005ce8162000457565b82525050565b5f608082019050620005e95f83018762000278565b8181036020830152620005fd818662000583565b9050818103604083015262000613818562000583565b9050620006246060830184620005c3565b95945050505050565b7f4e487b71000000000000000000000000000000000000000000000000000000005f52601160045260245ffd5b5f6200066682620001de565b91507fffffffffffffffffffffffffffffffffffffffffffffffffffffffffffffffff82036200069b576200069a6200062d565b5b60018201905091905056fe61010060405234801562000011575f80fd5b506040516200514f3803806200514f8339818101604052810190620000379190620004e6565b828282865f73ffffffffffffffffffffffffffffffffffffffff168173ffffffffffffffffffffffffffffffffffffffff1603620000ae575f6040517f1e4fbdf7000000000000000000000000000000000000000000000000000000008152600401620000a59190620005a4565b60405180910390fd5b620000bf816200017560201b60201c565b508260039081620000d19190620007f6565b508160049081620000e39190620007f6565b5060128160ff16101562000123576040517f98790fd500000000000000000000000000000000000000000000000000000000815260040160405180910390fd5b8060ff1660808160ff1681525050608051600a62000142919062000a57565b60a081815250504660c08181525050620001616200023660201b60201c565b60e081815250505050505050505062000bed565b5f805f9054906101000a900473ffffffffffffffffffffffffffffffffffffffff169050815f806101000a81548173ffffffffffffffffffffffffffffffffffffffff021916908373ffffffffffffffffffffffffffffffffffffffff1602179055508173ffffffffffffffffffffffffffffffffffffffff168173ffffffffffffffffffffffffffffffffffffffff167f8be0079c531659141344cd1fd0a4f28419497f9722a3daafe3b4186f6b6457e060405160405180910390a35050565b5f7f8b73c3c69bb8fe3d512ecc4cf759cc79239f7b179b0ffacaa9a75d522b39400f600360405162000269919062000b4f565b60405180910390207fc89efdaa54c0f20c7adf612882df0950f5a951637e0307cdcb4c672f298b8bc64630604051602001620002aa95949392919062000b92565b60405160208183030381529060405280519060200120905090565b5f604051905090565b5f80fd5b5f80fd5b5f73ffffffffffffffffffffffffffffffffffffffff82169050919050565b5f6200030182620002d6565b9050919050565b6200031381620002f5565b81146200031e575f80fd5b50565b5f81519050620003318162000308565b92915050565b5f80fd5b5f80fd5b5f601f19601f8301169050919050565b7f4e487b71000000000000000000000000000000000000000000000000000000005f52604160045260245ffd5b62000387826200033f565b810181811067ffffffffffffffff82111715620003a957620003a86200034f565b5b80604052505050565b5f620003bd620002c5565b9050620003cb82826200037c565b919050565b5f67ffffffffffffffff821115620003ed57620003ec6200034f565b5b620003f8826200033f565b9050602081019050919050565b5f5b838110156200042457808201518184015260208101905062000407565b5f8484015250505050565b5f620004456200043f84620003d0565b620003b2565b9050828152602081018484840111156200046457620004636200033b565b5b6200047184828562000405565b509392505050565b5f82601f83011262000490576200048f62000337565b5b8151620004a28482602086016200042f565b91505092915050565b5f60ff82169050919050565b620004c281620004ab565b8114620004cd575f80fd5b50565b5f81519050620004e081620004b7565b92915050565b5f805f8060808587031215620005015762000500620002ce565b5b5f620005108782880162000321565b945050602085015167ffffffffffffffff811115620005345762000533620002d2565b5b620005428782880162000479565b935050604085015167ffffffffffffffff811115620005665762000565620002d2565b5b620005748782880162000479565b92505060606200058787828801620004d0565b91505092959194509250565b6200059e81620002f5565b82525050565b5f602082019050620005b95f83018462000593565b92915050565b5f81519050919050565b7f4e487b71000000000000000000000000000000000000000000000000000000005f52602260045260245ffd5b5f60028204905060018216806200060e57607f821691505b602082108103620006245762000623620005c9565b5b50919050565b5f819050815f5260205f209050919050565b5f6020601f8301049050919050565b5f82821b905092915050565b5f60088302620006887fffffffffffffffffffffffffffffffffffffffffffffffffffffffffffffffff826200064b565b6200069486836200064b565b95508019841693508086168417925050509392505050565b5f819050919050565b5f819050919050565b5f620006de620006d8620006d284620006ac565b620006b5565b620006ac565b9050919050565b5f819050919050565b620006f983620006be565b620007116200070882620006e5565b84845462000657565b825550505050565b5f90565b6200072762000719565b62000734818484620006ee565b505050565b5b818110156200075b576200074f5f826200071d565b6001810190506200073a565b5050565b601f821115620007aa5762000774816200062a565b6200077f846200063c565b810160208510156200078f578190505b620007a76200079e856200063c565b83018262000739565b50505b505050565b5f82821c905092915050565b5f620007cc5f1984600802620007af565b1980831691505092915050565b5f620007e68383620007bb565b9150826002028217905092915050565b6200080182620005bf565b67ffffffffffffffff8111156200081d576200081c6200034f565b5b620008298254620005f6565b620008368282856200075f565b5f60209050601f8311600181146200086c575f841562000857578287015190505b620008638582620007d9565b865550620008d2565b601f1984166200087c866200062a565b5f5b82811015620008a5578489015182556001820191506020850194506020810190506200087e565b86831015620008c55784890151620008c1601f891682620007bb565b8355505b6001600288020188555050505b505050505050565b7f4e487b71000000000000000000000000000000000000000000000000000000005f52601160045260245ffd5b5f8160011c9050919050565b5f808291508390505b600185111562000964578086048111156200093c576200093b620008da565b5b60018516156200094c5780820291505b80810290506200095c8562000907565b94506200091c565b94509492505050565b5f826200097e576001905062000a50565b816200098d575f905062000a50565b8160018114620009a65760028114620009b157620009e7565b600191505062000a50565b60ff841115620009c657620009c5620008da565b5b8360020a915084821115620009e057620009df620008da565b5b5062000a50565b5060208310610133831016604e8410600b841016171562000a215782820a90508381111562000a1b5762000a1a620008da565b5b62000a50565b62000a30848484600162000913565b9250905081840481111562000a4a5762000a49620008da565b5b81810290505b9392505050565b5f62000a6382620006ac565b915062000a7083620004ab565b925062000a9f7fffffffffffffffffffffffffffffffffffffffffffffffffffffffffffffffff84846200096d565b905092915050565b5f81905092915050565b5f819050815f5260205f209050919050565b5f815462000ad181620005f6565b62000add818662000aa7565b9450600182165f811462000afa576001811462000b105762000b46565b60ff198316865281151582028601935062000b46565b62000b1b8562000ab1565b5f5b8381101562000b3e5781548189015260018201915060208101905062000b1d565b838801955050505b50505092915050565b5f62000b5c828462000ac3565b915081905092915050565b5f819050919050565b62000b7b8162000b67565b82525050565b62000b8c81620006ac565b82525050565b5f60a08201905062000ba75f83018862000b70565b62000bb6602083018762000b70565b62000bc5604083018662000b70565b62000bd4606083018562000b81565b62000be3608083018462000593565b9695505050505050565b60805160a05160c05160e0516144e162000c6e5f395f610b8201525f610b4e01525f8181610f1501528181611c32015281816124410152818161246d0152818161250e01528181612577015281816125d5015281816126d2015281816127060152818161274d015281816127790152612e2d01525f610b2901526144e15ff3fe608060405234801561000f575f80fd5b5060043610610251575f3560e01c806389fb4c6611610144578063c5ab3ba6116100c1578063dd62ed3e11610085578063dd62ed3e1461075b578063dd6376991461078b578063dfabc033146107a7578063e985e9c5146107c3578063f2fde38b146107f3578063f780bc1a1461080f57610251565b8063c5ab3ba6146106a5578063c6e672b9146106c3578063c87b56dd146106df578063d505accf1461070f578063d96ca0b91461072b57610251565b8063a22cb46511610108578063a22cb465146105dd578063a9059cbb146105f9578063b1ab931714610629578063b3f9ea3414610659578063b88d4fde1461068957610251565b806389fb4c66146105495780638a696e50146105675780638da5cb5b1461058357806395d89b41146105a1578063976a8435146105bf57610251565b80633644e515116101d25780636e8f624b116101965780636e8f624b146104a557806370a08231146104c3578063715018a6146104f35780637c4ca9cc146104fd5780637ecebe001461051957610251565b80633644e515146103ed57806342842e0e1461040b5780634d966072146104275780634f02c420146104575780636352211e1461047557610251565b806309674eb01161021957806309674eb01461033357806309f0ef651461035157806318160ddd1461038157806323b872dd1461039f578063313ce567146103cf57610251565b806301ffc9a71461025557806302519da31461028557806306fdde03146102b5578063081812fc146102d3578063095ea7b314610303575b5f80fd5b61026f600480360381019061026a9190613767565b61083f565b60405161027c91906137ac565b60405180910390f35b61029f600480360381019061029a919061381f565b610910565b6040516102ac9190613862565b60405180910390f35b6102bd610956565b6040516102ca9190613905565b60405180910390f35b6102ed60048036038101906102e8919061394f565b6109e2565b6040516102fa9190613989565b60405180910390f35b61031d600480360381019061031891906139a2565b610a12565b60405161032a91906137ac565b60405180910390f35b61033b610a4c565b6040516103489190613862565b60405180910390f35b61036b6004803603810190610366919061381f565b610a5c565b60405161037891906137ac565b60405180910390f35b610389610ae4565b6040516103969190613862565b60405180910390f35b6103b960048036038101906103b491906139e0565b610aea565b6040516103c691906137ac565b60405180910390f35b6103d7610b27565b6040516103e49190613a4b565b60405180910390f35b6103f5610b4b565b6040516104029190613a7c565b60405180910390f35b610425600480360381019061042091906139e0565b610ba7565b005b610441600480360381019061043c91906139a2565b610bc6565b60405161044e91906137ac565b60405180910390f35b61045f610d18565b60405161046c9190613862565b60405180910390f35b61048f600480360381019061048a919061394f565b610d1e565b60405161049c9190613989565b60405180910390f35b6104ad610dd3565b6040516104ba9190613862565b60405180910390f35b6104dd60048036038101906104d8919061381f565b610df7565b6040516104ea9190613862565b60405180910390f35b6104fb610e0c565b005b610517600480360381019061051291906139a2565b610e1f565b005b610533600480360381019061052e919061381f565b610e35565b6040516105409190613862565b60405180910390f35b610551610e4a565b60405161055e9190613862565b60405180910390f35b610581600480360381019061057c9190613abf565b610e53565b005b61058b610e60565b6040516105989190613989565b60405180910390f35b6105a9610e87565b6040516105b69190613905565b60405180910390f35b6105c7610f13565b6040516105d49190613862565b60405180910390f35b6105f760048036038101906105f29190613aea565b610f37565b005b610613600480360381019061060e91906139a2565b611094565b60405161062091906137ac565b60405180910390f35b610643600480360381019061063e919061381f565b61110d565b6040516106509190613bdf565b60405180910390f35b610673600480360381019061066e919061381f565b6111a0565b6040516106809190613862565b60405180910390f35b6106a3600480360381019061069e9190613d2b565b6111e9565b005b6106ad61135b565b6040516106ba9190613862565b60405180910390f35b6106dd60048036038101906106d89190613aea565b611364565b005b6106f960048036038101906106f4919061394f565b61137a565b6040516107069190613905565b60405180910390f35b61072960048036038101906107249190613dff565b6113ab565b005b610745600480360381019061074091906139e0565b61172b565b60405161075291906137ac565b60405180910390f35b61077560048036038101906107709190613e9c565b611937565b6040516107829190613862565b60405180910390f35b6107a560048036038101906107a091906139e0565b611957565b005b6107c160048036038101906107bc91906139a2565b611c66565b005b6107dd60048036038101906107d89190613e9c565b611e16565b6040516107ea91906137ac565b60405180910390f35b61080d6004803603810190610808919061381f565b611e40565b005b61082960048036038101906108249190613eda565b611ec4565b6040516108369190613bdf565b60405180910390f35b5f7fcaf91ff5000000000000000000000000000000000000000000000000000000007bffffffffffffffffffffffffffffffffffffffffffffffffffffffff1916827bffffffffffffffffffffffffffffffffffffffffffffffffffffffff1916148061090957507f01ffc9a7000000000000000000000000000000000000000000000000000000007bffffffffffffffffffffffffffffffffffffffffffffffffffffffff1916827bffffffffffffffffffffffffffffffffffffffffffffffffffffffff1916145b9050919050565b5f60075f8373ffffffffffffffffffffffffffffffffffffffff1673ffffffffffffffffffffffffffffffffffffffff1681526020019081526020015f20549050919050565b6003805461096390613f45565b80601f016020809104026020016040519081016040528092919081815260200182805461098f90613f45565b80156109da5780601f106109b1576101008083540402835291602001916109da565b820191905f5260205f20905b8154815290600101906020018083116109bd57829003601f168201915b505050505081565b6009602052805f5260405f205f915054906101000a900473ffffffffffffffffffffffffffffffffffffffff1681565b5f610a1c82611f7e565b15610a3057610a2b8383611c66565b610a41565b610a3a8383610bc6565b9050610a46565b600190505b92915050565b5f610a576001611fd5565b905090565b5f8073ffffffffffffffffffffffffffffffffffffffff168273ffffffffffffffffffffffffffffffffffffffff161480610add5750600d5f8373ffffffffffffffffffffffffffffffffffffffff1673ffffffffffffffffffffffffffffffffffffffff1681526020019081526020015f205f9054906101000a900460ff165b9050919050565b60055481565b5f610af482611f7e565b15610b0957610b04848484611957565b610b1b565b610b1484848461172b565b9050610b20565b600190505b9392505050565b7f000000000000000000000000000000000000000000000000000000000000000081565b5f7f00000000000000000000000000000000000000000000000000000000000000004614610b8057610b7b61202f565b610ba2565b7f00000000000000000000000000000000000000000000000000000000000000005b905090565b610bc183838360405180602001604052805f8152506111e9565b505050565b5f8073ffffffffffffffffffffffffffffffffffffffff168373ffffffffffffffffffffffffffffffffffffffff1603610c2c576040517f5461585f00000000000000000000000000000000000000000000000000000000815260040160405180910390fd5b8160085f3373ffffffffffffffffffffffffffffffffffffffff1673ffffffffffffffffffffffffffffffffffffffff1681526020019081526020015f205f8573ffffffffffffffffffffffffffffffffffffffff1673ffffffffffffffffffffffffffffffffffffffff1681526020019081526020015f20819055508273ffffffffffffffffffffffffffffffffffffffff163373ffffffffffffffffffffffffffffffffffffffff167f8c5be1e5ebec7d5bd14f71427d1e84f3dd0314c0f7b2291e5b200ac8c7c3b92584604051610d069190613862565b60405180910390a36001905092915050565b60065481565b5f610d28826120ba565b9050610d3382611f7e565b610d69576040517f3f6cc76800000000000000000000000000000000000000000000000000000000815260040160405180910390fd5b5f73ffffffffffffffffffffffffffffffffffffffff168173ffffffffffffffffffffffffffffffffffffffff1603610dce576040517fc5723b5100000000000000000000000000000000000000000000000000000000815260040160405180910390fd5b919050565b7f800000000000000000000000000000000000000000000000000000000000000081565b6007602052805f5260405f205f915090505481565b610e146120ef565b610e1d5f612176565b565b610e276120ef565b610e318282612237565b5050565b600e602052805f5260405f205f915090505481565b5f600554905090565b610e5d3382612313565b50565b5f805f9054906101000a900473ffffffffffffffffffffffffffffffffffffffff16905090565b60048054610e9490613f45565b80601f0160208091040260200160405190810160405280929190818152602001828054610ec090613f45565b8015610f0b5780601f10610ee257610100808354040283529160200191610f0b565b820191905f5260205f20905b815481529060010190602001808311610eee57829003601f168201915b505050505081565b7f000000000000000000000000000000000000000000000000000000000000000081565b5f73ffffffffffffffffffffffffffffffffffffffff168273ffffffffffffffffffffffffffffffffffffffff1603610f9c576040517fccea9e6f00000000000000000000000000000000000000000000000000000000815260040160405180910390fd5b80600a5f3373ffffffffffffffffffffffffffffffffffffffff1673ffffffffffffffffffffffffffffffffffffffff1681526020019081526020015f205f8473ffffffffffffffffffffffffffffffffffffffff1673ffffffffffffffffffffffffffffffffffffffff1681526020019081526020015f205f6101000a81548160ff0219169083151502179055508173ffffffffffffffffffffffffffffffffffffffff163373ffffffffffffffffffffffffffffffffffffffff167f17307eab39ab6107e8899845ad3d59bd9653f200f220920489ca2b5937696c318360405161108891906137ac565b60405180910390a35050565b5f8073ffffffffffffffffffffffffffffffffffffffff168373ffffffffffffffffffffffffffffffffffffffff16036110fa576040517f9c8d2cd200000000000000000000000000000000000000000000000000000000815260040160405180910390fd5b6111053384846123ee565b905092915050565b6060600c5f8373ffffffffffffffffffffffffffffffffffffffff1673ffffffffffffffffffffffffffffffffffffffff1681526020019081526020015f2080548060200260200160405190810160405280929190818152602001828054801561119457602002820191905f5260205f20905b815481526020019060010190808311611180575b50505050509050919050565b5f600c5f8373ffffffffffffffffffffffffffffffffffffffff1673ffffffffffffffffffffffffffffffffffffffff1681526020019081526020015f20805490509050919050565b6111f282611f7e565b611228576040517f3f6cc76800000000000000000000000000000000000000000000000000000000815260040160405180910390fd5b611233848484610aea565b505f8373ffffffffffffffffffffffffffffffffffffffff163b1415801561131e575063150b7a0260e01b7bffffffffffffffffffffffffffffffffffffffffffffffffffffffff19168373ffffffffffffffffffffffffffffffffffffffff1663150b7a02338786866040518563ffffffff1660e01b81526004016112bc9493929190613fc7565b6020604051808303815f875af11580156112d8573d5f803e3d5ffd5b505050506040513d601f19601f820116820180604052508101906112fc9190614025565b7bffffffffffffffffffffffffffffffffffffffffffffffffffffffff191614155b15611355576040517f3da6393100000000000000000000000000000000000000000000000000000000815260040160405180910390fd5b50505050565b5f600654905090565b61136c6120ef565b6113768282612313565b5050565b6060611385826127d8565b60405160200161139591906140b0565b6040516020818303038152906040529050919050565b428410156113e5576040517f05787bdf00000000000000000000000000000000000000000000000000000000815260040160405180910390fd5b6113ee85611f7e565b15611425576040517f1f3e0de800000000000000000000000000000000000000000000000000000000815260040160405180910390fd5b5f73ffffffffffffffffffffffffffffffffffffffff168673ffffffffffffffffffffffffffffffffffffffff160361148a576040517f5461585f00000000000000000000000000000000000000000000000000000000815260040160405180910390fd5b5f6001611495610b4b565b7f6e71edae12b1b97f4d1f60370fef10105fa2faae0126114a169c64845d6126c98a8a8a600e5f8f73ffffffffffffffffffffffffffffffffffffffff1673ffffffffffffffffffffffffffffffffffffffff1681526020019081526020015f205f815480929190600101919050558b60405160200161151a969594939291906140d5565b6040516020818303038152906040528051906020012060405160200161154192919061419e565b604051602081830303815290604052805190602001208585856040515f815260200160405260405161157694939291906141d4565b6020604051602081039080840390855afa158015611596573d5f803e3d5ffd5b5050506020604051035190505f73ffffffffffffffffffffffffffffffffffffffff168173ffffffffffffffffffffffffffffffffffffffff16148061160857508773ffffffffffffffffffffffffffffffffffffffff168173ffffffffffffffffffffffffffffffffffffffff1614155b1561163f576040517f815e1d6400000000000000000000000000000000000000000000000000000000815260040160405180910390fd5b8560085f8373ffffffffffffffffffffffffffffffffffffffff1673ffffffffffffffffffffffffffffffffffffffff1681526020019081526020015f205f8973ffffffffffffffffffffffffffffffffffffffff1673ffffffffffffffffffffffffffffffffffffffff1681526020019081526020015f2081905550508573ffffffffffffffffffffffffffffffffffffffff168773ffffffffffffffffffffffffffffffffffffffff167f8c5be1e5ebec7d5bd14f71427d1e84f3dd0314c0f7b2291e5b200ac8c7c3b9258760405161171a9190613862565b60405180910390a350505050505050565b5f8073ffffffffffffffffffffffffffffffffffffffff168473ffffffffffffffffffffffffffffffffffffffff1603611791576040517fddb5de5e00000000000000000000000000000000000000000000000000000000815260040160405180910390fd5b5f73ffffffffffffffffffffffffffffffffffffffff168373ffffffffffffffffffffffffffffffffffffffff16036117f6576040517f9c8d2cd200000000000000000000000000000000000000000000000000000000815260040160405180910390fd5b5f60085f8673ffffffffffffffffffffffffffffffffffffffff1673ffffffffffffffffffffffffffffffffffffffff1681526020019081526020015f205f3373ffffffffffffffffffffffffffffffffffffffff1673ffffffffffffffffffffffffffffffffffffffff1681526020019081526020015f205490507fffffffffffffffffffffffffffffffffffffffffffffffffffffffffffffffff81146119225782816118a59190614244565b60085f8773ffffffffffffffffffffffffffffffffffffffff1673ffffffffffffffffffffffffffffffffffffffff1681526020019081526020015f205f3373ffffffffffffffffffffffffffffffffffffffff1673ffffffffffffffffffffffffffffffffffffffff1681526020019081526020015f20819055505b61192d8585856123ee565b9150509392505050565b6008602052815f5260405f20602052805f5260405f205f91509150505481565b5f73ffffffffffffffffffffffffffffffffffffffff168373ffffffffffffffffffffffffffffffffffffffff16036119bc576040517fddb5de5e00000000000000000000000000000000000000000000000000000000815260040160405180910390fd5b5f73ffffffffffffffffffffffffffffffffffffffff168273ffffffffffffffffffffffffffffffffffffffff1603611a21576040517f9c8d2cd200000000000000000000000000000000000000000000000000000000815260040160405180910390fd5b611a2a816120ba565b73ffffffffffffffffffffffffffffffffffffffff168373ffffffffffffffffffffffffffffffffffffffff1614611a8e576040517f82b4290000000000000000000000000000000000000000000000000000000000815260040160405180910390fd5b8273ffffffffffffffffffffffffffffffffffffffff163373ffffffffffffffffffffffffffffffffffffffff1614158015611b4c5750600a5f8473ffffffffffffffffffffffffffffffffffffffff1673ffffffffffffffffffffffffffffffffffffffff1681526020019081526020015f205f3373ffffffffffffffffffffffffffffffffffffffff1673ffffffffffffffffffffffffffffffffffffffff1681526020019081526020015f205f9054906101000a900460ff16155b8015611bb4575060095f8281526020019081526020015f205f9054906101000a900473ffffffffffffffffffffffffffffffffffffffff1673ffffffffffffffffffffffffffffffffffffffff163373ffffffffffffffffffffffffffffffffffffffff1614155b15611beb576040517f82b4290000000000000000000000000000000000000000000000000000000000815260040160405180910390fd5b611bf482610a5c565b15611c2b576040517f5ce7539700000000000000000000000000000000000000000000000000000000815260040160405180910390fd5b611c5683837f00000000000000000000000000000000000000000000000000000000000000006128a2565b611c618383836129fa565b505050565b5f611c70826120ba565b90508073ffffffffffffffffffffffffffffffffffffffff163373ffffffffffffffffffffffffffffffffffffffff1614158015611d305750600a5f8273ffffffffffffffffffffffffffffffffffffffff1673ffffffffffffffffffffffffffffffffffffffff1681526020019081526020015f205f3373ffffffffffffffffffffffffffffffffffffffff1673ffffffffffffffffffffffffffffffffffffffff1681526020019081526020015f205f9054906101000a900460ff16155b15611d67576040517f82b4290000000000000000000000000000000000000000000000000000000000815260040160405180910390fd5b8260095f8481526020019081526020015f205f6101000a81548173ffffffffffffffffffffffffffffffffffffffff021916908373ffffffffffffffffffffffffffffffffffffffff160217905550818373ffffffffffffffffffffffffffffffffffffffff168273ffffffffffffffffffffffffffffffffffffffff167f8c5be1e5ebec7d5bd14f71427d1e84f3dd0314c0f7b2291e5b200ac8c7c3b92560405160405180910390a4505050565b600a602052815f5260405f20602052805f5260405f205f915091509054906101000a900460ff1681565b611e486120ef565b5f73ffffffffffffffffffffffffffffffffffffffff168173ffffffffffffffffffffffffffffffffffffffff1603611eb8575f6040517f1e4fbdf7000000000000000000000000000000000000000000000000000000008152600401611eaf9190613989565b60405180910390fd5b611ec181612176565b50565b60605f8267ffffffffffffffff811115611ee157611ee0613c07565b5b604051908082528060200260200182016040528015611f0f5781602001602082028036833780820191505090505b5090505f8490505b8385611f239190614277565b811015611f7357611f3e816001612d5290919063ffffffff16565b828683611f4b9190614244565b81518110611f5c57611f5b6142aa565b5b602002602001018181525050806001019050611f17565b508091505092915050565b5f7f800000000000000000000000000000000000000000000000000000000000000082118015611fce57507fffffffffffffffffffffffffffffffffffffffffffffffffffffffffffffffff8214155b9050919050565b5f815f015f9054906101000a90046fffffffffffffffffffffffffffffffff16825f0160109054906101000a90046fffffffffffffffffffffffffffffffff16036fffffffffffffffffffffffffffffffff169050919050565b5f7f8b73c3c69bb8fe3d512ecc4cf759cc79239f7b179b0ffacaa9a75d522b39400f60036040516120609190614373565b60405180910390207fc89efdaa54c0f20c7adf612882df0950f5a951637e0307cdcb4c672f298b8bc6463060405160200161209f959493929190614389565b60405160208183030381529060405280519060200120905090565b5f80600b5f8481526020019081526020015f2054905073ffffffffffffffffffffffffffffffffffffffff8116915050919050565b6120f7612df4565b73ffffffffffffffffffffffffffffffffffffffff16612115610e60565b73ffffffffffffffffffffffffffffffffffffffff161461217457612138612df4565b6040517f118cdaa700000000000000000000000000000000000000000000000000000000815260040161216b9190613989565b60405180910390fd5b565b5f805f9054906101000a900473ffffffffffffffffffffffffffffffffffffffff169050815f806101000a81548173ffffffffffffffffffffffffffffffffffffffff021916908373ffffffffffffffffffffffffffffffffffffffff1602179055508173ffffffffffffffffffffffffffffffffffffffff168173ffffffffffffffffffffffffffffffffffffffff167f8be0079c531659141344cd1fd0a4f28419497f9722a3daafe3b4186f6b6457e060405160405180910390a35050565b5f73ffffffffffffffffffffffffffffffffffffffff168273ffffffffffffffffffffffffffffffffffffffff160361229c576040517f9c8d2cd200000000000000000000000000000000000000000000000000000000815260040160405180910390fd5b7f8000000000000000000000000000000000000000000000000000000000000000816005546122cb9190614277565b1115612303576040517f303b682f00000000000000000000000000000000000000000000000000000000815260040160405180910390fd5b61230e5f83836123ee565b505050565b5f73ffffffffffffffffffffffffffffffffffffffff168273ffffffffffffffffffffffffffffffffffffffff1603612378576040517fa41e3d3f00000000000000000000000000000000000000000000000000000000815260040160405180910390fd5b801561238c5761238782612dfb565b612396565b61239582612e2a565b5b80600d5f8473ffffffffffffffffffffffffffffffffffffffff1673ffffffffffffffffffffffffffffffffffffffff1681526020019081526020015f205f6101000a81548160ff0219169083151502179055505050565b5f806123f985610910565b90505f61240585610910565b90506124128686866128a2565b5f61241c87610a5c565b90505f61242887610a5c565b90508180156124345750805b6127c9578115612505575f7f00000000000000000000000000000000000000000000000000000000000000008461246b9190614407565b7f000000000000000000000000000000000000000000000000000000000000000060075f8b73ffffffffffffffffffffffffffffffffffffffff1673ffffffffffffffffffffffffffffffffffffffff1681526020019081526020015f20546124d49190614407565b6124de9190614244565b90505f5b818110156124fe576124f389612e9c565b8060010190506124e2565b50506127c8565b80156125d2575f7f000000000000000000000000000000000000000000000000000000000000000060075f8b73ffffffffffffffffffffffffffffffffffffffff1673ffffffffffffffffffffffffffffffffffffffff1681526020019081526020015f20546125759190614407565b7f0000000000000000000000000000000000000000000000000000000000000000866125a19190614407565b6125ab9190614244565b90505f5b818110156125cb576125c08a613043565b8060010190506125af565b50506127c7565b5f7f0000000000000000000000000000000000000000000000000000000000000000876125ff9190614407565b90505f5b818110156126ce575f6001600c5f8d73ffffffffffffffffffffffffffffffffffffffff1673ffffffffffffffffffffffffffffffffffffffff1681526020019081526020015f20805490506126599190614244565b90505f600c5f8d73ffffffffffffffffffffffffffffffffffffffff1673ffffffffffffffffffffffffffffffffffffffff1681526020019081526020015f2082815481106126ab576126aa6142aa565b5b905f5260205f20015490506126c18c8c836129fa565b8260010192505050612603565b50807f00000000000000000000000000000000000000000000000000000000000000006126fa8b610910565b6127049190614407565b7f0000000000000000000000000000000000000000000000000000000000000000876127309190614407565b61273a9190614244565b111561274a5761274989613043565b5b807f0000000000000000000000000000000000000000000000000000000000000000856127779190614407565b7f00000000000000000000000000000000000000000000000000000000000000006127a18b610910565b6127ab9190614407565b6127b59190614244565b11156127c5576127c488612e9c565b5b505b5b5b60019450505050509392505050565b60605f60016127e684613172565b0190505f8167ffffffffffffffff81111561280457612803613c07565b5b6040519080825280601f01601f1916602001820160405280156128365781602001600182028036833780820191505090505b5090505f82602001820190505b600115612897578080600190039150507f3031323334353637383961626364656600000000000000000000000000000000600a86061a8153600a858161288c5761288b6143da565b5b0494505f8503612843575b819350505050919050565b5f73ffffffffffffffffffffffffffffffffffffffff168373ffffffffffffffffffffffffffffffffffffffff16036128f2578060055f8282546128e69190614277565b92505081905550612946565b8060075f8573ffffffffffffffffffffffffffffffffffffffff1673ffffffffffffffffffffffffffffffffffffffff1681526020019081526020015f205f82825461293e9190614244565b925050819055505b8060075f8473ffffffffffffffffffffffffffffffffffffffff1673ffffffffffffffffffffffffffffffffffffffff1681526020019081526020015f205f82825401925050819055508173ffffffffffffffffffffffffffffffffffffffff168373ffffffffffffffffffffffffffffffffffffffff167fddf252ad1be2c89b69c2b068fc378daa952ba7f163c4a11628f55a4df523b3ef836040516129ed9190613862565b60405180910390a3505050565b5f73ffffffffffffffffffffffffffffffffffffffff168373ffffffffffffffffffffffffffffffffffffffff1614612be45760095f8281526020019081526020015f205f6101000a81549073ffffffffffffffffffffffffffffffffffffffff02191690555f600c5f8573ffffffffffffffffffffffffffffffffffffffff1673ffffffffffffffffffffffffffffffffffffffff1681526020019081526020015f206001600c5f8773ffffffffffffffffffffffffffffffffffffffff1673ffffffffffffffffffffffffffffffffffffffff1681526020019081526020015f2080549050612aeb9190614244565b81548110612afc57612afb6142aa565b5b905f5260205f2001549050818114612b82575f612b18836132c3565b905081600c5f8773ffffffffffffffffffffffffffffffffffffffff1673ffffffffffffffffffffffffffffffffffffffff1681526020019081526020015f208281548110612b6a57612b696142aa565b5b905f5260205f200181905550612b8082826132e5565b505b600c5f8573ffffffffffffffffffffffffffffffffffffffff1673ffffffffffffffffffffffffffffffffffffffff1681526020019081526020015f20805480612bcf57612bce614437565b5b600190038181905f5260205f20015f90559055505b5f73ffffffffffffffffffffffffffffffffffffffff168273ffffffffffffffffffffffffffffffffffffffff1614612cdd57612c2181836133b3565b600c5f8373ffffffffffffffffffffffffffffffffffffffff1673ffffffffffffffffffffffffffffffffffffffff1681526020019081526020015f2081908060018154018082558091505060019003905f5260205f20015f9091909190915055612cd8816001600c5f8673ffffffffffffffffffffffffffffffffffffffff1673ffffffffffffffffffffffffffffffffffffffff1681526020019081526020015f2080549050612cd39190614244565b6132e5565b612cf2565b600b5f8281526020019081526020015f205f90555b808273ffffffffffffffffffffffffffffffffffffffff168473ffffffffffffffffffffffffffffffffffffffff167fddf252ad1be2c89b69c2b068fc378daa952ba7f163c4a11628f55a4df523b3ef60405160405180910390a4505050565b5f612d5c83611fd5565b8210612d94576040517f580821e700000000000000000000000000000000000000000000000000000000815260040160405180910390fd5b826001015f83855f015f9054906101000a90046fffffffffffffffffffffffffffffffff16016fffffffffffffffffffffffffffffffff166fffffffffffffffffffffffffffffffff1681526020019081526020015f2054905092915050565b5f33905090565b5f612e05826111a0565b90505f5b81811015612e2557612e1a83613043565b806001019050612e09565b505050565b5f7f0000000000000000000000000000000000000000000000000000000000000000612e5583610910565b612e5f9190614407565b90505f612e6b836111a0565b90505f5b8183612e7b9190614244565b811015612e9657612e8b84612e9c565b806001019050612e6f565b50505050565b5f73ffffffffffffffffffffffffffffffffffffffff168173ffffffffffffffffffffffffffffffffffffffff1603612f01576040517f9c8d2cd200000000000000000000000000000000000000000000000000000000815260040160405180910390fd5b5f612f0c6001613420565b612f2157612f1a600161348c565b9050612fc2565b60065f8154612f2f90614464565b919050819055507fffffffffffffffffffffffffffffffffffffffffffffffffffffffffffffffff60065403612f91576040517f303b682f00000000000000000000000000000000000000000000000000000000815260040160405180910390fd5b6006547f8000000000000000000000000000000000000000000000000000000000000000612fbf9190614277565b90505b5f612fcc826120ba565b90505f73ffffffffffffffffffffffffffffffffffffffff168173ffffffffffffffffffffffffffffffffffffffff1614613033576040517f23369fa600000000000000000000000000000000000000000000000000000000815260040160405180910390fd5b61303e8184846129fa565b505050565b5f73ffffffffffffffffffffffffffffffffffffffff168173ffffffffffffffffffffffffffffffffffffffff16036130a8576040517fddb5de5e00000000000000000000000000000000000000000000000000000000815260040160405180910390fd5b5f600c5f8373ffffffffffffffffffffffffffffffffffffffff1673ffffffffffffffffffffffffffffffffffffffff1681526020019081526020015f206001600c5f8573ffffffffffffffffffffffffffffffffffffffff1673ffffffffffffffffffffffffffffffffffffffff1681526020019081526020015f20805490506131339190614244565b81548110613144576131436142aa565b5b905f5260205f200154905061315a825f836129fa565b61316e8160016135e690919063ffffffff16565b5050565b5f805f90507a184f03e93ff9f4daa797ed6e38ed64bf6a1f01000000000000000083106131ce577a184f03e93ff9f4daa797ed6e38ed64bf6a1f01000000000000000083816131c4576131c36143da565b5b0492506040810190505b6d04ee2d6d415b85acef8100000000831061320b576d04ee2d6d415b85acef81000000008381613201576132006143da565b5b0492506020810190505b662386f26fc10000831061323a57662386f26fc1000083816132305761322f6143da565b5b0492506010810190505b6305f5e1008310613263576305f5e1008381613259576132586143da565b5b0492506008810190505b612710831061328857612710838161327e5761327d6143da565b5b0492506004810190505b606483106132ab57606483816132a1576132a06143da565b5b0492506002810190505b600a83106132ba576001810190505b80915050919050565b5f80600b5f8481526020019081526020015f205490508060a01c915050919050565b5f600b5f8481526020019081526020015f2054905060a07fffffffffffffffffffffffff0000000000000000000000000000000000000000901c821115613358576040517ffcb3438c00000000000000000000000000000000000000000000000000000000815260040160405180910390fd5b7fffffffffffffffffffffffff00000000000000000000000000000000000000008260a01b1673ffffffffffffffffffffffffffffffffffffffff821601905080600b5f8581526020019081526020015f2081905550505050565b5f600b5f8481526020019081526020015f2054905073ffffffffffffffffffffffffffffffffffffffff82167fffffffffffffffffffffffff0000000000000000000000000000000000000000821601905080600b5f8581526020019081526020015f2081905550505050565b5f815f015f9054906101000a90046fffffffffffffffffffffffffffffffff166fffffffffffffffffffffffffffffffff16825f0160109054906101000a90046fffffffffffffffffffffffffffffffff166fffffffffffffffffffffffffffffffff16149050919050565b5f80825f0160109054906101000a90046fffffffffffffffffffffffffffffffff169050825f015f9054906101000a90046fffffffffffffffffffffffffffffffff166fffffffffffffffffffffffffffffffff16816fffffffffffffffffffffffffffffffff160361352b576040517f75e52f4f00000000000000000000000000000000000000000000000000000000815260040160405180910390fd5b80600190039050826001015f826fffffffffffffffffffffffffffffffff166fffffffffffffffffffffffffffffffff1681526020019081526020015f20549150826001015f826fffffffffffffffffffffffffffffffff166fffffffffffffffffffffffffffffffff1681526020019081526020015f205f905580835f0160106101000a8154816fffffffffffffffffffffffffffffffff02191690836fffffffffffffffffffffffffffffffff16021790555050919050565b5f6001835f015f9054906101000a90046fffffffffffffffffffffffffffffffff16039050825f0160109054906101000a90046fffffffffffffffffffffffffffffffff166fffffffffffffffffffffffffffffffff16816fffffffffffffffffffffffffffffffff1603613687576040517f8acb5f2700000000000000000000000000000000000000000000000000000000815260040160405180910390fd5b81836001015f836fffffffffffffffffffffffffffffffff166fffffffffffffffffffffffffffffffff1681526020019081526020015f208190555080835f015f6101000a8154816fffffffffffffffffffffffffffffffff02191690836fffffffffffffffffffffffffffffffff160217905550505050565b5f604051905090565b5f80fd5b5f80fd5b5f7fffffffff0000000000000000000000000000000000000000000000000000000082169050919050565b61374681613712565b8114613750575f80fd5b50565b5f813590506137618161373d565b92915050565b5f6020828403121561377c5761377b61370a565b5b5f61378984828501613753565b91505092915050565b5f8115159050919050565b6137a681613792565b82525050565b5f6020820190506137bf5f83018461379d565b92915050565b5f73ffffffffffffffffffffffffffffffffffffffff82169050919050565b5f6137ee826137c5565b9050919050565b6137fe816137e4565b8114613808575f80fd5b50565b5f81359050613819816137f5565b92915050565b5f602082840312156138345761383361370a565b5b5f6138418482850161380b565b91505092915050565b5f819050919050565b61385c8161384a565b82525050565b5f6020820190506138755f830184613853565b92915050565b5f81519050919050565b5f82825260208201905092915050565b5f5b838110156138b2578082015181840152602081019050613897565b5f8484015250505050565b5f601f19601f8301169050919050565b5f6138d78261387b565b6138e18185613885565b93506138f1818560208601613895565b6138fa816138bd565b840191505092915050565b5f6020820190508181035f83015261391d81846138cd565b905092915050565b61392e8161384a565b8114613938575f80fd5b50565b5f8135905061394981613925565b92915050565b5f602082840312156139645761396361370a565b5b5f6139718482850161393b565b91505092915050565b613983816137e4565b82525050565b5f60208201905061399c5f83018461397a565b92915050565b5f80604083850312156139b8576139b761370a565b5b5f6139c58582860161380b565b92505060206139d68582860161393b565b9150509250929050565b5f805f606084860312156139f7576139f661370a565b5b5f613a048682870161380b565b9350506020613a158682870161380b565b9250506040613a268682870161393b565b9150509250925092565b5f60ff82169050919050565b613a4581613a30565b82525050565b5f602082019050613a5e5f830184613a3c565b92915050565b5f819050919050565b613a7681613a64565b82525050565b5f602082019050613a8f5f830184613a6d565b92915050565b613a9e81613792565b8114613aa8575f80fd5b50565b5f81359050613ab981613a95565b92915050565b5f60208284031215613ad457613ad361370a565b5b5f613ae184828501613aab565b91505092915050565b5f8060408385031215613b0057613aff61370a565b5b5f613b0d8582860161380b565b9250506020613b1e85828601613aab565b9150509250929050565b5f81519050919050565b5f82825260208201905092915050565b5f819050602082019050919050565b613b5a8161384a565b82525050565b5f613b6b8383613b51565b60208301905092915050565b5f602082019050919050565b5f613b8d82613b28565b613b978185613b32565b9350613ba283613b42565b805f5b83811015613bd2578151613bb98882613b60565b9750613bc483613b77565b925050600181019050613ba5565b5085935050505092915050565b5f6020820190508181035f830152613bf78184613b83565b905092915050565b5f80fd5b5f80fd5b7f4e487b71000000000000000000000000000000000000000000000000000000005f52604160045260245ffd5b613c3d826138bd565b810181811067ffffffffffffffff82111715613c5c57613c5b613c07565b5b80604052505050565b5f613c6e613701565b9050613c7a8282613c34565b919050565b5f67ffffffffffffffff821115613c9957613c98613c07565b5b613ca2826138bd565b9050602081019050919050565b828183375f83830152505050565b5f613ccf613cca84613c7f565b613c65565b905082815260208101848484011115613ceb57613cea613c03565b5b613cf6848285613caf565b509392505050565b5f82601f830112613d1257613d11613bff565b5b8135613d22848260208601613cbd565b91505092915050565b5f805f8060808587031215613d4357613d4261370a565b5b5f613d508782880161380b565b9450506020613d618782880161380b565b9350506040613d728782880161393b565b925050606085013567ffffffffffffffff811115613d9357613d9261370e565b5b613d9f87828801613cfe565b91505092959194509250565b613db481613a30565b8114613dbe575f80fd5b50565b5f81359050613dcf81613dab565b92915050565b613dde81613a64565b8114613de8575f80fd5b50565b5f81359050613df981613dd5565b92915050565b5f805f805f805f60e0888a031215613e1a57613e1961370a565b5b5f613e278a828b0161380b565b9750506020613e388a828b0161380b565b9650506040613e498a828b0161393b565b9550506060613e5a8a828b0161393b565b9450506080613e6b8a828b01613dc1565b93505060a0613e7c8a828b01613deb565b92505060c0613e8d8a828b01613deb565b91505092959891949750929550565b5f8060408385031215613eb257613eb161370a565b5b5f613ebf8582860161380b565b9250506020613ed08582860161380b565b9150509250929050565b5f8060408385031215613ef057613eef61370a565b5b5f613efd8582860161393b565b9250506020613f0e8582860161393b565b9150509250929050565b7f4e487b71000000000000000000000000000000000000000000000000000000005f52602260045260245ffd5b5f6002820490506001821680613f5c57607f821691505b602082108103613f6f57613f6e613f18565b5b50919050565b5f81519050919050565b5f82825260208201905092915050565b5f613f9982613f75565b613fa38185613f7f565b9350613fb3818560208601613895565b613fbc816138bd565b840191505092915050565b5f608082019050613fda5f83018761397a565b613fe7602083018661397a565b613ff46040830185613853565b81810360608301526140068184613f8f565b905095945050505050565b5f8151905061401f8161373d565b92915050565b5f6020828403121561403a5761403961370a565b5b5f61404784828501614011565b91505092915050565b7f68747470733a2f2f6578616d706c652e636f6d2f746f6b656e2f000000000000815250565b5f81905092915050565b5f61408a8261387b565b6140948185614076565b93506140a4818560208601613895565b80840191505092915050565b5f6140ba82614050565b601a820191506140ca8284614080565b915081905092915050565b5f60c0820190506140e85f830189613a6d565b6140f5602083018861397a565b614102604083018761397a565b61410f6060830186613853565b61411c6080830185613853565b61412960a0830184613853565b979650505050505050565b7f19010000000000000000000000000000000000000000000000000000000000005f82015250565b5f614168600283614076565b915061417382614134565b600282019050919050565b5f819050919050565b61419861419382613a64565b61417e565b82525050565b5f6141a88261415c565b91506141b48285614187565b6020820191506141c48284614187565b6020820191508190509392505050565b5f6080820190506141e75f830187613a6d565b6141f46020830186613a3c565b6142016040830185613a6d565b61420e6060830184613a6d565b95945050505050565b7f4e487b71000000000000000000000000000000000000000000000000000000005f52601160045260245ffd5b5f61424e8261384a565b91506142598361384a565b925082820390508181111561427157614270614217565b5b92915050565b5f6142818261384a565b915061428c8361384a565b92508282019050808211156142a4576142a3614217565b5b92915050565b7f4e487b71000000000000000000000000000000000000000000000000000000005f52603260045260245ffd5b5f81905092915050565b5f819050815f5260205f209050919050565b5f81546142ff81613f45565b61430981866142d7565b9450600182165f811461432357600181146143385761436a565b60ff198316865281151582028601935061436a565b614341856142e1565b5f5b8381101561436257815481890152600182019150602081019050614343565b838801955050505b50505092915050565b5f61437e82846142f3565b915081905092915050565b5f60a08201905061439c5f830188613a6d565b6143a96020830187613a6d565b6143b66040830186613a6d565b6143c36060830185613853565b6143d0608083018461397a565b9695505050505050565b7f4e487b71000000000000000000000000000000000000000000000000000000005f52601260045260245ffd5b5f6144118261384a565b915061441c8361384a565b92508261442c5761442b6143da565b5b828204905092915050565b7f4e487b71000000000000000000000000000000000000000000000000000000005f52603160045260245ffd5b5f61446e8261384a565b91507fffffffffffffffffffffffffffffffffffffffffffffffffffffffffffffffff82036144a05761449f614217565b5b60018201905091905056fea26469706673582212203ec737210bb12139d504d83558b6f8cea7da024321d3f3335b3cd3c1438905b264736f6c63430008180033a2646970667358221220f6b07b5948aa5150dda147a49d5ff44f290824750942f733871bca90b069c2ed64736f6c63430008180033",
			"opcodes": "PUSH1 0x80 PUSH1 0x40 MSTORE PUSH0 PUSH1 0x1 SSTORE CALLVALUE DUP1 ISZERO PUSH2 0x13 JUMPI PUSH0 DUP1 REVERT JUMPDEST POP PUSH2 0x582B DUP1 PUSH2 0x21 PUSH0 CODECOPY PUSH0 RETURN INVALID PUSH1 0x80 PUSH1 0x40 MSTORE CALLVALUE DUP1 ISZERO PUSH3 0x10 JUMPI PUSH0 DUP1 REVERT JUMPDEST POP PUSH1 0x4 CALLDATASIZE LT PUSH3 0x44 JUMPI PUSH0 CALLDATALOAD PUSH1 0xE0 SHR DUP1 PUSH4 0x80C9419E EQ PUSH3 0x48 JUMPI DUP1 PUSH4 0xAF640D0F EQ PUSH3 0x7E JUMPI DUP1 PUSH4 0xEF26A315 EQ PUSH3 0xA0 JUMPI JUMPDEST PUSH0 DUP1 REVERT JUMPDEST PUSH3 0x66 PUSH1 0x4 DUP1 CALLDATASIZE SUB DUP2 ADD SWAP1 PUSH3 0x60 SWAP2 SWAP1 PUSH3 0x216 JUMP JUMPDEST PUSH3 0xC0 JUMP JUMPDEST PUSH1 0x40 MLOAD PUSH3 0x75 SWAP2 SWAP1 PUSH3 0x289 JUMP JUMPDEST PUSH1 0x40 MLOAD DUP1 SWAP2 SUB SWAP1 RETURN JUMPDEST PUSH3 0x88 PUSH3 0xFB JUMP JUMPDEST PUSH1 0x40 MLOAD PUSH3 0x97 SWAP2 SWAP1 PUSH3 0x2B5 JUMP JUMPDEST PUSH1 0x40 MLOAD DUP1 SWAP2 SUB SWAP1 RETURN JUMPDEST PUSH3 0xBE PUSH1 0x4 DUP1 CALLDATASIZE SUB DUP2 ADD SWAP1 PUSH3 0xB8 SWAP2 SWAP1 PUSH3 0x492 JUMP JUMPDEST PUSH3 0x101 JUMP JUMPDEST STOP JUMPDEST PUSH0 DUP2 DUP2 SLOAD DUP2 LT PUSH3 0xCF JUMPI PUSH0 DUP1 REVERT JUMPDEST SWAP1 PUSH0 MSTORE PUSH1 0x20 PUSH0 KECCAK256 ADD PUSH0 SWAP2 POP SLOAD SWAP1 PUSH2 0x100 EXP SWAP1 DIV PUSH20 0xFFFFFFFFFFFFFFFFFFFFFFFFFFFFFFFFFFFFFFFF AND DUP2 JUMP JUMPDEST PUSH1 0x1 SLOAD DUP2 JUMP JUMPDEST PUSH0 DUP5 DUP5 DUP5 DUP5 PUSH1 0x40 MLOAD PUSH3 0x114 SWAP1 PUSH3 0x1BF JUMP JUMPDEST PUSH3 0x123 SWAP5 SWAP4 SWAP3 SWAP2 SWAP1 PUSH3 0x5D4 JUMP JUMPDEST PUSH1 0x40 MLOAD DUP1 SWAP2 SUB SWAP1 PUSH0 CREATE DUP1 ISZERO DUP1 ISZERO PUSH3 0x13D JUMPI RETURNDATASIZE PUSH0 DUP1 RETURNDATACOPY RETURNDATASIZE PUSH0 REVERT JUMPDEST POP SWAP1 POP PUSH0 DUP2 SWAP1 DUP1 PUSH1 0x1 DUP2 SLOAD ADD DUP1 DUP3 SSTORE DUP1 SWAP2 POP POP PUSH1 0x1 SWAP1 SUB SWAP1 PUSH0 MSTORE PUSH1 0x20 PUSH0 KECCAK256 ADD PUSH0 SWAP1 SWAP2 SWAP1 SWAP2 SWAP1 SWAP2 PUSH2 0x100 EXP DUP2 SLOAD DUP2 PUSH20 0xFFFFFFFFFFFFFFFFFFFFFFFFFFFFFFFFFFFFFFFF MUL NOT AND SWAP1 DUP4 PUSH20 0xFFFFFFFFFFFFFFFFFFFFFFFFFFFFFFFFFFFFFFFF AND MUL OR SWAP1 SSTORE POP PUSH1 0x1 PUSH0 DUP2 SLOAD DUP1 SWAP3 SWAP2 SWAP1 PUSH3 0x1B3 SWAP1 PUSH3 0x65A JUMP JUMPDEST SWAP2 SWAP1 POP SSTORE POP POP POP POP POP POP JUMP JUMPDEST PUSH2 0x514F DUP1 PUSH3 0x6A7 DUP4 CODECOPY ADD SWAP1 JUMP JUMPDEST PUSH0 PUSH1 0x40 MLOAD SWAP1 POP SWAP1 JUMP JUMPDEST PUSH0 DUP1 REVERT JUMPDEST PUSH0 DUP1 REVERT JUMPDEST PUSH0 DUP2 SWAP1 POP SWAP2 SWAP1 POP JUMP JUMPDEST PUSH3 0x1F2 DUP2 PUSH3 0x1DE JUMP JUMPDEST DUP2 EQ PUSH3 0x1FD JUMPI PUSH0 DUP1 REVERT JUMPDEST POP JUMP JUMPDEST PUSH0 DUP2 CALLDATALOAD SWAP1 POP PUSH3 0x210 DUP2 PUSH3 0x1E7 JUMP JUMPDEST SWAP3 SWAP2 POP POP JUMP JUMPDEST PUSH0 PUSH1 0x20 DUP3 DUP5 SUB SLT ISZERO PUSH3 0x22E JUMPI PUSH3 0x22D PUSH3 0x1D6 JUMP JUMPDEST JUMPDEST PUSH0 PUSH3 0x23D DUP5 DUP3 DUP6 ADD PUSH3 0x200 JUMP JUMPDEST SWAP2 POP POP SWAP3 SWAP2 POP POP JUMP JUMPDEST PUSH0 PUSH20 0xFFFFFFFFFFFFFFFFFFFFFFFFFFFFFFFFFFFFFFFF DUP3 AND SWAP1 POP SWAP2 SWAP1 POP JUMP JUMPDEST PUSH0 PUSH3 0x271 DUP3 PUSH3 0x246 JUMP JUMPDEST SWAP1 POP SWAP2 SWAP1 POP JUMP JUMPDEST PUSH3 0x283 DUP2 PUSH3 0x265 JUMP JUMPDEST DUP3 MSTORE POP POP JUMP JUMPDEST PUSH0 PUSH1 0x20 DUP3 ADD SWAP1 POP PUSH3 0x29E PUSH0 DUP4 ADD DUP5 PUSH3 0x278 JUMP JUMPDEST SWAP3 SWAP2 POP POP JUMP JUMPDEST PUSH3 0x2AF DUP2 PUSH3 0x1DE JUMP JUMPDEST DUP3 MSTORE POP POP JUMP JUMPDEST PUSH0 PUSH1 0x20 DUP3 ADD SWAP1 POP PUSH3 0x2CA PUSH0 DUP4 ADD DUP5 PUSH3 0x2A4 JUMP JUMPDEST SWAP3 SWAP2 POP POP JUMP JUMPDEST PUSH3 0x2DB DUP2 PUSH3 0x265 JUMP JUMPDEST DUP2 EQ PUSH3 0x2E6 JUMPI PUSH0 DUP1 REVERT JUMPDEST POP JUMP JUMPDEST PUSH0 DUP2 CALLDATALOAD SWAP1 POP PUSH3 0x2F9 DUP2 PUSH3 0x2D0 JUMP JUMPDEST SWAP3 SWAP2 POP POP JUMP JUMPDEST PUSH0 DUP1 REVERT JUMPDEST PUSH0 DUP1 REVERT JUMPDEST PUSH0 PUSH1 0x1F NOT PUSH1 0x1F DUP4 ADD AND SWAP1 POP SWAP2 SWAP1 POP JUMP JUMPDEST PUSH32 0x4E487B7100000000000000000000000000000000000000000000000000000000 PUSH0 MSTORE PUSH1 0x41 PUSH1 0x4 MSTORE PUSH1 0x24 PUSH0 REVERT JUMPDEST PUSH3 0x34F DUP3 PUSH3 0x307 JUMP JUMPDEST DUP2 ADD DUP2 DUP2 LT PUSH8 0xFFFFFFFFFFFFFFFF DUP3 GT OR ISZERO PUSH3 0x371 JUMPI PUSH3 0x370 PUSH3 0x317 JUMP JUMPDEST JUMPDEST DUP1 PUSH1 0x40 MSTORE POP POP POP JUMP JUMPDEST PUSH0 PUSH3 0x385 PUSH3 0x1CD JUMP JUMPDEST SWAP1 POP PUSH3 0x393 DUP3 DUP3 PUSH3 0x344 JUMP JUMPDEST SWAP2 SWAP1 POP JUMP JUMPDEST PUSH0 PUSH8 0xFFFFFFFFFFFFFFFF DUP3 GT ISZERO PUSH3 0x3B5 JUMPI PUSH3 0x3B4 PUSH3 0x317 JUMP JUMPDEST JUMPDEST PUSH3 0x3C0 DUP3 PUSH3 0x307 JUMP JUMPDEST SWAP1 POP PUSH1 0x20 DUP2 ADD SWAP1 POP SWAP2 SWAP1 POP JUMP JUMPDEST DUP3 DUP2 DUP4 CALLDATACOPY PUSH0 DUP4 DUP4 ADD MSTORE POP POP POP JUMP JUMPDEST PUSH0 PUSH3 0x3F1 PUSH3 0x3EB DUP5 PUSH3 0x398 JUMP JUMPDEST PUSH3 0x37A JUMP JUMPDEST SWAP1 POP DUP3 DUP2 MSTORE PUSH1 0x20 DUP2 ADD DUP5 DUP5 DUP5 ADD GT ISZERO PUSH3 0x410 JUMPI PUSH3 0x40F PUSH3 0x303 JUMP JUMPDEST JUMPDEST PUSH3 0x41D DUP5 DUP3 DUP6 PUSH3 0x3CD JUMP JUMPDEST POP SWAP4 SWAP3 POP POP POP JUMP JUMPDEST PUSH0 DUP3 PUSH1 0x1F DUP4 ADD SLT PUSH3 0x43C JUMPI PUSH3 0x43B PUSH3 0x2FF JUMP JUMPDEST JUMPDEST DUP2 CALLDATALOAD PUSH3 0x44E DUP5 DUP3 PUSH1 0x20 DUP7 ADD PUSH3 0x3DB JUMP JUMPDEST SWAP2 POP POP SWAP3 SWAP2 POP POP JUMP JUMPDEST PUSH0 PUSH1 0xFF DUP3 AND SWAP1 POP SWAP2 SWAP1 POP JUMP JUMPDEST PUSH3 0x46E DUP2 PUSH3 0x457 JUMP JUMPDEST DUP2 EQ PUSH3 0x479 JUMPI PUSH0 DUP1 REVERT JUMPDEST POP JUMP JUMPDEST PUSH0 DUP2 CALLDATALOAD SWAP1 POP PUSH3 0x48C DUP2 PUSH3 0x463 JUMP JUMPDEST SWAP3 SWAP2 POP POP JUMP JUMPDEST PUSH0 DUP1 PUSH0 DUP1 PUSH1 0x80 DUP6 DUP8 SUB SLT ISZERO PUSH3 0x4AD JUMPI PUSH3 0x4AC PUSH3 0x1D6 JUMP JUMPDEST JUMPDEST PUSH0 PUSH3 0x4BC DUP8 DUP3 DUP9 ADD PUSH3 0x2E9 JUMP JUMPDEST SWAP5 POP POP PUSH1 0x20 DUP6 ADD CALLDATALOAD PUSH8 0xFFFFFFFFFFFFFFFF DUP2 GT ISZERO PUSH3 0x4E0 JUMPI PUSH3 0x4DF PUSH3 0x1DA JUMP JUMPDEST JUMPDEST PUSH3 0x4EE DUP8 DUP3 DUP9 ADD PUSH3 0x425 JUMP JUMPDEST SWAP4 POP POP PUSH1 0x40 DUP6 ADD CALLDATALOAD PUSH8 0xFFFFFFFFFFFFFFFF DUP2 GT ISZERO PUSH3 0x512 JUMPI PUSH3 0x511 PUSH3 0x1DA JUMP JUMPDEST JUMPDEST PUSH3 0x520 DUP8 DUP3 DUP9 ADD PUSH3 0x425 JUMP JUMPDEST SWAP3 POP POP PUSH1 0x60 PUSH3 0x533 DUP8 DUP3 DUP9 ADD PUSH3 0x47C JUMP JUMPDEST SWAP2 POP POP SWAP3 SWAP6 SWAP2 SWAP5 POP SWAP3 POP JUMP JUMPDEST PUSH0 DUP2 MLOAD SWAP1 POP SWAP2 SWAP1 POP JUMP JUMPDEST PUSH0 DUP3 DUP3 MSTORE PUSH1 0x20 DUP3 ADD SWAP1 POP SWAP3 SWAP2 POP POP JUMP JUMPDEST PUSH0 JUMPDEST DUP4 DUP2 LT ISZERO PUSH3 0x578 JUMPI DUP1 DUP3 ADD MLOAD DUP2 DUP5 ADD MSTORE PUSH1 0x20 DUP2 ADD SWAP1 POP PUSH3 0x55B JUMP JUMPDEST PUSH0 DUP5 DUP5 ADD MSTORE POP POP POP POP JUMP JUMPDEST PUSH0 PUSH3 0x58F DUP3 PUSH3 0x53F JUMP JUMPDEST PUSH3 0x59B DUP2 DUP6 PUSH3 0x549 JUMP JUMPDEST SWAP4 POP PUSH3 0x5AD DUP2 DUP6 PUSH1 0x20 DUP7 ADD PUSH3 0x559 JUMP JUMPDEST PUSH3 0x5B8 DUP2 PUSH3 0x307 JUMP JUMPDEST DUP5 ADD SWAP2 POP POP SWAP3 SWAP2 POP POP JUMP JUMPDEST PUSH3 0x5CE DUP2 PUSH3 0x457 JUMP JUMPDEST DUP3 MSTORE POP POP JUMP JUMPDEST PUSH0 PUSH1 0x80 DUP3 ADD SWAP1 POP PUSH3 0x5E9 PUSH0 DUP4 ADD DUP8 PUSH3 0x278 JUMP JUMPDEST DUP2 DUP2 SUB PUSH1 0x20 DUP4 ADD MSTORE PUSH3 0x5FD DUP2 DUP7 PUSH3 0x583 JUMP JUMPDEST SWAP1 POP DUP2 DUP2 SUB PUSH1 0x40 DUP4 ADD MSTORE PUSH3 0x613 DUP2 DUP6 PUSH3 0x583 JUMP JUMPDEST SWAP1 POP PUSH3 0x624 PUSH1 0x60 DUP4 ADD DUP5 PUSH3 0x5C3 JUMP JUMPDEST SWAP6 SWAP5 POP POP POP POP POP JUMP JUMPDEST PUSH32 0x4E487B7100000000000000000000000000000000000000000000000000000000 PUSH0 MSTORE PUSH1 0x11 PUSH1 0x4 MSTORE PUSH1 0x24 PUSH0 REVERT JUMPDEST PUSH0 PUSH3 0x666 DUP3 PUSH3 0x1DE JUMP JUMPDEST SWAP2 POP PUSH32 0xFFFFFFFFFFFFFFFFFFFFFFFFFFFFFFFFFFFFFFFFFFFFFFFFFFFFFFFFFFFFFFFF DUP3 SUB PUSH3 0x69B JUMPI PUSH3 0x69A PUSH3 0x62D JUMP JUMPDEST JUMPDEST PUSH1 0x1 DUP3 ADD SWAP1 POP SWAP2 SWAP1 POP JUMP INVALID PUSH2 0x100 PUSH1 0x40 MSTORE CALLVALUE DUP1 ISZERO PUSH3 0x11 JUMPI PUSH0 DUP1 REVERT JUMPDEST POP PUSH1 0x40 MLOAD PUSH3 0x514F CODESIZE SUB DUP1 PUSH3 0x514F DUP4 CODECOPY DUP2 DUP2 ADD PUSH1 0x40 MSTORE DUP2 ADD SWAP1 PUSH3 0x37 SWAP2 SWAP1 PUSH3 0x4E6 JUMP JUMPDEST DUP3 DUP3 DUP3 DUP7 PUSH0 PUSH20 0xFFFFFFFFFFFFFFFFFFFFFFFFFFFFFFFFFFFFFFFF AND DUP2 PUSH20 0xFFFFFFFFFFFFFFFFFFFFFFFFFFFFFFFFFFFFFFFF AND SUB PUSH3 0xAE JUMPI PUSH0 PUSH1 0x40 MLOAD PUSH32 0x1E4FBDF700000000000000000000000000000000000000000000000000000000 DUP2 MSTORE PUSH1 0x4 ADD PUSH3 0xA5 SWAP2 SWAP1 PUSH3 0x5A4 JUMP JUMPDEST PUSH1 0x40 MLOAD DUP1 SWAP2 SUB SWAP1 REVERT JUMPDEST PUSH3 0xBF DUP2 PUSH3 0x175 PUSH1 0x20 SHL PUSH1 0x20 SHR JUMP JUMPDEST POP DUP3 PUSH1 0x3 SWAP1 DUP2 PUSH3 0xD1 SWAP2 SWAP1 PUSH3 0x7F6 JUMP JUMPDEST POP DUP2 PUSH1 0x4 SWAP1 DUP2 PUSH3 0xE3 SWAP2 SWAP1 PUSH3 0x7F6 JUMP JUMPDEST POP PUSH1 0x12 DUP2 PUSH1 0xFF AND LT ISZERO PUSH3 0x123 JUMPI PUSH1 0x40 MLOAD PUSH32 0x98790FD500000000000000000000000000000000000000000000000000000000 DUP2 MSTORE PUSH1 0x4 ADD PUSH1 0x40 MLOAD DUP1 SWAP2 SUB SWAP1 REVERT JUMPDEST DUP1 PUSH1 0xFF AND PUSH1 0x80 DUP2 PUSH1 0xFF AND DUP2 MSTORE POP POP PUSH1 0x80 MLOAD PUSH1 0xA PUSH3 0x142 SWAP2 SWAP1 PUSH3 0xA57 JUMP JUMPDEST PUSH1 0xA0 DUP2 DUP2 MSTORE POP POP CHAINID PUSH1 0xC0 DUP2 DUP2 MSTORE POP POP PUSH3 0x161 PUSH3 0x236 PUSH1 0x20 SHL PUSH1 0x20 SHR JUMP JUMPDEST PUSH1 0xE0 DUP2 DUP2 MSTORE POP POP POP POP POP POP POP POP POP PUSH3 0xBED JUMP JUMPDEST PUSH0 DUP1 PUSH0 SWAP1 SLOAD SWAP1 PUSH2 0x100 EXP SWAP1 DIV PUSH20 0xFFFFFFFFFFFFFFFFFFFFFFFFFFFFFFFFFFFFFFFF AND SWAP1 POP DUP2 PUSH0 DUP1 PUSH2 0x100 EXP DUP2 SLOAD DUP2 PUSH20 0xFFFFFFFFFFFFFFFFFFFFFFFFFFFFFFFFFFFFFFFF MUL NOT AND SWAP1 DUP4 PUSH20 0xFFFFFFFFFFFFFFFFFFFFFFFFFFFFFFFFFFFFFFFF AND MUL OR SWAP1 SSTORE POP DUP2 PUSH20 0xFFFFFFFFFFFFFFFFFFFFFFFFFFFFFFFFFFFFFFFF AND DUP2 PUSH20 0xFFFFFFFFFFFFFFFFFFFFFFFFFFFFFFFFFFFFFFFF AND PUSH32 0x8BE0079C531659141344CD1FD0A4F28419497F9722A3DAAFE3B4186F6B6457E0 PUSH1 0x40 MLOAD PUSH1 0x40 MLOAD DUP1 SWAP2 SUB SWAP1 LOG3 POP POP JUMP JUMPDEST PUSH0 PUSH32 0x8B73C3C69BB8FE3D512ECC4CF759CC79239F7B179B0FFACAA9A75D522B39400F PUSH1 0x3 PUSH1 0x40 MLOAD PUSH3 0x269 SWAP2 SWAP1 PUSH3 0xB4F JUMP JUMPDEST PUSH1 0x40 MLOAD DUP1 SWAP2 SUB SWAP1 KECCAK256 PUSH32 0xC89EFDAA54C0F20C7ADF612882DF0950F5A951637E0307CDCB4C672F298B8BC6 CHAINID ADDRESS PUSH1 0x40 MLOAD PUSH1 0x20 ADD PUSH3 0x2AA SWAP6 SWAP5 SWAP4 SWAP3 SWAP2 SWAP1 PUSH3 0xB92 JUMP JUMPDEST PUSH1 0x40 MLOAD PUSH1 0x20 DUP2 DUP4 SUB SUB DUP2 MSTORE SWAP1 PUSH1 0x40 MSTORE DUP1 MLOAD SWAP1 PUSH1 0x20 ADD KECCAK256 SWAP1 POP SWAP1 JUMP JUMPDEST PUSH0 PUSH1 0x40 MLOAD SWAP1 POP SWAP1 JUMP JUMPDEST PUSH0 DUP1 REVERT JUMPDEST PUSH0 DUP1 REVERT JUMPDEST PUSH0 PUSH20 0xFFFFFFFFFFFFFFFFFFFFFFFFFFFFFFFFFFFFFFFF DUP3 AND SWAP1 POP SWAP2 SWAP1 POP JUMP JUMPDEST PUSH0 PUSH3 0x301 DUP3 PUSH3 0x2D6 JUMP JUMPDEST SWAP1 POP SWAP2 SWAP1 POP JUMP JUMPDEST PUSH3 0x313 DUP2 PUSH3 0x2F5 JUMP JUMPDEST DUP2 EQ PUSH3 0x31E JUMPI PUSH0 DUP1 REVERT JUMPDEST POP JUMP JUMPDEST PUSH0 DUP2 MLOAD SWAP1 POP PUSH3 0x331 DUP2 PUSH3 0x308 JUMP JUMPDEST SWAP3 SWAP2 POP POP JUMP JUMPDEST PUSH0 DUP1 REVERT JUMPDEST PUSH0 DUP1 REVERT JUMPDEST PUSH0 PUSH1 0x1F NOT PUSH1 0x1F DUP4 ADD AND SWAP1 POP SWAP2 SWAP1 POP JUMP JUMPDEST PUSH32 0x4E487B7100000000000000000000000000000000000000000000000000000000 PUSH0 MSTORE PUSH1 0x41 PUSH1 0x4 MSTORE PUSH1 0x24 PUSH0 REVERT JUMPDEST PUSH3 0x387 DUP3 PUSH3 0x33F JUMP JUMPDEST DUP2 ADD DUP2 DUP2 LT PUSH8 0xFFFFFFFFFFFFFFFF DUP3 GT OR ISZERO PUSH3 0x3A9 JUMPI PUSH3 0x3A8 PUSH3 0x34F JUMP JUMPDEST JUMPDEST DUP1 PUSH1 0x40 MSTORE POP POP POP JUMP JUMPDEST PUSH0 PUSH3 0x3BD PUSH3 0x2C5 JUMP JUMPDEST SWAP1 POP PUSH3 0x3CB DUP3 DUP3 PUSH3 0x37C JUMP JUMPDEST SWAP2 SWAP1 POP JUMP JUMPDEST PUSH0 PUSH8 0xFFFFFFFFFFFFFFFF DUP3 GT ISZERO PUSH3 0x3ED JUMPI PUSH3 0x3EC PUSH3 0x34F JUMP JUMPDEST JUMPDEST PUSH3 0x3F8 DUP3 PUSH3 0x33F JUMP JUMPDEST SWAP1 POP PUSH1 0x20 DUP2 ADD SWAP1 POP SWAP2 SWAP1 POP JUMP JUMPDEST PUSH0 JUMPDEST DUP4 DUP2 LT ISZERO PUSH3 0x424 JUMPI DUP1 DUP3 ADD MLOAD DUP2 DUP5 ADD MSTORE PUSH1 0x20 DUP2 ADD SWAP1 POP PUSH3 0x407 JUMP JUMPDEST PUSH0 DUP5 DUP5 ADD MSTORE POP POP POP POP JUMP JUMPDEST PUSH0 PUSH3 0x445 PUSH3 0x43F DUP5 PUSH3 0x3D0 JUMP JUMPDEST PUSH3 0x3B2 JUMP JUMPDEST SWAP1 POP DUP3 DUP2 MSTORE PUSH1 0x20 DUP2 ADD DUP5 DUP5 DUP5 ADD GT ISZERO PUSH3 0x464 JUMPI PUSH3 0x463 PUSH3 0x33B JUMP JUMPDEST JUMPDEST PUSH3 0x471 DUP5 DUP3 DUP6 PUSH3 0x405 JUMP JUMPDEST POP SWAP4 SWAP3 POP POP POP JUMP JUMPDEST PUSH0 DUP3 PUSH1 0x1F DUP4 ADD SLT PUSH3 0x490 JUMPI PUSH3 0x48F PUSH3 0x337 JUMP JUMPDEST JUMPDEST DUP2 MLOAD PUSH3 0x4A2 DUP5 DUP3 PUSH1 0x20 DUP7 ADD PUSH3 0x42F JUMP JUMPDEST SWAP2 POP POP SWAP3 SWAP2 POP POP JUMP JUMPDEST PUSH0 PUSH1 0xFF DUP3 AND SWAP1 POP SWAP2 SWAP1 POP JUMP JUMPDEST PUSH3 0x4C2 DUP2 PUSH3 0x4AB JUMP JUMPDEST DUP2 EQ PUSH3 0x4CD JUMPI PUSH0 DUP1 REVERT JUMPDEST POP JUMP JUMPDEST PUSH0 DUP2 MLOAD SWAP1 POP PUSH3 0x4E0 DUP2 PUSH3 0x4B7 JUMP JUMPDEST SWAP3 SWAP2 POP POP JUMP JUMPDEST PUSH0 DUP1 PUSH0 DUP1 PUSH1 0x80 DUP6 DUP8 SUB SLT ISZERO PUSH3 0x501 JUMPI PUSH3 0x500 PUSH3 0x2CE JUMP JUMPDEST JUMPDEST PUSH0 PUSH3 0x510 DUP8 DUP3 DUP9 ADD PUSH3 0x321 JUMP JUMPDEST SWAP5 POP POP PUSH1 0x20 DUP6 ADD MLOAD PUSH8 0xFFFFFFFFFFFFFFFF DUP2 GT ISZERO PUSH3 0x534 JUMPI PUSH3 0x533 PUSH3 0x2D2 JUMP JUMPDEST JUMPDEST PUSH3 0x542 DUP8 DUP3 DUP9 ADD PUSH3 0x479 JUMP JUMPDEST SWAP4 POP POP PUSH1 0x40 DUP6 ADD MLOAD PUSH8 0xFFFFFFFFFFFFFFFF DUP2 GT ISZERO PUSH3 0x566 JUMPI PUSH3 0x565 PUSH3 0x2D2 JUMP JUMPDEST JUMPDEST PUSH3 0x574 DUP8 DUP3 DUP9 ADD PUSH3 0x479 JUMP JUMPDEST SWAP3 POP POP PUSH1 0x60 PUSH3 0x587 DUP8 DUP3 DUP9 ADD PUSH3 0x4D0 JUMP JUMPDEST SWAP2 POP POP SWAP3 SWAP6 SWAP2 SWAP5 POP SWAP3 POP JUMP JUMPDEST PUSH3 0x59E DUP2 PUSH3 0x2F5 JUMP JUMPDEST DUP3 MSTORE POP POP JUMP JUMPDEST PUSH0 PUSH1 0x20 DUP3 ADD SWAP1 POP PUSH3 0x5B9 PUSH0 DUP4 ADD DUP5 PUSH3 0x593 JUMP JUMPDEST SWAP3 SWAP2 POP POP JUMP JUMPDEST PUSH0 DUP2 MLOAD SWAP1 POP SWAP2 SWAP1 POP JUMP JUMPDEST PUSH32 0x4E487B7100000000000000000000000000000000000000000000000000000000 PUSH0 MSTORE PUSH1 0x22 PUSH1 0x4 MSTORE PUSH1 0x24 PUSH0 REVERT JUMPDEST PUSH0 PUSH1 0x2 DUP3 DIV SWAP1 POP PUSH1 0x1 DUP3 AND DUP1 PUSH3 0x60E JUMPI PUSH1 0x7F DUP3 AND SWAP2 POP JUMPDEST PUSH1 0x20 DUP3 LT DUP2 SUB PUSH3 0x624 JUMPI PUSH3 0x623 PUSH3 0x5C9 JUMP JUMPDEST JUMPDEST POP SWAP2 SWAP1 POP JUMP JUMPDEST PUSH0 DUP2 SWAP1 POP DUP2 PUSH0 MSTORE PUSH1 0x20 PUSH0 KECCAK256 SWAP1 POP SWAP2 SWAP1 POP JUMP JUMPDEST PUSH0 PUSH1 0x20 PUSH1 0x1F DUP4 ADD DIV SWAP1 POP SWAP2 SWAP1 POP JUMP JUMPDEST PUSH0 DUP3 DUP3 SHL SWAP1 POP SWAP3 SWAP2 POP POP JUMP JUMPDEST PUSH0 PUSH1 0x8 DUP4 MUL PUSH3 0x688 PUSH32 0xFFFFFFFFFFFFFFFFFFFFFFFFFFFFFFFFFFFFFFFFFFFFFFFFFFFFFFFFFFFFFFFF DUP3 PUSH3 0x64B JUMP JUMPDEST PUSH3 0x694 DUP7 DUP4 PUSH3 0x64B JUMP JUMPDEST SWAP6 POP DUP1 NOT DUP5 AND SWAP4 POP DUP1 DUP7 AND DUP5 OR SWAP3 POP POP POP SWAP4 SWAP3 POP POP POP JUMP JUMPDEST PUSH0 DUP2 SWAP1 POP SWAP2 SWAP1 POP JUMP JUMPDEST PUSH0 DUP2 SWAP1 POP SWAP2 SWAP1 POP JUMP JUMPDEST PUSH0 PUSH3 0x6DE PUSH3 0x6D8 PUSH3 0x6D2 DUP5 PUSH3 0x6AC JUMP JUMPDEST PUSH3 0x6B5 JUMP JUMPDEST PUSH3 0x6AC JUMP JUMPDEST SWAP1 POP SWAP2 SWAP1 POP JUMP JUMPDEST PUSH0 DUP2 SWAP1 POP SWAP2 SWAP1 POP JUMP JUMPDEST PUSH3 0x6F9 DUP4 PUSH3 0x6BE JUMP JUMPDEST PUSH3 0x711 PUSH3 0x708 DUP3 PUSH3 0x6E5 JUMP JUMPDEST DUP5 DUP5 SLOAD PUSH3 0x657 JUMP JUMPDEST DUP3 SSTORE POP POP POP POP JUMP JUMPDEST PUSH0 SWAP1 JUMP JUMPDEST PUSH3 0x727 PUSH3 0x719 JUMP JUMPDEST PUSH3 0x734 DUP2 DUP5 DUP5 PUSH3 0x6EE JUMP JUMPDEST POP POP POP JUMP JUMPDEST JUMPDEST DUP2 DUP2 LT ISZERO PUSH3 0x75B JUMPI PUSH3 0x74F PUSH0 DUP3 PUSH3 0x71D JUMP JUMPDEST PUSH1 0x1 DUP2 ADD SWAP1 POP PUSH3 0x73A JUMP JUMPDEST POP POP JUMP JUMPDEST PUSH1 0x1F DUP3 GT ISZERO PUSH3 0x7AA JUMPI PUSH3 0x774 DUP2 PUSH3 0x62A JUMP JUMPDEST PUSH3 0x77F DUP5 PUSH3 0x63C JUMP JUMPDEST DUP2 ADD PUSH1 0x20 DUP6 LT ISZERO PUSH3 0x78F JUMPI DUP2 SWAP1 POP JUMPDEST PUSH3 0x7A7 PUSH3 0x79E DUP6 PUSH3 0x63C JUMP JUMPDEST DUP4 ADD DUP3 PUSH3 0x739 JUMP JUMPDEST POP POP JUMPDEST POP POP POP JUMP JUMPDEST PUSH0 DUP3 DUP3 SHR SWAP1 POP SWAP3 SWAP2 POP POP JUMP JUMPDEST PUSH0 PUSH3 0x7CC PUSH0 NOT DUP5 PUSH1 0x8 MUL PUSH3 0x7AF JUMP JUMPDEST NOT DUP1 DUP4 AND SWAP2 POP POP SWAP3 SWAP2 POP POP JUMP JUMPDEST PUSH0 PUSH3 0x7E6 DUP4 DUP4 PUSH3 0x7BB JUMP JUMPDEST SWAP2 POP DUP3 PUSH1 0x2 MUL DUP3 OR SWAP1 POP SWAP3 SWAP2 POP POP JUMP JUMPDEST PUSH3 0x801 DUP3 PUSH3 0x5BF JUMP JUMPDEST PUSH8 0xFFFFFFFFFFFFFFFF DUP2 GT ISZERO PUSH3 0x81D JUMPI PUSH3 0x81C PUSH3 0x34F JUMP JUMPDEST JUMPDEST PUSH3 0x829 DUP3 SLOAD PUSH3 0x5F6 JUMP JUMPDEST PUSH3 0x836 DUP3 DUP3 DUP6 PUSH3 0x75F JUMP JUMPDEST PUSH0 PUSH1 0x20 SWAP1 POP PUSH1 0x1F DUP4 GT PUSH1 0x1 DUP2 EQ PUSH3 0x86C JUMPI PUSH0 DUP5 ISZERO PUSH3 0x857 JUMPI DUP3 DUP8 ADD MLOAD SWAP1 POP JUMPDEST PUSH3 0x863 DUP6 DUP3 PUSH3 0x7D9 JUMP JUMPDEST DUP7 SSTORE POP PUSH3 0x8D2 JUMP JUMPDEST PUSH1 0x1F NOT DUP5 AND PUSH3 0x87C DUP7 PUSH3 0x62A JUMP JUMPDEST PUSH0 JUMPDEST DUP3 DUP2 LT ISZERO PUSH3 0x8A5 JUMPI DUP5 DUP10 ADD MLOAD DUP3 SSTORE PUSH1 0x1 DUP3 ADD SWAP2 POP PUSH1 0x20 DUP6 ADD SWAP5 POP PUSH1 0x20 DUP2 ADD SWAP1 POP PUSH3 0x87E JUMP JUMPDEST DUP7 DUP4 LT ISZERO PUSH3 0x8C5 JUMPI DUP5 DUP10 ADD MLOAD PUSH3 0x8C1 PUSH1 0x1F DUP10 AND DUP3 PUSH3 0x7BB JUMP JUMPDEST DUP4 SSTORE POP JUMPDEST PUSH1 0x1 PUSH1 0x2 DUP9 MUL ADD DUP9 SSTORE POP POP POP JUMPDEST POP POP POP POP POP POP JUMP JUMPDEST PUSH32 0x4E487B7100000000000000000000000000000000000000000000000000000000 PUSH0 MSTORE PUSH1 0x11 PUSH1 0x4 MSTORE PUSH1 0x24 PUSH0 REVERT JUMPDEST PUSH0 DUP2 PUSH1 0x1 SHR SWAP1 POP SWAP2 SWAP1 POP JUMP JUMPDEST PUSH0 DUP1 DUP3 SWAP2 POP DUP4 SWAP1 POP JUMPDEST PUSH1 0x1 DUP6 GT ISZERO PUSH3 0x964 JUMPI DUP1 DUP7 DIV DUP2 GT ISZERO PUSH3 0x93C JUMPI PUSH3 0x93B PUSH3 0x8DA JUMP JUMPDEST JUMPDEST PUSH1 0x1 DUP6 AND ISZERO PUSH3 0x94C JUMPI DUP1 DUP3 MUL SWAP2 POP JUMPDEST DUP1 DUP2 MUL SWAP1 POP PUSH3 0x95C DUP6 PUSH3 0x907 JUMP JUMPDEST SWAP5 POP PUSH3 0x91C JUMP JUMPDEST SWAP5 POP SWAP5 SWAP3 POP POP POP JUMP JUMPDEST PUSH0 DUP3 PUSH3 0x97E JUMPI PUSH1 0x1 SWAP1 POP PUSH3 0xA50 JUMP JUMPDEST DUP2 PUSH3 0x98D JUMPI PUSH0 SWAP1 POP PUSH3 0xA50 JUMP JUMPDEST DUP2 PUSH1 0x1 DUP2 EQ PUSH3 0x9A6 JUMPI PUSH1 0x2 DUP2 EQ PUSH3 0x9B1 JUMPI PUSH3 0x9E7 JUMP JUMPDEST PUSH1 0x1 SWAP2 POP POP PUSH3 0xA50 JUMP JUMPDEST PUSH1 0xFF DUP5 GT ISZERO PUSH3 0x9C6 JUMPI PUSH3 0x9C5 PUSH3 0x8DA JUMP JUMPDEST JUMPDEST DUP4 PUSH1 0x2 EXP SWAP2 POP DUP5 DUP3 GT ISZERO PUSH3 0x9E0 JUMPI PUSH3 0x9DF PUSH3 0x8DA JUMP JUMPDEST JUMPDEST POP PUSH3 0xA50 JUMP JUMPDEST POP PUSH1 0x20 DUP4 LT PUSH2 0x133 DUP4 LT AND PUSH1 0x4E DUP5 LT PUSH1 0xB DUP5 LT AND OR ISZERO PUSH3 0xA21 JUMPI DUP3 DUP3 EXP SWAP1 POP DUP4 DUP2 GT ISZERO PUSH3 0xA1B JUMPI PUSH3 0xA1A PUSH3 0x8DA JUMP JUMPDEST JUMPDEST PUSH3 0xA50 JUMP JUMPDEST PUSH3 0xA30 DUP5 DUP5 DUP5 PUSH1 0x1 PUSH3 0x913 JUMP JUMPDEST SWAP3 POP SWAP1 POP DUP2 DUP5 DIV DUP2 GT ISZERO PUSH3 0xA4A JUMPI PUSH3 0xA49 PUSH3 0x8DA JUMP JUMPDEST JUMPDEST DUP2 DUP2 MUL SWAP1 POP JUMPDEST SWAP4 SWAP3 POP POP POP JUMP JUMPDEST PUSH0 PUSH3 0xA63 DUP3 PUSH3 0x6AC JUMP JUMPDEST SWAP2 POP PUSH3 0xA70 DUP4 PUSH3 0x4AB JUMP JUMPDEST SWAP3 POP PUSH3 0xA9F PUSH32 0xFFFFFFFFFFFFFFFFFFFFFFFFFFFFFFFFFFFFFFFFFFFFFFFFFFFFFFFFFFFFFFFF DUP5 DUP5 PUSH3 0x96D JUMP JUMPDEST SWAP1 POP SWAP3 SWAP2 POP POP JUMP JUMPDEST PUSH0 DUP2 SWAP1 POP SWAP3 SWAP2 POP POP JUMP JUMPDEST PUSH0 DUP2 SWAP1 POP DUP2 PUSH0 MSTORE PUSH1 0x20 PUSH0 KECCAK256 SWAP1 POP SWAP2 SWAP1 POP JUMP JUMPDEST PUSH0 DUP2 SLOAD PUSH3 0xAD1 DUP2 PUSH3 0x5F6 JUMP JUMPDEST PUSH3 0xADD DUP2 DUP7 PUSH3 0xAA7 JUMP JUMPDEST SWAP5 POP PUSH1 0x1 DUP3 AND PUSH0 DUP2 EQ PUSH3 0xAFA JUMPI PUSH1 0x1 DUP2 EQ PUSH3 0xB10 JUMPI PUSH3 0xB46 JUMP JUMPDEST PUSH1 0xFF NOT DUP4 AND DUP7 MSTORE DUP2 ISZERO ISZERO DUP3 MUL DUP7 ADD SWAP4 POP PUSH3 0xB46 JUMP JUMPDEST PUSH3 0xB1B DUP6 PUSH3 0xAB1 JUMP JUMPDEST PUSH0 JUMPDEST DUP4 DUP2 LT ISZERO PUSH3 0xB3E JUMPI DUP2 SLOAD DUP2 DUP10 ADD MSTORE PUSH1 0x1 DUP3 ADD SWAP2 POP PUSH1 0x20 DUP2 ADD SWAP1 POP PUSH3 0xB1D JUMP JUMPDEST DUP4 DUP9 ADD SWAP6 POP POP POP JUMPDEST POP POP POP SWAP3 SWAP2 POP POP JUMP JUMPDEST PUSH0 PUSH3 0xB5C DUP3 DUP5 PUSH3 0xAC3 JUMP JUMPDEST SWAP2 POP DUP2 SWAP1 POP SWAP3 SWAP2 POP POP JUMP JUMPDEST PUSH0 DUP2 SWAP1 POP SWAP2 SWAP1 POP JUMP JUMPDEST PUSH3 0xB7B DUP2 PUSH3 0xB67 JUMP JUMPDEST DUP3 MSTORE POP POP JUMP JUMPDEST PUSH3 0xB8C DUP2 PUSH3 0x6AC JUMP JUMPDEST DUP3 MSTORE POP POP JUMP JUMPDEST PUSH0 PUSH1 0xA0 DUP3 ADD SWAP1 POP PUSH3 0xBA7 PUSH0 DUP4 ADD DUP9 PUSH3 0xB70 JUMP JUMPDEST PUSH3 0xBB6 PUSH1 0x20 DUP4 ADD DUP8 PUSH3 0xB70 JUMP JUMPDEST PUSH3 0xBC5 PUSH1 0x40 DUP4 ADD DUP7 PUSH3 0xB70 JUMP JUMPDEST PUSH3 0xBD4 PUSH1 0x60 DUP4 ADD DUP6 PUSH3 0xB81 JUMP JUMPDEST PUSH3 0xBE3 PUSH1 0x80 DUP4 ADD DUP5 PUSH3 0x593 JUMP JUMPDEST SWAP7 SWAP6 POP POP POP POP POP POP JUMP JUMPDEST PUSH1 0x80 MLOAD PUSH1 0xA0 MLOAD PUSH1 0xC0 MLOAD PUSH1 0xE0 MLOAD PUSH2 0x44E1 PUSH3 0xC6E PUSH0 CODECOPY PUSH0 PUSH2 0xB82 ADD MSTORE PUSH0 PUSH2 0xB4E ADD MSTORE PUSH0 DUP2 DUP2 PUSH2 0xF15 ADD MSTORE DUP2 DUP2 PUSH2 0x1C32 ADD MSTORE DUP2 DUP2 PUSH2 0x2441 ADD MSTORE DUP2 DUP2 PUSH2 0x246D ADD MSTORE DUP2 DUP2 PUSH2 0x250E ADD MSTORE DUP2 DUP2 PUSH2 0x2577 ADD MSTORE DUP2 DUP2 PUSH2 0x25D5 ADD MSTORE DUP2 DUP2 PUSH2 0x26D2 ADD MSTORE DUP2 DUP2 PUSH2 0x2706 ADD MSTORE DUP2 DUP2 PUSH2 0x274D ADD MSTORE DUP2 DUP2 PUSH2 0x2779 ADD MSTORE PUSH2 0x2E2D ADD MSTORE PUSH0 PUSH2 0xB29 ADD MSTORE PUSH2 0x44E1 PUSH0 RETURN INVALID PUSH1 0x80 PUSH1 0x40 MSTORE CALLVALUE DUP1 ISZERO PUSH2 0xF JUMPI PUSH0 DUP1 REVERT JUMPDEST POP PUSH1 0x4 CALLDATASIZE LT PUSH2 0x251 JUMPI PUSH0 CALLDATALOAD PUSH1 0xE0 SHR DUP1 PUSH4 0x89FB4C66 GT PUSH2 0x144 JUMPI DUP1 PUSH4 0xC5AB3BA6 GT PUSH2 0xC1 JUMPI DUP1 PUSH4 0xDD62ED3E GT PUSH2 0x85 JUMPI DUP1 PUSH4 0xDD62ED3E EQ PUSH2 0x75B JUMPI DUP1 PUSH4 0xDD637699 EQ PUSH2 0x78B JUMPI DUP1 PUSH4 0xDFABC033 EQ PUSH2 0x7A7 JUMPI DUP1 PUSH4 0xE985E9C5 EQ PUSH2 0x7C3 JUMPI DUP1 PUSH4 0xF2FDE38B EQ PUSH2 0x7F3 JUMPI DUP1 PUSH4 0xF780BC1A EQ PUSH2 0x80F JUMPI PUSH2 0x251 JUMP JUMPDEST DUP1 PUSH4 0xC5AB3BA6 EQ PUSH2 0x6A5 JUMPI DUP1 PUSH4 0xC6E672B9 EQ PUSH2 0x6C3 JUMPI DUP1 PUSH4 0xC87B56DD EQ PUSH2 0x6DF JUMPI DUP1 PUSH4 0xD505ACCF EQ PUSH2 0x70F JUMPI DUP1 PUSH4 0xD96CA0B9 EQ PUSH2 0x72B JUMPI PUSH2 0x251 JUMP JUMPDEST DUP1 PUSH4 0xA22CB465 GT PUSH2 0x108 JUMPI DUP1 PUSH4 0xA22CB465 EQ PUSH2 0x5DD JUMPI DUP1 PUSH4 0xA9059CBB EQ PUSH2 0x5F9 JUMPI DUP1 PUSH4 0xB1AB9317 EQ PUSH2 0x629 JUMPI DUP1 PUSH4 0xB3F9EA34 EQ PUSH2 0x659 JUMPI DUP1 PUSH4 0xB88D4FDE EQ PUSH2 0x689 JUMPI PUSH2 0x251 JUMP JUMPDEST DUP1 PUSH4 0x89FB4C66 EQ PUSH2 0x549 JUMPI DUP1 PUSH4 0x8A696E50 EQ PUSH2 0x567 JUMPI DUP1 PUSH4 0x8DA5CB5B EQ PUSH2 0x583 JUMPI DUP1 PUSH4 0x95D89B41 EQ PUSH2 0x5A1 JUMPI DUP1 PUSH4 0x976A8435 EQ PUSH2 0x5BF JUMPI PUSH2 0x251 JUMP JUMPDEST DUP1 PUSH4 0x3644E515 GT PUSH2 0x1D2 JUMPI DUP1 PUSH4 0x6E8F624B GT PUSH2 0x196 JUMPI DUP1 PUSH4 0x6E8F624B EQ PUSH2 0x4A5 JUMPI DUP1 PUSH4 0x70A08231 EQ PUSH2 0x4C3 JUMPI DUP1 PUSH4 0x715018A6 EQ PUSH2 0x4F3 JUMPI DUP1 PUSH4 0x7C4CA9CC EQ PUSH2 0x4FD JUMPI DUP1 PUSH4 0x7ECEBE00 EQ PUSH2 0x519 JUMPI PUSH2 0x251 JUMP JUMPDEST DUP1 PUSH4 0x3644E515 EQ PUSH2 0x3ED JUMPI DUP1 PUSH4 0x42842E0E EQ PUSH2 0x40B JUMPI DUP1 PUSH4 0x4D966072 EQ PUSH2 0x427 JUMPI DUP1 PUSH4 0x4F02C420 EQ PUSH2 0x457 JUMPI DUP1 PUSH4 0x6352211E EQ PUSH2 0x475 JUMPI PUSH2 0x251 JUMP JUMPDEST DUP1 PUSH4 0x9674EB0 GT PUSH2 0x219 JUMPI DUP1 PUSH4 0x9674EB0 EQ PUSH2 0x333 JUMPI DUP1 PUSH4 0x9F0EF65 EQ PUSH2 0x351 JUMPI DUP1 PUSH4 0x18160DDD EQ PUSH2 0x381 JUMPI DUP1 PUSH4 0x23B872DD EQ PUSH2 0x39F JUMPI DUP1 PUSH4 0x313CE567 EQ PUSH2 0x3CF JUMPI PUSH2 0x251 JUMP JUMPDEST DUP1 PUSH4 0x1FFC9A7 EQ PUSH2 0x255 JUMPI DUP1 PUSH4 0x2519DA3 EQ PUSH2 0x285 JUMPI DUP1 PUSH4 0x6FDDE03 EQ PUSH2 0x2B5 JUMPI DUP1 PUSH4 0x81812FC EQ PUSH2 0x2D3 JUMPI DUP1 PUSH4 0x95EA7B3 EQ PUSH2 0x303 JUMPI JUMPDEST PUSH0 DUP1 REVERT JUMPDEST PUSH2 0x26F PUSH1 0x4 DUP1 CALLDATASIZE SUB DUP2 ADD SWAP1 PUSH2 0x26A SWAP2 SWAP1 PUSH2 0x3767 JUMP JUMPDEST PUSH2 0x83F JUMP JUMPDEST PUSH1 0x40 MLOAD PUSH2 0x27C SWAP2 SWAP1 PUSH2 0x37AC JUMP JUMPDEST PUSH1 0x40 MLOAD DUP1 SWAP2 SUB SWAP1 RETURN JUMPDEST PUSH2 0x29F PUSH1 0x4 DUP1 CALLDATASIZE SUB DUP2 ADD SWAP1 PUSH2 0x29A SWAP2 SWAP1 PUSH2 0x381F JUMP JUMPDEST PUSH2 0x910 JUMP JUMPDEST PUSH1 0x40 MLOAD PUSH2 0x2AC SWAP2 SWAP1 PUSH2 0x3862 JUMP JUMPDEST PUSH1 0x40 MLOAD DUP1 SWAP2 SUB SWAP1 RETURN JUMPDEST PUSH2 0x2BD PUSH2 0x956 JUMP JUMPDEST PUSH1 0x40 MLOAD PUSH2 0x2CA SWAP2 SWAP1 PUSH2 0x3905 JUMP JUMPDEST PUSH1 0x40 MLOAD DUP1 SWAP2 SUB SWAP1 RETURN JUMPDEST PUSH2 0x2ED PUSH1 0x4 DUP1 CALLDATASIZE SUB DUP2 ADD SWAP1 PUSH2 0x2E8 SWAP2 SWAP1 PUSH2 0x394F JUMP JUMPDEST PUSH2 0x9E2 JUMP JUMPDEST PUSH1 0x40 MLOAD PUSH2 0x2FA SWAP2 SWAP1 PUSH2 0x3989 JUMP JUMPDEST PUSH1 0x40 MLOAD DUP1 SWAP2 SUB SWAP1 RETURN JUMPDEST PUSH2 0x31D PUSH1 0x4 DUP1 CALLDATASIZE SUB DUP2 ADD SWAP1 PUSH2 0x318 SWAP2 SWAP1 PUSH2 0x39A2 JUMP JUMPDEST PUSH2 0xA12 JUMP JUMPDEST PUSH1 0x40 MLOAD PUSH2 0x32A SWAP2 SWAP1 PUSH2 0x37AC JUMP JUMPDEST PUSH1 0x40 MLOAD DUP1 SWAP2 SUB SWAP1 RETURN JUMPDEST PUSH2 0x33B PUSH2 0xA4C JUMP JUMPDEST PUSH1 0x40 MLOAD PUSH2 0x348 SWAP2 SWAP1 PUSH2 0x3862 JUMP JUMPDEST PUSH1 0x40 MLOAD DUP1 SWAP2 SUB SWAP1 RETURN JUMPDEST PUSH2 0x36B PUSH1 0x4 DUP1 CALLDATASIZE SUB DUP2 ADD SWAP1 PUSH2 0x366 SWAP2 SWAP1 PUSH2 0x381F JUMP JUMPDEST PUSH2 0xA5C JUMP JUMPDEST PUSH1 0x40 MLOAD PUSH2 0x378 SWAP2 SWAP1 PUSH2 0x37AC JUMP JUMPDEST PUSH1 0x40 MLOAD DUP1 SWAP2 SUB SWAP1 RETURN JUMPDEST PUSH2 0x389 PUSH2 0xAE4 JUMP JUMPDEST PUSH1 0x40 MLOAD PUSH2 0x396 SWAP2 SWAP1 PUSH2 0x3862 JUMP JUMPDEST PUSH1 0x40 MLOAD DUP1 SWAP2 SUB SWAP1 RETURN JUMPDEST PUSH2 0x3B9 PUSH1 0x4 DUP1 CALLDATASIZE SUB DUP2 ADD SWAP1 PUSH2 0x3B4 SWAP2 SWAP1 PUSH2 0x39E0 JUMP JUMPDEST PUSH2 0xAEA JUMP JUMPDEST PUSH1 0x40 MLOAD PUSH2 0x3C6 SWAP2 SWAP1 PUSH2 0x37AC JUMP JUMPDEST PUSH1 0x40 MLOAD DUP1 SWAP2 SUB SWAP1 RETURN JUMPDEST PUSH2 0x3D7 PUSH2 0xB27 JUMP JUMPDEST PUSH1 0x40 MLOAD PUSH2 0x3E4 SWAP2 SWAP1 PUSH2 0x3A4B JUMP JUMPDEST PUSH1 0x40 MLOAD DUP1 SWAP2 SUB SWAP1 RETURN JUMPDEST PUSH2 0x3F5 PUSH2 0xB4B JUMP JUMPDEST PUSH1 0x40 MLOAD PUSH2 0x402 SWAP2 SWAP1 PUSH2 0x3A7C JUMP JUMPDEST PUSH1 0x40 MLOAD DUP1 SWAP2 SUB SWAP1 RETURN JUMPDEST PUSH2 0x425 PUSH1 0x4 DUP1 CALLDATASIZE SUB DUP2 ADD SWAP1 PUSH2 0x420 SWAP2 SWAP1 PUSH2 0x39E0 JUMP JUMPDEST PUSH2 0xBA7 JUMP JUMPDEST STOP JUMPDEST PUSH2 0x441 PUSH1 0x4 DUP1 CALLDATASIZE SUB DUP2 ADD SWAP1 PUSH2 0x43C SWAP2 SWAP1 PUSH2 0x39A2 JUMP JUMPDEST PUSH2 0xBC6 JUMP JUMPDEST PUSH1 0x40 MLOAD PUSH2 0x44E SWAP2 SWAP1 PUSH2 0x37AC JUMP JUMPDEST PUSH1 0x40 MLOAD DUP1 SWAP2 SUB SWAP1 RETURN JUMPDEST PUSH2 0x45F PUSH2 0xD18 JUMP JUMPDEST PUSH1 0x40 MLOAD PUSH2 0x46C SWAP2 SWAP1 PUSH2 0x3862 JUMP JUMPDEST PUSH1 0x40 MLOAD DUP1 SWAP2 SUB SWAP1 RETURN JUMPDEST PUSH2 0x48F PUSH1 0x4 DUP1 CALLDATASIZE SUB DUP2 ADD SWAP1 PUSH2 0x48A SWAP2 SWAP1 PUSH2 0x394F JUMP JUMPDEST PUSH2 0xD1E JUMP JUMPDEST PUSH1 0x40 MLOAD PUSH2 0x49C SWAP2 SWAP1 PUSH2 0x3989 JUMP JUMPDEST PUSH1 0x40 MLOAD DUP1 SWAP2 SUB SWAP1 RETURN JUMPDEST PUSH2 0x4AD PUSH2 0xDD3 JUMP JUMPDEST PUSH1 0x40 MLOAD PUSH2 0x4BA SWAP2 SWAP1 PUSH2 0x3862 JUMP JUMPDEST PUSH1 0x40 MLOAD DUP1 SWAP2 SUB SWAP1 RETURN JUMPDEST PUSH2 0x4DD PUSH1 0x4 DUP1 CALLDATASIZE SUB DUP2 ADD SWAP1 PUSH2 0x4D8 SWAP2 SWAP1 PUSH2 0x381F JUMP JUMPDEST PUSH2 0xDF7 JUMP JUMPDEST PUSH1 0x40 MLOAD PUSH2 0x4EA SWAP2 SWAP1 PUSH2 0x3862 JUMP JUMPDEST PUSH1 0x40 MLOAD DUP1 SWAP2 SUB SWAP1 RETURN JUMPDEST PUSH2 0x4FB PUSH2 0xE0C JUMP JUMPDEST STOP JUMPDEST PUSH2 0x517 PUSH1 0x4 DUP1 CALLDATASIZE SUB DUP2 ADD SWAP1 PUSH2 0x512 SWAP2 SWAP1 PUSH2 0x39A2 JUMP JUMPDEST PUSH2 0xE1F JUMP JUMPDEST STOP JUMPDEST PUSH2 0x533 PUSH1 0x4 DUP1 CALLDATASIZE SUB DUP2 ADD SWAP1 PUSH2 0x52E SWAP2 SWAP1 PUSH2 0x381F JUMP JUMPDEST PUSH2 0xE35 JUMP JUMPDEST PUSH1 0x40 MLOAD PUSH2 0x540 SWAP2 SWAP1 PUSH2 0x3862 JUMP JUMPDEST PUSH1 0x40 MLOAD DUP1 SWAP2 SUB SWAP1 RETURN JUMPDEST PUSH2 0x551 PUSH2 0xE4A JUMP JUMPDEST PUSH1 0x40 MLOAD PUSH2 0x55E SWAP2 SWAP1 PUSH2 0x3862 JUMP JUMPDEST PUSH1 0x40 MLOAD DUP1 SWAP2 SUB SWAP1 RETURN JUMPDEST PUSH2 0x581 PUSH1 0x4 DUP1 CALLDATASIZE SUB DUP2 ADD SWAP1 PUSH2 0x57C SWAP2 SWAP1 PUSH2 0x3ABF JUMP JUMPDEST PUSH2 0xE53 JUMP JUMPDEST STOP JUMPDEST PUSH2 0x58B PUSH2 0xE60 JUMP JUMPDEST PUSH1 0x40 MLOAD PUSH2 0x598 SWAP2 SWAP1 PUSH2 0x3989 JUMP JUMPDEST PUSH1 0x40 MLOAD DUP1 SWAP2 SUB SWAP1 RETURN JUMPDEST PUSH2 0x5A9 PUSH2 0xE87 JUMP JUMPDEST PUSH1 0x40 MLOAD PUSH2 0x5B6 SWAP2 SWAP1 PUSH2 0x3905 JUMP JUMPDEST PUSH1 0x40 MLOAD DUP1 SWAP2 SUB SWAP1 RETURN JUMPDEST PUSH2 0x5C7 PUSH2 0xF13 JUMP JUMPDEST PUSH1 0x40 MLOAD PUSH2 0x5D4 SWAP2 SWAP1 PUSH2 0x3862 JUMP JUMPDEST PUSH1 0x40 MLOAD DUP1 SWAP2 SUB SWAP1 RETURN JUMPDEST PUSH2 0x5F7 PUSH1 0x4 DUP1 CALLDATASIZE SUB DUP2 ADD SWAP1 PUSH2 0x5F2 SWAP2 SWAP1 PUSH2 0x3AEA JUMP JUMPDEST PUSH2 0xF37 JUMP JUMPDEST STOP JUMPDEST PUSH2 0x613 PUSH1 0x4 DUP1 CALLDATASIZE SUB DUP2 ADD SWAP1 PUSH2 0x60E SWAP2 SWAP1 PUSH2 0x39A2 JUMP JUMPDEST PUSH2 0x1094 JUMP JUMPDEST PUSH1 0x40 MLOAD PUSH2 0x620 SWAP2 SWAP1 PUSH2 0x37AC JUMP JUMPDEST PUSH1 0x40 MLOAD DUP1 SWAP2 SUB SWAP1 RETURN JUMPDEST PUSH2 0x643 PUSH1 0x4 DUP1 CALLDATASIZE SUB DUP2 ADD SWAP1 PUSH2 0x63E SWAP2 SWAP1 PUSH2 0x381F JUMP JUMPDEST PUSH2 0x110D JUMP JUMPDEST PUSH1 0x40 MLOAD PUSH2 0x650 SWAP2 SWAP1 PUSH2 0x3BDF JUMP JUMPDEST PUSH1 0x40 MLOAD DUP1 SWAP2 SUB SWAP1 RETURN JUMPDEST PUSH2 0x673 PUSH1 0x4 DUP1 CALLDATASIZE SUB DUP2 ADD SWAP1 PUSH2 0x66E SWAP2 SWAP1 PUSH2 0x381F JUMP JUMPDEST PUSH2 0x11A0 JUMP JUMPDEST PUSH1 0x40 MLOAD PUSH2 0x680 SWAP2 SWAP1 PUSH2 0x3862 JUMP JUMPDEST PUSH1 0x40 MLOAD DUP1 SWAP2 SUB SWAP1 RETURN JUMPDEST PUSH2 0x6A3 PUSH1 0x4 DUP1 CALLDATASIZE SUB DUP2 ADD SWAP1 PUSH2 0x69E SWAP2 SWAP1 PUSH2 0x3D2B JUMP JUMPDEST PUSH2 0x11E9 JUMP JUMPDEST STOP JUMPDEST PUSH2 0x6AD PUSH2 0x135B JUMP JUMPDEST PUSH1 0x40 MLOAD PUSH2 0x6BA SWAP2 SWAP1 PUSH2 0x3862 JUMP JUMPDEST PUSH1 0x40 MLOAD DUP1 SWAP2 SUB SWAP1 RETURN JUMPDEST PUSH2 0x6DD PUSH1 0x4 DUP1 CALLDATASIZE SUB DUP2 ADD SWAP1 PUSH2 0x6D8 SWAP2 SWAP1 PUSH2 0x3AEA JUMP JUMPDEST PUSH2 0x1364 JUMP JUMPDEST STOP JUMPDEST PUSH2 0x6F9 PUSH1 0x4 DUP1 CALLDATASIZE SUB DUP2 ADD SWAP1 PUSH2 0x6F4 SWAP2 SWAP1 PUSH2 0x394F JUMP JUMPDEST PUSH2 0x137A JUMP JUMPDEST PUSH1 0x40 MLOAD PUSH2 0x706 SWAP2 SWAP1 PUSH2 0x3905 JUMP JUMPDEST PUSH1 0x40 MLOAD DUP1 SWAP2 SUB SWAP1 RETURN JUMPDEST PUSH2 0x729 PUSH1 0x4 DUP1 CALLDATASIZE SUB DUP2 ADD SWAP1 PUSH2 0x724 SWAP2 SWAP1 PUSH2 0x3DFF JUMP JUMPDEST PUSH2 0x13AB JUMP JUMPDEST STOP JUMPDEST PUSH2 0x745 PUSH1 0x4 DUP1 CALLDATASIZE SUB DUP2 ADD SWAP1 PUSH2 0x740 SWAP2 SWAP1 PUSH2 0x39E0 JUMP JUMPDEST PUSH2 0x172B JUMP JUMPDEST PUSH1 0x40 MLOAD PUSH2 0x752 SWAP2 SWAP1 PUSH2 0x37AC JUMP JUMPDEST PUSH1 0x40 MLOAD DUP1 SWAP2 SUB SWAP1 RETURN JUMPDEST PUSH2 0x775 PUSH1 0x4 DUP1 CALLDATASIZE SUB DUP2 ADD SWAP1 PUSH2 0x770 SWAP2 SWAP1 PUSH2 0x3E9C JUMP JUMPDEST PUSH2 0x1937 JUMP JUMPDEST PUSH1 0x40 MLOAD PUSH2 0x782 SWAP2 SWAP1 PUSH2 0x3862 JUMP JUMPDEST PUSH1 0x40 MLOAD DUP1 SWAP2 SUB SWAP1 RETURN JUMPDEST PUSH2 0x7A5 PUSH1 0x4 DUP1 CALLDATASIZE SUB DUP2 ADD SWAP1 PUSH2 0x7A0 SWAP2 SWAP1 PUSH2 0x39E0 JUMP JUMPDEST PUSH2 0x1957 JUMP JUMPDEST STOP JUMPDEST PUSH2 0x7C1 PUSH1 0x4 DUP1 CALLDATASIZE SUB DUP2 ADD SWAP1 PUSH2 0x7BC SWAP2 SWAP1 PUSH2 0x39A2 JUMP JUMPDEST PUSH2 0x1C66 JUMP JUMPDEST STOP JUMPDEST PUSH2 0x7DD PUSH1 0x4 DUP1 CALLDATASIZE SUB DUP2 ADD SWAP1 PUSH2 0x7D8 SWAP2 SWAP1 PUSH2 0x3E9C JUMP JUMPDEST PUSH2 0x1E16 JUMP JUMPDEST PUSH1 0x40 MLOAD PUSH2 0x7EA SWAP2 SWAP1 PUSH2 0x37AC JUMP JUMPDEST PUSH1 0x40 MLOAD DUP1 SWAP2 SUB SWAP1 RETURN JUMPDEST PUSH2 0x80D PUSH1 0x4 DUP1 CALLDATASIZE SUB DUP2 ADD SWAP1 PUSH2 0x808 SWAP2 SWAP1 PUSH2 0x381F JUMP JUMPDEST PUSH2 0x1E40 JUMP JUMPDEST STOP JUMPDEST PUSH2 0x829 PUSH1 0x4 DUP1 CALLDATASIZE SUB DUP2 ADD SWAP1 PUSH2 0x824 SWAP2 SWAP1 PUSH2 0x3EDA JUMP JUMPDEST PUSH2 0x1EC4 JUMP JUMPDEST PUSH1 0x40 MLOAD PUSH2 0x836 SWAP2 SWAP1 PUSH2 0x3BDF JUMP JUMPDEST PUSH1 0x40 MLOAD DUP1 SWAP2 SUB SWAP1 RETURN JUMPDEST PUSH0 PUSH32 0xCAF91FF500000000000000000000000000000000000000000000000000000000 PUSH28 0xFFFFFFFFFFFFFFFFFFFFFFFFFFFFFFFFFFFFFFFFFFFFFFFFFFFFFFFF NOT AND DUP3 PUSH28 0xFFFFFFFFFFFFFFFFFFFFFFFFFFFFFFFFFFFFFFFFFFFFFFFFFFFFFFFF NOT AND EQ DUP1 PUSH2 0x909 JUMPI POP PUSH32 0x1FFC9A700000000000000000000000000000000000000000000000000000000 PUSH28 0xFFFFFFFFFFFFFFFFFFFFFFFFFFFFFFFFFFFFFFFFFFFFFFFFFFFFFFFF NOT AND DUP3 PUSH28 0xFFFFFFFFFFFFFFFFFFFFFFFFFFFFFFFFFFFFFFFFFFFFFFFFFFFFFFFF NOT AND EQ JUMPDEST SWAP1 POP SWAP2 SWAP1 POP JUMP JUMPDEST PUSH0 PUSH1 0x7 PUSH0 DUP4 PUSH20 0xFFFFFFFFFFFFFFFFFFFFFFFFFFFFFFFFFFFFFFFF AND PUSH20 0xFFFFFFFFFFFFFFFFFFFFFFFFFFFFFFFFFFFFFFFF AND DUP2 MSTORE PUSH1 0x20 ADD SWAP1 DUP2 MSTORE PUSH1 0x20 ADD PUSH0 KECCAK256 SLOAD SWAP1 POP SWAP2 SWAP1 POP JUMP JUMPDEST PUSH1 0x3 DUP1 SLOAD PUSH2 0x963 SWAP1 PUSH2 0x3F45 JUMP JUMPDEST DUP1 PUSH1 0x1F ADD PUSH1 0x20 DUP1 SWAP2 DIV MUL PUSH1 0x20 ADD PUSH1 0x40 MLOAD SWAP1 DUP2 ADD PUSH1 0x40 MSTORE DUP1 SWAP3 SWAP2 SWAP1 DUP2 DUP2 MSTORE PUSH1 0x20 ADD DUP3 DUP1 SLOAD PUSH2 0x98F SWAP1 PUSH2 0x3F45 JUMP JUMPDEST DUP1 ISZERO PUSH2 0x9DA JUMPI DUP1 PUSH1 0x1F LT PUSH2 0x9B1 JUMPI PUSH2 0x100 DUP1 DUP4 SLOAD DIV MUL DUP4 MSTORE SWAP2 PUSH1 0x20 ADD SWAP2 PUSH2 0x9DA JUMP JUMPDEST DUP3 ADD SWAP2 SWAP1 PUSH0 MSTORE PUSH1 0x20 PUSH0 KECCAK256 SWAP1 JUMPDEST DUP2 SLOAD DUP2 MSTORE SWAP1 PUSH1 0x1 ADD SWAP1 PUSH1 0x20 ADD DUP1 DUP4 GT PUSH2 0x9BD JUMPI DUP3 SWAP1 SUB PUSH1 0x1F AND DUP3 ADD SWAP2 JUMPDEST POP POP POP POP POP DUP2 JUMP JUMPDEST PUSH1 0x9 PUSH1 0x20 MSTORE DUP1 PUSH0 MSTORE PUSH1 0x40 PUSH0 KECCAK256 PUSH0 SWAP2 POP SLOAD SWAP1 PUSH2 0x100 EXP SWAP1 DIV PUSH20 0xFFFFFFFFFFFFFFFFFFFFFFFFFFFFFFFFFFFFFFFF AND DUP2 JUMP JUMPDEST PUSH0 PUSH2 0xA1C DUP3 PUSH2 0x1F7E JUMP JUMPDEST ISZERO PUSH2 0xA30 JUMPI PUSH2 0xA2B DUP4 DUP4 PUSH2 0x1C66 JUMP JUMPDEST PUSH2 0xA41 JUMP JUMPDEST PUSH2 0xA3A DUP4 DUP4 PUSH2 0xBC6 JUMP JUMPDEST SWAP1 POP PUSH2 0xA46 JUMP JUMPDEST PUSH1 0x1 SWAP1 POP JUMPDEST SWAP3 SWAP2 POP POP JUMP JUMPDEST PUSH0 PUSH2 0xA57 PUSH1 0x1 PUSH2 0x1FD5 JUMP JUMPDEST SWAP1 POP SWAP1 JUMP JUMPDEST PUSH0 DUP1 PUSH20 0xFFFFFFFFFFFFFFFFFFFFFFFFFFFFFFFFFFFFFFFF AND DUP3 PUSH20 0xFFFFFFFFFFFFFFFFFFFFFFFFFFFFFFFFFFFFFFFF AND EQ DUP1 PUSH2 0xADD JUMPI POP PUSH1 0xD PUSH0 DUP4 PUSH20 0xFFFFFFFFFFFFFFFFFFFFFFFFFFFFFFFFFFFFFFFF AND PUSH20 0xFFFFFFFFFFFFFFFFFFFFFFFFFFFFFFFFFFFFFFFF AND DUP2 MSTORE PUSH1 0x20 ADD SWAP1 DUP2 MSTORE PUSH1 0x20 ADD PUSH0 KECCAK256 PUSH0 SWAP1 SLOAD SWAP1 PUSH2 0x100 EXP SWAP1 DIV PUSH1 0xFF AND JUMPDEST SWAP1 POP SWAP2 SWAP1 POP JUMP JUMPDEST PUSH1 0x5 SLOAD DUP2 JUMP JUMPDEST PUSH0 PUSH2 0xAF4 DUP3 PUSH2 0x1F7E JUMP JUMPDEST ISZERO PUSH2 0xB09 JUMPI PUSH2 0xB04 DUP5 DUP5 DUP5 PUSH2 0x1957 JUMP JUMPDEST PUSH2 0xB1B JUMP JUMPDEST PUSH2 0xB14 DUP5 DUP5 DUP5 PUSH2 0x172B JUMP JUMPDEST SWAP1 POP PUSH2 0xB20 JUMP JUMPDEST PUSH1 0x1 SWAP1 POP JUMPDEST SWAP4 SWAP3 POP POP POP JUMP JUMPDEST PUSH32 0x0 DUP2 JUMP JUMPDEST PUSH0 PUSH32 0x0 CHAINID EQ PUSH2 0xB80 JUMPI PUSH2 0xB7B PUSH2 0x202F JUMP JUMPDEST PUSH2 0xBA2 JUMP JUMPDEST PUSH32 0x0 JUMPDEST SWAP1 POP SWAP1 JUMP JUMPDEST PUSH2 0xBC1 DUP4 DUP4 DUP4 PUSH1 0x40 MLOAD DUP1 PUSH1 0x20 ADD PUSH1 0x40 MSTORE DUP1 PUSH0 DUP2 MSTORE POP PUSH2 0x11E9 JUMP JUMPDEST POP POP POP JUMP JUMPDEST PUSH0 DUP1 PUSH20 0xFFFFFFFFFFFFFFFFFFFFFFFFFFFFFFFFFFFFFFFF AND DUP4 PUSH20 0xFFFFFFFFFFFFFFFFFFFFFFFFFFFFFFFFFFFFFFFF AND SUB PUSH2 0xC2C JUMPI PUSH1 0x40 MLOAD PUSH32 0x5461585F00000000000000000000000000000000000000000000000000000000 DUP2 MSTORE PUSH1 0x4 ADD PUSH1 0x40 MLOAD DUP1 SWAP2 SUB SWAP1 REVERT JUMPDEST DUP2 PUSH1 0x8 PUSH0 CALLER PUSH20 0xFFFFFFFFFFFFFFFFFFFFFFFFFFFFFFFFFFFFFFFF AND PUSH20 0xFFFFFFFFFFFFFFFFFFFFFFFFFFFFFFFFFFFFFFFF AND DUP2 MSTORE PUSH1 0x20 ADD SWAP1 DUP2 MSTORE PUSH1 0x20 ADD PUSH0 KECCAK256 PUSH0 DUP6 PUSH20 0xFFFFFFFFFFFFFFFFFFFFFFFFFFFFFFFFFFFFFFFF AND PUSH20 0xFFFFFFFFFFFFFFFFFFFFFFFFFFFFFFFFFFFFFFFF AND DUP2 MSTORE PUSH1 0x20 ADD SWAP1 DUP2 MSTORE PUSH1 0x20 ADD PUSH0 KECCAK256 DUP2 SWAP1 SSTORE POP DUP3 PUSH20 0xFFFFFFFFFFFFFFFFFFFFFFFFFFFFFFFFFFFFFFFF AND CALLER PUSH20 0xFFFFFFFFFFFFFFFFFFFFFFFFFFFFFFFFFFFFFFFF AND PUSH32 0x8C5BE1E5EBEC7D5BD14F71427D1E84F3DD0314C0F7B2291E5B200AC8C7C3B925 DUP5 PUSH1 0x40 MLOAD PUSH2 0xD06 SWAP2 SWAP1 PUSH2 0x3862 JUMP JUMPDEST PUSH1 0x40 MLOAD DUP1 SWAP2 SUB SWAP1 LOG3 PUSH1 0x1 SWAP1 POP SWAP3 SWAP2 POP POP JUMP JUMPDEST PUSH1 0x6 SLOAD DUP2 JUMP JUMPDEST PUSH0 PUSH2 0xD28 DUP3 PUSH2 0x20BA JUMP JUMPDEST SWAP1 POP PUSH2 0xD33 DUP3 PUSH2 0x1F7E JUMP JUMPDEST PUSH2 0xD69 JUMPI PUSH1 0x40 MLOAD PUSH32 0x3F6CC76800000000000000000000000000000000000000000000000000000000 DUP2 MSTORE PUSH1 0x4 ADD PUSH1 0x40 MLOAD DUP1 SWAP2 SUB SWAP1 REVERT JUMPDEST PUSH0 PUSH20 0xFFFFFFFFFFFFFFFFFFFFFFFFFFFFFFFFFFFFFFFF AND DUP2 PUSH20 0xFFFFFFFFFFFFFFFFFFFFFFFFFFFFFFFFFFFFFFFF AND SUB PUSH2 0xDCE JUMPI PUSH1 0x40 MLOAD PUSH32 0xC5723B5100000000000000000000000000000000000000000000000000000000 DUP2 MSTORE PUSH1 0x4 ADD PUSH1 0x40 MLOAD DUP1 SWAP2 SUB SWAP1 REVERT JUMPDEST SWAP2 SWAP1 POP JUMP JUMPDEST PUSH32 0x8000000000000000000000000000000000000000000000000000000000000000 DUP2 JUMP JUMPDEST PUSH1 0x7 PUSH1 0x20 MSTORE DUP1 PUSH0 MSTORE PUSH1 0x40 PUSH0 KECCAK256 PUSH0 SWAP2 POP SWAP1 POP SLOAD DUP2 JUMP JUMPDEST PUSH2 0xE14 PUSH2 0x20EF JUMP JUMPDEST PUSH2 0xE1D PUSH0 PUSH2 0x2176 JUMP JUMPDEST JUMP JUMPDEST PUSH2 0xE27 PUSH2 0x20EF JUMP JUMPDEST PUSH2 0xE31 DUP3 DUP3 PUSH2 0x2237 JUMP JUMPDEST POP POP JUMP JUMPDEST PUSH1 0xE PUSH1 0x20 MSTORE DUP1 PUSH0 MSTORE PUSH1 0x40 PUSH0 KECCAK256 PUSH0 SWAP2 POP SWAP1 POP SLOAD DUP2 JUMP JUMPDEST PUSH0 PUSH1 0x5 SLOAD SWAP1 POP SWAP1 JUMP JUMPDEST PUSH2 0xE5D CALLER DUP3 PUSH2 0x2313 JUMP JUMPDEST POP JUMP JUMPDEST PUSH0 DUP1 PUSH0 SWAP1 SLOAD SWAP1 PUSH2 0x100 EXP SWAP1 DIV PUSH20 0xFFFFFFFFFFFFFFFFFFFFFFFFFFFFFFFFFFFFFFFF AND SWAP1 POP SWAP1 JUMP JUMPDEST PUSH1 0x4 DUP1 SLOAD PUSH2 0xE94 SWAP1 PUSH2 0x3F45 JUMP JUMPDEST DUP1 PUSH1 0x1F ADD PUSH1 0x20 DUP1 SWAP2 DIV MUL PUSH1 0x20 ADD PUSH1 0x40 MLOAD SWAP1 DUP2 ADD PUSH1 0x40 MSTORE DUP1 SWAP3 SWAP2 SWAP1 DUP2 DUP2 MSTORE PUSH1 0x20 ADD DUP3 DUP1 SLOAD PUSH2 0xEC0 SWAP1 PUSH2 0x3F45 JUMP JUMPDEST DUP1 ISZERO PUSH2 0xF0B JUMPI DUP1 PUSH1 0x1F LT PUSH2 0xEE2 JUMPI PUSH2 0x100 DUP1 DUP4 SLOAD DIV MUL DUP4 MSTORE SWAP2 PUSH1 0x20 ADD SWAP2 PUSH2 0xF0B JUMP JUMPDEST DUP3 ADD SWAP2 SWAP1 PUSH0 MSTORE PUSH1 0x20 PUSH0 KECCAK256 SWAP1 JUMPDEST DUP2 SLOAD DUP2 MSTORE SWAP1 PUSH1 0x1 ADD SWAP1 PUSH1 0x20 ADD DUP1 DUP4 GT PUSH2 0xEEE JUMPI DUP3 SWAP1 SUB PUSH1 0x1F AND DUP3 ADD SWAP2 JUMPDEST POP POP POP POP POP DUP2 JUMP JUMPDEST PUSH32 0x0 DUP2 JUMP JUMPDEST PUSH0 PUSH20 0xFFFFFFFFFFFFFFFFFFFFFFFFFFFFFFFFFFFFFFFF AND DUP3 PUSH20 0xFFFFFFFFFFFFFFFFFFFFFFFFFFFFFFFFFFFFFFFF AND SUB PUSH2 0xF9C JUMPI PUSH1 0x40 MLOAD PUSH32 0xCCEA9E6F00000000000000000000000000000000000000000000000000000000 DUP2 MSTORE PUSH1 0x4 ADD PUSH1 0x40 MLOAD DUP1 SWAP2 SUB SWAP1 REVERT JUMPDEST DUP1 PUSH1 0xA PUSH0 CALLER PUSH20 0xFFFFFFFFFFFFFFFFFFFFFFFFFFFFFFFFFFFFFFFF AND PUSH20 0xFFFFFFFFFFFFFFFFFFFFFFFFFFFFFFFFFFFFFFFF AND DUP2 MSTORE PUSH1 0x20 ADD SWAP1 DUP2 MSTORE PUSH1 0x20 ADD PUSH0 KECCAK256 PUSH0 DUP5 PUSH20 0xFFFFFFFFFFFFFFFFFFFFFFFFFFFFFFFFFFFFFFFF AND PUSH20 0xFFFFFFFFFFFFFFFFFFFFFFFFFFFFFFFFFFFFFFFF AND DUP2 MSTORE PUSH1 0x20 ADD SWAP1 DUP2 MSTORE PUSH1 0x20 ADD PUSH0 KECCAK256 PUSH0 PUSH2 0x100 EXP DUP2 SLOAD DUP2 PUSH1 0xFF MUL NOT AND SWAP1 DUP4 ISZERO ISZERO MUL OR SWAP1 SSTORE POP DUP2 PUSH20 0xFFFFFFFFFFFFFFFFFFFFFFFFFFFFFFFFFFFFFFFF AND CALLER PUSH20 0xFFFFFFFFFFFFFFFFFFFFFFFFFFFFFFFFFFFFFFFF AND PUSH32 0x17307EAB39AB6107E8899845AD3D59BD9653F200F220920489CA2B5937696C31 DUP4 PUSH1 0x40 MLOAD PUSH2 0x1088 SWAP2 SWAP1 PUSH2 0x37AC JUMP JUMPDEST PUSH1 0x40 MLOAD DUP1 SWAP2 SUB SWAP1 LOG3 POP POP JUMP JUMPDEST PUSH0 DUP1 PUSH20 0xFFFFFFFFFFFFFFFFFFFFFFFFFFFFFFFFFFFFFFFF AND DUP4 PUSH20 0xFFFFFFFFFFFFFFFFFFFFFFFFFFFFFFFFFFFFFFFF AND SUB PUSH2 0x10FA JUMPI PUSH1 0x40 MLOAD PUSH32 0x9C8D2CD200000000000000000000000000000000000000000000000000000000 DUP2 MSTORE PUSH1 0x4 ADD PUSH1 0x40 MLOAD DUP1 SWAP2 SUB SWAP1 REVERT JUMPDEST PUSH2 0x1105 CALLER DUP5 DUP5 PUSH2 0x23EE JUMP JUMPDEST SWAP1 POP SWAP3 SWAP2 POP POP JUMP JUMPDEST PUSH1 0x60 PUSH1 0xC PUSH0 DUP4 PUSH20 0xFFFFFFFFFFFFFFFFFFFFFFFFFFFFFFFFFFFFFFFF AND PUSH20 0xFFFFFFFFFFFFFFFFFFFFFFFFFFFFFFFFFFFFFFFF AND DUP2 MSTORE PUSH1 0x20 ADD SWAP1 DUP2 MSTORE PUSH1 0x20 ADD PUSH0 KECCAK256 DUP1 SLOAD DUP1 PUSH1 0x20 MUL PUSH1 0x20 ADD PUSH1 0x40 MLOAD SWAP1 DUP2 ADD PUSH1 0x40 MSTORE DUP1 SWAP3 SWAP2 SWAP1 DUP2 DUP2 MSTORE PUSH1 0x20 ADD DUP3 DUP1 SLOAD DUP1 ISZERO PUSH2 0x1194 JUMPI PUSH1 0x20 MUL DUP3 ADD SWAP2 SWAP1 PUSH0 MSTORE PUSH1 0x20 PUSH0 KECCAK256 SWAP1 JUMPDEST DUP2 SLOAD DUP2 MSTORE PUSH1 0x20 ADD SWAP1 PUSH1 0x1 ADD SWAP1 DUP1 DUP4 GT PUSH2 0x1180 JUMPI JUMPDEST POP POP POP POP POP SWAP1 POP SWAP2 SWAP1 POP JUMP JUMPDEST PUSH0 PUSH1 0xC PUSH0 DUP4 PUSH20 0xFFFFFFFFFFFFFFFFFFFFFFFFFFFFFFFFFFFFFFFF AND PUSH20 0xFFFFFFFFFFFFFFFFFFFFFFFFFFFFFFFFFFFFFFFF AND DUP2 MSTORE PUSH1 0x20 ADD SWAP1 DUP2 MSTORE PUSH1 0x20 ADD PUSH0 KECCAK256 DUP1 SLOAD SWAP1 POP SWAP1 POP SWAP2 SWAP1 POP JUMP JUMPDEST PUSH2 0x11F2 DUP3 PUSH2 0x1F7E JUMP JUMPDEST PUSH2 0x1228 JUMPI PUSH1 0x40 MLOAD PUSH32 0x3F6CC76800000000000000000000000000000000000000000000000000000000 DUP2 MSTORE PUSH1 0x4 ADD PUSH1 0x40 MLOAD DUP1 SWAP2 SUB SWAP1 REVERT JUMPDEST PUSH2 0x1233 DUP5 DUP5 DUP5 PUSH2 0xAEA JUMP JUMPDEST POP PUSH0 DUP4 PUSH20 0xFFFFFFFFFFFFFFFFFFFFFFFFFFFFFFFFFFFFFFFF AND EXTCODESIZE EQ ISZERO DUP1 ISZERO PUSH2 0x131E JUMPI POP PUSH4 0x150B7A02 PUSH1 0xE0 SHL PUSH28 0xFFFFFFFFFFFFFFFFFFFFFFFFFFFFFFFFFFFFFFFFFFFFFFFFFFFFFFFF NOT AND DUP4 PUSH20 0xFFFFFFFFFFFFFFFFFFFFFFFFFFFFFFFFFFFFFFFF AND PUSH4 0x150B7A02 CALLER DUP8 DUP7 DUP7 PUSH1 0x40 MLOAD DUP6 PUSH4 0xFFFFFFFF AND PUSH1 0xE0 SHL DUP2 MSTORE PUSH1 0x4 ADD PUSH2 0x12BC SWAP5 SWAP4 SWAP3 SWAP2 SWAP1 PUSH2 0x3FC7 JUMP JUMPDEST PUSH1 0x20 PUSH1 0x40 MLOAD DUP1 DUP4 SUB DUP2 PUSH0 DUP8 GAS CALL ISZERO DUP1 ISZERO PUSH2 0x12D8 JUMPI RETURNDATASIZE PUSH0 DUP1 RETURNDATACOPY RETURNDATASIZE PUSH0 REVERT JUMPDEST POP POP POP POP PUSH1 0x40 MLOAD RETURNDATASIZE PUSH1 0x1F NOT PUSH1 0x1F DUP3 ADD AND DUP3 ADD DUP1 PUSH1 0x40 MSTORE POP DUP2 ADD SWAP1 PUSH2 0x12FC SWAP2 SWAP1 PUSH2 0x4025 JUMP JUMPDEST PUSH28 0xFFFFFFFFFFFFFFFFFFFFFFFFFFFFFFFFFFFFFFFFFFFFFFFFFFFFFFFF NOT AND EQ ISZERO JUMPDEST ISZERO PUSH2 0x1355 JUMPI PUSH1 0x40 MLOAD PUSH32 0x3DA6393100000000000000000000000000000000000000000000000000000000 DUP2 MSTORE PUSH1 0x4 ADD PUSH1 0x40 MLOAD DUP1 SWAP2 SUB SWAP1 REVERT JUMPDEST POP POP POP POP JUMP JUMPDEST PUSH0 PUSH1 0x6 SLOAD SWAP1 POP SWAP1 JUMP JUMPDEST PUSH2 0x136C PUSH2 0x20EF JUMP JUMPDEST PUSH2 0x1376 DUP3 DUP3 PUSH2 0x2313 JUMP JUMPDEST POP POP JUMP JUMPDEST PUSH1 0x60 PUSH2 0x1385 DUP3 PUSH2 0x27D8 JUMP JUMPDEST PUSH1 0x40 MLOAD PUSH1 0x20 ADD PUSH2 0x1395 SWAP2 SWAP1 PUSH2 0x40B0 JUMP JUMPDEST PUSH1 0x40 MLOAD PUSH1 0x20 DUP2 DUP4 SUB SUB DUP2 MSTORE SWAP1 PUSH1 0x40 MSTORE SWAP1 POP SWAP2 SWAP1 POP JUMP JUMPDEST TIMESTAMP DUP5 LT ISZERO PUSH2 0x13E5 JUMPI PUSH1 0x40 MLOAD PUSH32 0x5787BDF00000000000000000000000000000000000000000000000000000000 DUP2 MSTORE PUSH1 0x4 ADD PUSH1 0x40 MLOAD DUP1 SWAP2 SUB SWAP1 REVERT JUMPDEST PUSH2 0x13EE DUP6 PUSH2 0x1F7E JUMP JUMPDEST ISZERO PUSH2 0x1425 JUMPI PUSH1 0x40 MLOAD PUSH32 0x1F3E0DE800000000000000000000000000000000000000000000000000000000 DUP2 MSTORE PUSH1 0x4 ADD PUSH1 0x40 MLOAD DUP1 SWAP2 SUB SWAP1 REVERT JUMPDEST PUSH0 PUSH20 0xFFFFFFFFFFFFFFFFFFFFFFFFFFFFFFFFFFFFFFFF AND DUP7 PUSH20 0xFFFFFFFFFFFFFFFFFFFFFFFFFFFFFFFFFFFFFFFF AND SUB PUSH2 0x148A JUMPI PUSH1 0x40 MLOAD PUSH32 0x5461585F00000000000000000000000000000000000000000000000000000000 DUP2 MSTORE PUSH1 0x4 ADD PUSH1 0x40 MLOAD DUP1 SWAP2 SUB SWAP1 REVERT JUMPDEST PUSH0 PUSH1 0x1 PUSH2 0x1495 PUSH2 0xB4B JUMP JUMPDEST PUSH32 0x6E71EDAE12B1B97F4D1F60370FEF10105FA2FAAE0126114A169C64845D6126C9 DUP11 DUP11 DUP11 PUSH1 0xE PUSH0 DUP16 PUSH20 0xFFFFFFFFFFFFFFFFFFFFFFFFFFFFFFFFFFFFFFFF AND PUSH20 0xFFFFFFFFFFFFFFFFFFFFFFFFFFFFFFFFFFFFFFFF AND DUP2 MSTORE PUSH1 0x20 ADD SWAP1 DUP2 MSTORE PUSH1 0x20 ADD PUSH0 KECCAK256 PUSH0 DUP2 SLOAD DUP1 SWAP3 SWAP2 SWAP1 PUSH1 0x1 ADD SWAP2 SWAP1 POP SSTORE DUP12 PUSH1 0x40 MLOAD PUSH1 0x20 ADD PUSH2 0x151A SWAP7 SWAP6 SWAP5 SWAP4 SWAP3 SWAP2 SWAP1 PUSH2 0x40D5 JUMP JUMPDEST PUSH1 0x40 MLOAD PUSH1 0x20 DUP2 DUP4 SUB SUB DUP2 MSTORE SWAP1 PUSH1 0x40 MSTORE DUP1 MLOAD SWAP1 PUSH1 0x20 ADD KECCAK256 PUSH1 0x40 MLOAD PUSH1 0x20 ADD PUSH2 0x1541 SWAP3 SWAP2 SWAP1 PUSH2 0x419E JUMP JUMPDEST PUSH1 0x40 MLOAD PUSH1 0x20 DUP2 DUP4 SUB SUB DUP2 MSTORE SWAP1 PUSH1 0x40 MSTORE DUP1 MLOAD SWAP1 PUSH1 0x20 ADD KECCAK256 DUP6 DUP6 DUP6 PUSH1 0x40 MLOAD PUSH0 DUP2 MSTORE PUSH1 0x20 ADD PUSH1 0x40 MSTORE PUSH1 0x40 MLOAD PUSH2 0x1576 SWAP5 SWAP4 SWAP3 SWAP2 SWAP1 PUSH2 0x41D4 JUMP JUMPDEST PUSH1 0x20 PUSH1 0x40 MLOAD PUSH1 0x20 DUP2 SUB SWAP1 DUP1 DUP5 SUB SWAP1 DUP6 GAS STATICCALL ISZERO DUP1 ISZERO PUSH2 0x1596 JUMPI RETURNDATASIZE PUSH0 DUP1 RETURNDATACOPY RETURNDATASIZE PUSH0 REVERT JUMPDEST POP POP POP PUSH1 0x20 PUSH1 0x40 MLOAD SUB MLOAD SWAP1 POP PUSH0 PUSH20 0xFFFFFFFFFFFFFFFFFFFFFFFFFFFFFFFFFFFFFFFF AND DUP2 PUSH20 0xFFFFFFFFFFFFFFFFFFFFFFFFFFFFFFFFFFFFFFFF AND EQ DUP1 PUSH2 0x1608 JUMPI POP DUP8 PUSH20 0xFFFFFFFFFFFFFFFFFFFFFFFFFFFFFFFFFFFFFFFF AND DUP2 PUSH20 0xFFFFFFFFFFFFFFFFFFFFFFFFFFFFFFFFFFFFFFFF AND EQ ISZERO JUMPDEST ISZERO PUSH2 0x163F JUMPI PUSH1 0x40 MLOAD PUSH32 0x815E1D6400000000000000000000000000000000000000000000000000000000 DUP2 MSTORE PUSH1 0x4 ADD PUSH1 0x40 MLOAD DUP1 SWAP2 SUB SWAP1 REVERT JUMPDEST DUP6 PUSH1 0x8 PUSH0 DUP4 PUSH20 0xFFFFFFFFFFFFFFFFFFFFFFFFFFFFFFFFFFFFFFFF AND PUSH20 0xFFFFFFFFFFFFFFFFFFFFFFFFFFFFFFFFFFFFFFFF AND DUP2 MSTORE PUSH1 0x20 ADD SWAP1 DUP2 MSTORE PUSH1 0x20 ADD PUSH0 KECCAK256 PUSH0 DUP10 PUSH20 0xFFFFFFFFFFFFFFFFFFFFFFFFFFFFFFFFFFFFFFFF AND PUSH20 0xFFFFFFFFFFFFFFFFFFFFFFFFFFFFFFFFFFFFFFFF AND DUP2 MSTORE PUSH1 0x20 ADD SWAP1 DUP2 MSTORE PUSH1 0x20 ADD PUSH0 KECCAK256 DUP2 SWAP1 SSTORE POP POP DUP6 PUSH20 0xFFFFFFFFFFFFFFFFFFFFFFFFFFFFFFFFFFFFFFFF AND DUP8 PUSH20 0xFFFFFFFFFFFFFFFFFFFFFFFFFFFFFFFFFFFFFFFF AND PUSH32 0x8C5BE1E5EBEC7D5BD14F71427D1E84F3DD0314C0F7B2291E5B200AC8C7C3B925 DUP8 PUSH1 0x40 MLOAD PUSH2 0x171A SWAP2 SWAP1 PUSH2 0x3862 JUMP JUMPDEST PUSH1 0x40 MLOAD DUP1 SWAP2 SUB SWAP1 LOG3 POP POP POP POP POP POP POP JUMP JUMPDEST PUSH0 DUP1 PUSH20 0xFFFFFFFFFFFFFFFFFFFFFFFFFFFFFFFFFFFFFFFF AND DUP5 PUSH20 0xFFFFFFFFFFFFFFFFFFFFFFFFFFFFFFFFFFFFFFFF AND SUB PUSH2 0x1791 JUMPI PUSH1 0x40 MLOAD PUSH32 0xDDB5DE5E00000000000000000000000000000000000000000000000000000000 DUP2 MSTORE PUSH1 0x4 ADD PUSH1 0x40 MLOAD DUP1 SWAP2 SUB SWAP1 REVERT JUMPDEST PUSH0 PUSH20 0xFFFFFFFFFFFFFFFFFFFFFFFFFFFFFFFFFFFFFFFF AND DUP4 PUSH20 0xFFFFFFFFFFFFFFFFFFFFFFFFFFFFFFFFFFFFFFFF AND SUB PUSH2 0x17F6 JUMPI PUSH1 0x40 MLOAD PUSH32 0x9C8D2CD200000000000000000000000000000000000000000000000000000000 DUP2 MSTORE PUSH1 0x4 ADD PUSH1 0x40 MLOAD DUP1 SWAP2 SUB SWAP1 REVERT JUMPDEST PUSH0 PUSH1 0x8 PUSH0 DUP7 PUSH20 0xFFFFFFFFFFFFFFFFFFFFFFFFFFFFFFFFFFFFFFFF AND PUSH20 0xFFFFFFFFFFFFFFFFFFFFFFFFFFFFFFFFFFFFFFFF AND DUP2 MSTORE PUSH1 0x20 ADD SWAP1 DUP2 MSTORE PUSH1 0x20 ADD PUSH0 KECCAK256 PUSH0 CALLER PUSH20 0xFFFFFFFFFFFFFFFFFFFFFFFFFFFFFFFFFFFFFFFF AND PUSH20 0xFFFFFFFFFFFFFFFFFFFFFFFFFFFFFFFFFFFFFFFF AND DUP2 MSTORE PUSH1 0x20 ADD SWAP1 DUP2 MSTORE PUSH1 0x20 ADD PUSH0 KECCAK256 SLOAD SWAP1 POP PUSH32 0xFFFFFFFFFFFFFFFFFFFFFFFFFFFFFFFFFFFFFFFFFFFFFFFFFFFFFFFFFFFFFFFF DUP2 EQ PUSH2 0x1922 JUMPI DUP3 DUP2 PUSH2 0x18A5 SWAP2 SWAP1 PUSH2 0x4244 JUMP JUMPDEST PUSH1 0x8 PUSH0 DUP8 PUSH20 0xFFFFFFFFFFFFFFFFFFFFFFFFFFFFFFFFFFFFFFFF AND PUSH20 0xFFFFFFFFFFFFFFFFFFFFFFFFFFFFFFFFFFFFFFFF AND DUP2 MSTORE PUSH1 0x20 ADD SWAP1 DUP2 MSTORE PUSH1 0x20 ADD PUSH0 KECCAK256 PUSH0 CALLER PUSH20 0xFFFFFFFFFFFFFFFFFFFFFFFFFFFFFFFFFFFFFFFF AND PUSH20 0xFFFFFFFFFFFFFFFFFFFFFFFFFFFFFFFFFFFFFFFF AND DUP2 MSTORE PUSH1 0x20 ADD SWAP1 DUP2 MSTORE PUSH1 0x20 ADD PUSH0 KECCAK256 DUP2 SWAP1 SSTORE POP JUMPDEST PUSH2 0x192D DUP6 DUP6 DUP6 PUSH2 0x23EE JUMP JUMPDEST SWAP2 POP POP SWAP4 SWAP3 POP POP POP JUMP JUMPDEST PUSH1 0x8 PUSH1 0x20 MSTORE DUP2 PUSH0 MSTORE PUSH1 0x40 PUSH0 KECCAK256 PUSH1 0x20 MSTORE DUP1 PUSH0 MSTORE PUSH1 0x40 PUSH0 KECCAK256 PUSH0 SWAP2 POP SWAP2 POP POP SLOAD DUP2 JUMP JUMPDEST PUSH0 PUSH20 0xFFFFFFFFFFFFFFFFFFFFFFFFFFFFFFFFFFFFFFFF AND DUP4 PUSH20 0xFFFFFFFFFFFFFFFFFFFFFFFFFFFFFFFFFFFFFFFF AND SUB PUSH2 0x19BC JUMPI PUSH1 0x40 MLOAD PUSH32 0xDDB5DE5E00000000000000000000000000000000000000000000000000000000 DUP2 MSTORE PUSH1 0x4 ADD PUSH1 0x40 MLOAD DUP1 SWAP2 SUB SWAP1 REVERT JUMPDEST PUSH0 PUSH20 0xFFFFFFFFFFFFFFFFFFFFFFFFFFFFFFFFFFFFFFFF AND DUP3 PUSH20 0xFFFFFFFFFFFFFFFFFFFFFFFFFFFFFFFFFFFFFFFF AND SUB PUSH2 0x1A21 JUMPI PUSH1 0x40 MLOAD PUSH32 0x9C8D2CD200000000000000000000000000000000000000000000000000000000 DUP2 MSTORE PUSH1 0x4 ADD PUSH1 0x40 MLOAD DUP1 SWAP2 SUB SWAP1 REVERT JUMPDEST PUSH2 0x1A2A DUP2 PUSH2 0x20BA JUMP JUMPDEST PUSH20 0xFFFFFFFFFFFFFFFFFFFFFFFFFFFFFFFFFFFFFFFF AND DUP4 PUSH20 0xFFFFFFFFFFFFFFFFFFFFFFFFFFFFFFFFFFFFFFFF AND EQ PUSH2 0x1A8E JUMPI PUSH1 0x40 MLOAD PUSH32 0x82B4290000000000000000000000000000000000000000000000000000000000 DUP2 MSTORE PUSH1 0x4 ADD PUSH1 0x40 MLOAD DUP1 SWAP2 SUB SWAP1 REVERT JUMPDEST DUP3 PUSH20 0xFFFFFFFFFFFFFFFFFFFFFFFFFFFFFFFFFFFFFFFF AND CALLER PUSH20 0xFFFFFFFFFFFFFFFFFFFFFFFFFFFFFFFFFFFFFFFF AND EQ ISZERO DUP1 ISZERO PUSH2 0x1B4C JUMPI POP PUSH1 0xA PUSH0 DUP5 PUSH20 0xFFFFFFFFFFFFFFFFFFFFFFFFFFFFFFFFFFFFFFFF AND PUSH20 0xFFFFFFFFFFFFFFFFFFFFFFFFFFFFFFFFFFFFFFFF AND DUP2 MSTORE PUSH1 0x20 ADD SWAP1 DUP2 MSTORE PUSH1 0x20 ADD PUSH0 KECCAK256 PUSH0 CALLER PUSH20 0xFFFFFFFFFFFFFFFFFFFFFFFFFFFFFFFFFFFFFFFF AND PUSH20 0xFFFFFFFFFFFFFFFFFFFFFFFFFFFFFFFFFFFFFFFF AND DUP2 MSTORE PUSH1 0x20 ADD SWAP1 DUP2 MSTORE PUSH1 0x20 ADD PUSH0 KECCAK256 PUSH0 SWAP1 SLOAD SWAP1 PUSH2 0x100 EXP SWAP1 DIV PUSH1 0xFF AND ISZERO JUMPDEST DUP1 ISZERO PUSH2 0x1BB4 JUMPI POP PUSH1 0x9 PUSH0 DUP3 DUP2 MSTORE PUSH1 0x20 ADD SWAP1 DUP2 MSTORE PUSH1 0x20 ADD PUSH0 KECCAK256 PUSH0 SWAP1 SLOAD SWAP1 PUSH2 0x100 EXP SWAP1 DIV PUSH20 0xFFFFFFFFFFFFFFFFFFFFFFFFFFFFFFFFFFFFFFFF AND PUSH20 0xFFFFFFFFFFFFFFFFFFFFFFFFFFFFFFFFFFFFFFFF AND CALLER PUSH20 0xFFFFFFFFFFFFFFFFFFFFFFFFFFFFFFFFFFFFFFFF AND EQ ISZERO JUMPDEST ISZERO PUSH2 0x1BEB JUMPI PUSH1 0x40 MLOAD PUSH32 0x82B4290000000000000000000000000000000000000000000000000000000000 DUP2 MSTORE PUSH1 0x4 ADD PUSH1 0x40 MLOAD DUP1 SWAP2 SUB SWAP1 REVERT JUMPDEST PUSH2 0x1BF4 DUP3 PUSH2 0xA5C JUMP JUMPDEST ISZERO PUSH2 0x1C2B JUMPI PUSH1 0x40 MLOAD PUSH32 0x5CE7539700000000000000000000000000000000000000000000000000000000 DUP2 MSTORE PUSH1 0x4 ADD PUSH1 0x40 MLOAD DUP1 SWAP2 SUB SWAP1 REVERT JUMPDEST PUSH2 0x1C56 DUP4 DUP4 PUSH32 0x0 PUSH2 0x28A2 JUMP JUMPDEST PUSH2 0x1C61 DUP4 DUP4 DUP4 PUSH2 0x29FA JUMP JUMPDEST POP POP POP JUMP JUMPDEST PUSH0 PUSH2 0x1C70 DUP3 PUSH2 0x20BA JUMP JUMPDEST SWAP1 POP DUP1 PUSH20 0xFFFFFFFFFFFFFFFFFFFFFFFFFFFFFFFFFFFFFFFF AND CALLER PUSH20 0xFFFFFFFFFFFFFFFFFFFFFFFFFFFFFFFFFFFFFFFF AND EQ ISZERO DUP1 ISZERO PUSH2 0x1D30 JUMPI POP PUSH1 0xA PUSH0 DUP3 PUSH20 0xFFFFFFFFFFFFFFFFFFFFFFFFFFFFFFFFFFFFFFFF AND PUSH20 0xFFFFFFFFFFFFFFFFFFFFFFFFFFFFFFFFFFFFFFFF AND DUP2 MSTORE PUSH1 0x20 ADD SWAP1 DUP2 MSTORE PUSH1 0x20 ADD PUSH0 KECCAK256 PUSH0 CALLER PUSH20 0xFFFFFFFFFFFFFFFFFFFFFFFFFFFFFFFFFFFFFFFF AND PUSH20 0xFFFFFFFFFFFFFFFFFFFFFFFFFFFFFFFFFFFFFFFF AND DUP2 MSTORE PUSH1 0x20 ADD SWAP1 DUP2 MSTORE PUSH1 0x20 ADD PUSH0 KECCAK256 PUSH0 SWAP1 SLOAD SWAP1 PUSH2 0x100 EXP SWAP1 DIV PUSH1 0xFF AND ISZERO JUMPDEST ISZERO PUSH2 0x1D67 JUMPI PUSH1 0x40 MLOAD PUSH32 0x82B4290000000000000000000000000000000000000000000000000000000000 DUP2 MSTORE PUSH1 0x4 ADD PUSH1 0x40 MLOAD DUP1 SWAP2 SUB SWAP1 REVERT JUMPDEST DUP3 PUSH1 0x9 PUSH0 DUP5 DUP2 MSTORE PUSH1 0x20 ADD SWAP1 DUP2 MSTORE PUSH1 0x20 ADD PUSH0 KECCAK256 PUSH0 PUSH2 0x100 EXP DUP2 SLOAD DUP2 PUSH20 0xFFFFFFFFFFFFFFFFFFFFFFFFFFFFFFFFFFFFFFFF MUL NOT AND SWAP1 DUP4 PUSH20 0xFFFFFFFFFFFFFFFFFFFFFFFFFFFFFFFFFFFFFFFF AND MUL OR SWAP1 SSTORE POP DUP2 DUP4 PUSH20 0xFFFFFFFFFFFFFFFFFFFFFFFFFFFFFFFFFFFFFFFF AND DUP3 PUSH20 0xFFFFFFFFFFFFFFFFFFFFFFFFFFFFFFFFFFFFFFFF AND PUSH32 0x8C5BE1E5EBEC7D5BD14F71427D1E84F3DD0314C0F7B2291E5B200AC8C7C3B925 PUSH1 0x40 MLOAD PUSH1 0x40 MLOAD DUP1 SWAP2 SUB SWAP1 LOG4 POP POP POP JUMP JUMPDEST PUSH1 0xA PUSH1 0x20 MSTORE DUP2 PUSH0 MSTORE PUSH1 0x40 PUSH0 KECCAK256 PUSH1 0x20 MSTORE DUP1 PUSH0 MSTORE PUSH1 0x40 PUSH0 KECCAK256 PUSH0 SWAP2 POP SWAP2 POP SWAP1 SLOAD SWAP1 PUSH2 0x100 EXP SWAP1 DIV PUSH1 0xFF AND DUP2 JUMP JUMPDEST PUSH2 0x1E48 PUSH2 0x20EF JUMP JUMPDEST PUSH0 PUSH20 0xFFFFFFFFFFFFFFFFFFFFFFFFFFFFFFFFFFFFFFFF AND DUP2 PUSH20 0xFFFFFFFFFFFFFFFFFFFFFFFFFFFFFFFFFFFFFFFF AND SUB PUSH2 0x1EB8 JUMPI PUSH0 PUSH1 0x40 MLOAD PUSH32 0x1E4FBDF700000000000000000000000000000000000000000000000000000000 DUP2 MSTORE PUSH1 0x4 ADD PUSH2 0x1EAF SWAP2 SWAP1 PUSH2 0x3989 JUMP JUMPDEST PUSH1 0x40 MLOAD DUP1 SWAP2 SUB SWAP1 REVERT JUMPDEST PUSH2 0x1EC1 DUP2 PUSH2 0x2176 JUMP JUMPDEST POP JUMP JUMPDEST PUSH1 0x60 PUSH0 DUP3 PUSH8 0xFFFFFFFFFFFFFFFF DUP2 GT ISZERO PUSH2 0x1EE1 JUMPI PUSH2 0x1EE0 PUSH2 0x3C07 JUMP JUMPDEST JUMPDEST PUSH1 0x40 MLOAD SWAP1 DUP1 DUP3 MSTORE DUP1 PUSH1 0x20 MUL PUSH1 0x20 ADD DUP3 ADD PUSH1 0x40 MSTORE DUP1 ISZERO PUSH2 0x1F0F JUMPI DUP2 PUSH1 0x20 ADD PUSH1 0x20 DUP3 MUL DUP1 CALLDATASIZE DUP4 CALLDATACOPY DUP1 DUP3 ADD SWAP2 POP POP SWAP1 POP JUMPDEST POP SWAP1 POP PUSH0 DUP5 SWAP1 POP JUMPDEST DUP4 DUP6 PUSH2 0x1F23 SWAP2 SWAP1 PUSH2 0x4277 JUMP JUMPDEST DUP2 LT ISZERO PUSH2 0x1F73 JUMPI PUSH2 0x1F3E DUP2 PUSH1 0x1 PUSH2 0x2D52 SWAP1 SWAP2 SWAP1 PUSH4 0xFFFFFFFF AND JUMP JUMPDEST DUP3 DUP7 DUP4 PUSH2 0x1F4B SWAP2 SWAP1 PUSH2 0x4244 JUMP JUMPDEST DUP2 MLOAD DUP2 LT PUSH2 0x1F5C JUMPI PUSH2 0x1F5B PUSH2 0x42AA JUMP JUMPDEST JUMPDEST PUSH1 0x20 MUL PUSH1 0x20 ADD ADD DUP2 DUP2 MSTORE POP POP DUP1 PUSH1 0x1 ADD SWAP1 POP PUSH2 0x1F17 JUMP JUMPDEST POP DUP1 SWAP2 POP POP SWAP3 SWAP2 POP POP JUMP JUMPDEST PUSH0 PUSH32 0x8000000000000000000000000000000000000000000000000000000000000000 DUP3 GT DUP1 ISZERO PUSH2 0x1FCE JUMPI POP PUSH32 0xFFFFFFFFFFFFFFFFFFFFFFFFFFFFFFFFFFFFFFFFFFFFFFFFFFFFFFFFFFFFFFFF DUP3 EQ ISZERO JUMPDEST SWAP1 POP SWAP2 SWAP1 POP JUMP JUMPDEST PUSH0 DUP2 PUSH0 ADD PUSH0 SWAP1 SLOAD SWAP1 PUSH2 0x100 EXP SWAP1 DIV PUSH16 0xFFFFFFFFFFFFFFFFFFFFFFFFFFFFFFFF AND DUP3 PUSH0 ADD PUSH1 0x10 SWAP1 SLOAD SWAP1 PUSH2 0x100 EXP SWAP1 DIV PUSH16 0xFFFFFFFFFFFFFFFFFFFFFFFFFFFFFFFF AND SUB PUSH16 0xFFFFFFFFFFFFFFFFFFFFFFFFFFFFFFFF AND SWAP1 POP SWAP2 SWAP1 POP JUMP JUMPDEST PUSH0 PUSH32 0x8B73C3C69BB8FE3D512ECC4CF759CC79239F7B179B0FFACAA9A75D522B39400F PUSH1 0x3 PUSH1 0x40 MLOAD PUSH2 0x2060 SWAP2 SWAP1 PUSH2 0x4373 JUMP JUMPDEST PUSH1 0x40 MLOAD DUP1 SWAP2 SUB SWAP1 KECCAK256 PUSH32 0xC89EFDAA54C0F20C7ADF612882DF0950F5A951637E0307CDCB4C672F298B8BC6 CHAINID ADDRESS PUSH1 0x40 MLOAD PUSH1 0x20 ADD PUSH2 0x209F SWAP6 SWAP5 SWAP4 SWAP3 SWAP2 SWAP1 PUSH2 0x4389 JUMP JUMPDEST PUSH1 0x40 MLOAD PUSH1 0x20 DUP2 DUP4 SUB SUB DUP2 MSTORE SWAP1 PUSH1 0x40 MSTORE DUP1 MLOAD SWAP1 PUSH1 0x20 ADD KECCAK256 SWAP1 POP SWAP1 JUMP JUMPDEST PUSH0 DUP1 PUSH1 0xB PUSH0 DUP5 DUP2 MSTORE PUSH1 0x20 ADD SWAP1 DUP2 MSTORE PUSH1 0x20 ADD PUSH0 KECCAK256 SLOAD SWAP1 POP PUSH20 0xFFFFFFFFFFFFFFFFFFFFFFFFFFFFFFFFFFFFFFFF DUP2 AND SWAP2 POP POP SWAP2 SWAP1 POP JUMP JUMPDEST PUSH2 0x20F7 PUSH2 0x2DF4 JUMP JUMPDEST PUSH20 0xFFFFFFFFFFFFFFFFFFFFFFFFFFFFFFFFFFFFFFFF AND PUSH2 0x2115 PUSH2 0xE60 JUMP JUMPDEST PUSH20 0xFFFFFFFFFFFFFFFFFFFFFFFFFFFFFFFFFFFFFFFF AND EQ PUSH2 0x2174 JUMPI PUSH2 0x2138 PUSH2 0x2DF4 JUMP JUMPDEST PUSH1 0x40 MLOAD PUSH32 0x118CDAA700000000000000000000000000000000000000000000000000000000 DUP2 MSTORE PUSH1 0x4 ADD PUSH2 0x216B SWAP2 SWAP1 PUSH2 0x3989 JUMP JUMPDEST PUSH1 0x40 MLOAD DUP1 SWAP2 SUB SWAP1 REVERT JUMPDEST JUMP JUMPDEST PUSH0 DUP1 PUSH0 SWAP1 SLOAD SWAP1 PUSH2 0x100 EXP SWAP1 DIV PUSH20 0xFFFFFFFFFFFFFFFFFFFFFFFFFFFFFFFFFFFFFFFF AND SWAP1 POP DUP2 PUSH0 DUP1 PUSH2 0x100 EXP DUP2 SLOAD DUP2 PUSH20 0xFFFFFFFFFFFFFFFFFFFFFFFFFFFFFFFFFFFFFFFF MUL NOT AND SWAP1 DUP4 PUSH20 0xFFFFFFFFFFFFFFFFFFFFFFFFFFFFFFFFFFFFFFFF AND MUL OR SWAP1 SSTORE POP DUP2 PUSH20 0xFFFFFFFFFFFFFFFFFFFFFFFFFFFFFFFFFFFFFFFF AND DUP2 PUSH20 0xFFFFFFFFFFFFFFFFFFFFFFFFFFFFFFFFFFFFFFFF AND PUSH32 0x8BE0079C531659141344CD1FD0A4F28419497F9722A3DAAFE3B4186F6B6457E0 PUSH1 0x40 MLOAD PUSH1 0x40 MLOAD DUP1 SWAP2 SUB SWAP1 LOG3 POP POP JUMP JUMPDEST PUSH0 PUSH20 0xFFFFFFFFFFFFFFFFFFFFFFFFFFFFFFFFFFFFFFFF AND DUP3 PUSH20 0xFFFFFFFFFFFFFFFFFFFFFFFFFFFFFFFFFFFFFFFF AND SUB PUSH2 0x229C JUMPI PUSH1 0x40 MLOAD PUSH32 0x9C8D2CD200000000000000000000000000000000000000000000000000000000 DUP2 MSTORE PUSH1 0x4 ADD PUSH1 0x40 MLOAD DUP1 SWAP2 SUB SWAP1 REVERT JUMPDEST PUSH32 0x8000000000000000000000000000000000000000000000000000000000000000 DUP2 PUSH1 0x5 SLOAD PUSH2 0x22CB SWAP2 SWAP1 PUSH2 0x4277 JUMP JUMPDEST GT ISZERO PUSH2 0x2303 JUMPI PUSH1 0x40 MLOAD PUSH32 0x303B682F00000000000000000000000000000000000000000000000000000000 DUP2 MSTORE PUSH1 0x4 ADD PUSH1 0x40 MLOAD DUP1 SWAP2 SUB SWAP1 REVERT JUMPDEST PUSH2 0x230E PUSH0 DUP4 DUP4 PUSH2 0x23EE JUMP JUMPDEST POP POP POP JUMP JUMPDEST PUSH0 PUSH20 0xFFFFFFFFFFFFFFFFFFFFFFFFFFFFFFFFFFFFFFFF AND DUP3 PUSH20 0xFFFFFFFFFFFFFFFFFFFFFFFFFFFFFFFFFFFFFFFF AND SUB PUSH2 0x2378 JUMPI PUSH1 0x40 MLOAD PUSH32 0xA41E3D3F00000000000000000000000000000000000000000000000000000000 DUP2 MSTORE PUSH1 0x4 ADD PUSH1 0x40 MLOAD DUP1 SWAP2 SUB SWAP1 REVERT JUMPDEST DUP1 ISZERO PUSH2 0x238C JUMPI PUSH2 0x2387 DUP3 PUSH2 0x2DFB JUMP JUMPDEST PUSH2 0x2396 JUMP JUMPDEST PUSH2 0x2395 DUP3 PUSH2 0x2E2A JUMP JUMPDEST JUMPDEST DUP1 PUSH1 0xD PUSH0 DUP5 PUSH20 0xFFFFFFFFFFFFFFFFFFFFFFFFFFFFFFFFFFFFFFFF AND PUSH20 0xFFFFFFFFFFFFFFFFFFFFFFFFFFFFFFFFFFFFFFFF AND DUP2 MSTORE PUSH1 0x20 ADD SWAP1 DUP2 MSTORE PUSH1 0x20 ADD PUSH0 KECCAK256 PUSH0 PUSH2 0x100 EXP DUP2 SLOAD DUP2 PUSH1 0xFF MUL NOT AND SWAP1 DUP4 ISZERO ISZERO MUL OR SWAP1 SSTORE POP POP POP JUMP JUMPDEST PUSH0 DUP1 PUSH2 0x23F9 DUP6 PUSH2 0x910 JUMP JUMPDEST SWAP1 POP PUSH0 PUSH2 0x2405 DUP6 PUSH2 0x910 JUMP JUMPDEST SWAP1 POP PUSH2 0x2412 DUP7 DUP7 DUP7 PUSH2 0x28A2 JUMP JUMPDEST PUSH0 PUSH2 0x241C DUP8 PUSH2 0xA5C JUMP JUMPDEST SWAP1 POP PUSH0 PUSH2 0x2428 DUP8 PUSH2 0xA5C JUMP JUMPDEST SWAP1 POP DUP2 DUP1 ISZERO PUSH2 0x2434 JUMPI POP DUP1 JUMPDEST PUSH2 0x27C9 JUMPI DUP2 ISZERO PUSH2 0x2505 JUMPI PUSH0 PUSH32 0x0 DUP5 PUSH2 0x246B SWAP2 SWAP1 PUSH2 0x4407 JUMP JUMPDEST PUSH32 0x0 PUSH1 0x7 PUSH0 DUP12 PUSH20 0xFFFFFFFFFFFFFFFFFFFFFFFFFFFFFFFFFFFFFFFF AND PUSH20 0xFFFFFFFFFFFFFFFFFFFFFFFFFFFFFFFFFFFFFFFF AND DUP2 MSTORE PUSH1 0x20 ADD SWAP1 DUP2 MSTORE PUSH1 0x20 ADD PUSH0 KECCAK256 SLOAD PUSH2 0x24D4 SWAP2 SWAP1 PUSH2 0x4407 JUMP JUMPDEST PUSH2 0x24DE SWAP2 SWAP1 PUSH2 0x4244 JUMP JUMPDEST SWAP1 POP PUSH0 JUMPDEST DUP2 DUP2 LT ISZERO PUSH2 0x24FE JUMPI PUSH2 0x24F3 DUP10 PUSH2 0x2E9C JUMP JUMPDEST DUP1 PUSH1 0x1 ADD SWAP1 POP PUSH2 0x24E2 JUMP JUMPDEST POP POP PUSH2 0x27C8 JUMP JUMPDEST DUP1 ISZERO PUSH2 0x25D2 JUMPI PUSH0 PUSH32 0x0 PUSH1 0x7 PUSH0 DUP12 PUSH20 0xFFFFFFFFFFFFFFFFFFFFFFFFFFFFFFFFFFFFFFFF AND PUSH20 0xFFFFFFFFFFFFFFFFFFFFFFFFFFFFFFFFFFFFFFFF AND DUP2 MSTORE PUSH1 0x20 ADD SWAP1 DUP2 MSTORE PUSH1 0x20 ADD PUSH0 KECCAK256 SLOAD PUSH2 0x2575 SWAP2 SWAP1 PUSH2 0x4407 JUMP JUMPDEST PUSH32 0x0 DUP7 PUSH2 0x25A1 SWAP2 SWAP1 PUSH2 0x4407 JUMP JUMPDEST PUSH2 0x25AB SWAP2 SWAP1 PUSH2 0x4244 JUMP JUMPDEST SWAP1 POP PUSH0 JUMPDEST DUP2 DUP2 LT ISZERO PUSH2 0x25CB JUMPI PUSH2 0x25C0 DUP11 PUSH2 0x3043 JUMP JUMPDEST DUP1 PUSH1 0x1 ADD SWAP1 POP PUSH2 0x25AF JUMP JUMPDEST POP POP PUSH2 0x27C7 JUMP JUMPDEST PUSH0 PUSH32 0x0 DUP8 PUSH2 0x25FF SWAP2 SWAP1 PUSH2 0x4407 JUMP JUMPDEST SWAP1 POP PUSH0 JUMPDEST DUP2 DUP2 LT ISZERO PUSH2 0x26CE JUMPI PUSH0 PUSH1 0x1 PUSH1 0xC PUSH0 DUP14 PUSH20 0xFFFFFFFFFFFFFFFFFFFFFFFFFFFFFFFFFFFFFFFF AND PUSH20 0xFFFFFFFFFFFFFFFFFFFFFFFFFFFFFFFFFFFFFFFF AND DUP2 MSTORE PUSH1 0x20 ADD SWAP1 DUP2 MSTORE PUSH1 0x20 ADD PUSH0 KECCAK256 DUP1 SLOAD SWAP1 POP PUSH2 0x2659 SWAP2 SWAP1 PUSH2 0x4244 JUMP JUMPDEST SWAP1 POP PUSH0 PUSH1 0xC PUSH0 DUP14 PUSH20 0xFFFFFFFFFFFFFFFFFFFFFFFFFFFFFFFFFFFFFFFF AND PUSH20 0xFFFFFFFFFFFFFFFFFFFFFFFFFFFFFFFFFFFFFFFF AND DUP2 MSTORE PUSH1 0x20 ADD SWAP1 DUP2 MSTORE PUSH1 0x20 ADD PUSH0 KECCAK256 DUP3 DUP2 SLOAD DUP2 LT PUSH2 0x26AB JUMPI PUSH2 0x26AA PUSH2 0x42AA JUMP JUMPDEST JUMPDEST SWAP1 PUSH0 MSTORE PUSH1 0x20 PUSH0 KECCAK256 ADD SLOAD SWAP1 POP PUSH2 0x26C1 DUP13 DUP13 DUP4 PUSH2 0x29FA JUMP JUMPDEST DUP3 PUSH1 0x1 ADD SWAP3 POP POP POP PUSH2 0x2603 JUMP JUMPDEST POP DUP1 PUSH32 0x0 PUSH2 0x26FA DUP12 PUSH2 0x910 JUMP JUMPDEST PUSH2 0x2704 SWAP2 SWAP1 PUSH2 0x4407 JUMP JUMPDEST PUSH32 0x0 DUP8 PUSH2 0x2730 SWAP2 SWAP1 PUSH2 0x4407 JUMP JUMPDEST PUSH2 0x273A SWAP2 SWAP1 PUSH2 0x4244 JUMP JUMPDEST GT ISZERO PUSH2 0x274A JUMPI PUSH2 0x2749 DUP10 PUSH2 0x3043 JUMP JUMPDEST JUMPDEST DUP1 PUSH32 0x0 DUP6 PUSH2 0x2777 SWAP2 SWAP1 PUSH2 0x4407 JUMP JUMPDEST PUSH32 0x0 PUSH2 0x27A1 DUP12 PUSH2 0x910 JUMP JUMPDEST PUSH2 0x27AB SWAP2 SWAP1 PUSH2 0x4407 JUMP JUMPDEST PUSH2 0x27B5 SWAP2 SWAP1 PUSH2 0x4244 JUMP JUMPDEST GT ISZERO PUSH2 0x27C5 JUMPI PUSH2 0x27C4 DUP9 PUSH2 0x2E9C JUMP JUMPDEST JUMPDEST POP JUMPDEST JUMPDEST JUMPDEST PUSH1 0x1 SWAP5 POP POP POP POP POP SWAP4 SWAP3 POP POP POP JUMP JUMPDEST PUSH1 0x60 PUSH0 PUSH1 0x1 PUSH2 0x27E6 DUP5 PUSH2 0x3172 JUMP JUMPDEST ADD SWAP1 POP PUSH0 DUP2 PUSH8 0xFFFFFFFFFFFFFFFF DUP2 GT ISZERO PUSH2 0x2804 JUMPI PUSH2 0x2803 PUSH2 0x3C07 JUMP JUMPDEST JUMPDEST PUSH1 0x40 MLOAD SWAP1 DUP1 DUP3 MSTORE DUP1 PUSH1 0x1F ADD PUSH1 0x1F NOT AND PUSH1 0x20 ADD DUP3 ADD PUSH1 0x40 MSTORE DUP1 ISZERO PUSH2 0x2836 JUMPI DUP2 PUSH1 0x20 ADD PUSH1 0x1 DUP3 MUL DUP1 CALLDATASIZE DUP4 CALLDATACOPY DUP1 DUP3 ADD SWAP2 POP POP SWAP1 POP JUMPDEST POP SWAP1 POP PUSH0 DUP3 PUSH1 0x20 ADD DUP3 ADD SWAP1 POP JUMPDEST PUSH1 0x1 ISZERO PUSH2 0x2897 JUMPI DUP1 DUP1 PUSH1 0x1 SWAP1 SUB SWAP2 POP POP PUSH32 0x3031323334353637383961626364656600000000000000000000000000000000 PUSH1 0xA DUP7 MOD BYTE DUP2 MSTORE8 PUSH1 0xA DUP6 DUP2 PUSH2 0x288C JUMPI PUSH2 0x288B PUSH2 0x43DA JUMP JUMPDEST JUMPDEST DIV SWAP5 POP PUSH0 DUP6 SUB PUSH2 0x2843 JUMPI JUMPDEST DUP2 SWAP4 POP POP POP POP SWAP2 SWAP1 POP JUMP JUMPDEST PUSH0 PUSH20 0xFFFFFFFFFFFFFFFFFFFFFFFFFFFFFFFFFFFFFFFF AND DUP4 PUSH20 0xFFFFFFFFFFFFFFFFFFFFFFFFFFFFFFFFFFFFFFFF AND SUB PUSH2 0x28F2 JUMPI DUP1 PUSH1 0x5 PUSH0 DUP3 DUP3 SLOAD PUSH2 0x28E6 SWAP2 SWAP1 PUSH2 0x4277 JUMP JUMPDEST SWAP3 POP POP DUP2 SWAP1 SSTORE POP PUSH2 0x2946 JUMP JUMPDEST DUP1 PUSH1 0x7 PUSH0 DUP6 PUSH20 0xFFFFFFFFFFFFFFFFFFFFFFFFFFFFFFFFFFFFFFFF AND PUSH20 0xFFFFFFFFFFFFFFFFFFFFFFFFFFFFFFFFFFFFFFFF AND DUP2 MSTORE PUSH1 0x20 ADD SWAP1 DUP2 MSTORE PUSH1 0x20 ADD PUSH0 KECCAK256 PUSH0 DUP3 DUP3 SLOAD PUSH2 0x293E SWAP2 SWAP1 PUSH2 0x4244 JUMP JUMPDEST SWAP3 POP POP DUP2 SWAP1 SSTORE POP JUMPDEST DUP1 PUSH1 0x7 PUSH0 DUP5 PUSH20 0xFFFFFFFFFFFFFFFFFFFFFFFFFFFFFFFFFFFFFFFF AND PUSH20 0xFFFFFFFFFFFFFFFFFFFFFFFFFFFFFFFFFFFFFFFF AND DUP2 MSTORE PUSH1 0x20 ADD SWAP1 DUP2 MSTORE PUSH1 0x20 ADD PUSH0 KECCAK256 PUSH0 DUP3 DUP3 SLOAD ADD SWAP3 POP POP DUP2 SWAP1 SSTORE POP DUP2 PUSH20 0xFFFFFFFFFFFFFFFFFFFFFFFFFFFFFFFFFFFFFFFF AND DUP4 PUSH20 0xFFFFFFFFFFFFFFFFFFFFFFFFFFFFFFFFFFFFFFFF AND PUSH32 0xDDF252AD1BE2C89B69C2B068FC378DAA952BA7F163C4A11628F55A4DF523B3EF DUP4 PUSH1 0x40 MLOAD PUSH2 0x29ED SWAP2 SWAP1 PUSH2 0x3862 JUMP JUMPDEST PUSH1 0x40 MLOAD DUP1 SWAP2 SUB SWAP1 LOG3 POP POP POP JUMP JUMPDEST PUSH0 PUSH20 0xFFFFFFFFFFFFFFFFFFFFFFFFFFFFFFFFFFFFFFFF AND DUP4 PUSH20 0xFFFFFFFFFFFFFFFFFFFFFFFFFFFFFFFFFFFFFFFF AND EQ PUSH2 0x2BE4 JUMPI PUSH1 0x9 PUSH0 DUP3 DUP2 MSTORE PUSH1 0x20 ADD SWAP1 DUP2 MSTORE PUSH1 0x20 ADD PUSH0 KECCAK256 PUSH0 PUSH2 0x100 EXP DUP2 SLOAD SWAP1 PUSH20 0xFFFFFFFFFFFFFFFFFFFFFFFFFFFFFFFFFFFFFFFF MUL NOT AND SWAP1 SSTORE PUSH0 PUSH1 0xC PUSH0 DUP6 PUSH20 0xFFFFFFFFFFFFFFFFFFFFFFFFFFFFFFFFFFFFFFFF AND PUSH20 0xFFFFFFFFFFFFFFFFFFFFFFFFFFFFFFFFFFFFFFFF AND DUP2 MSTORE PUSH1 0x20 ADD SWAP1 DUP2 MSTORE PUSH1 0x20 ADD PUSH0 KECCAK256 PUSH1 0x1 PUSH1 0xC PUSH0 DUP8 PUSH20 0xFFFFFFFFFFFFFFFFFFFFFFFFFFFFFFFFFFFFFFFF AND PUSH20 0xFFFFFFFFFFFFFFFFFFFFFFFFFFFFFFFFFFFFFFFF AND DUP2 MSTORE PUSH1 0x20 ADD SWAP1 DUP2 MSTORE PUSH1 0x20 ADD PUSH0 KECCAK256 DUP1 SLOAD SWAP1 POP PUSH2 0x2AEB SWAP2 SWAP1 PUSH2 0x4244 JUMP JUMPDEST DUP2 SLOAD DUP2 LT PUSH2 0x2AFC JUMPI PUSH2 0x2AFB PUSH2 0x42AA JUMP JUMPDEST JUMPDEST SWAP1 PUSH0 MSTORE PUSH1 0x20 PUSH0 KECCAK256 ADD SLOAD SWAP1 POP DUP2 DUP2 EQ PUSH2 0x2B82 JUMPI PUSH0 PUSH2 0x2B18 DUP4 PUSH2 0x32C3 JUMP JUMPDEST SWAP1 POP DUP2 PUSH1 0xC PUSH0 DUP8 PUSH20 0xFFFFFFFFFFFFFFFFFFFFFFFFFFFFFFFFFFFFFFFF AND PUSH20 0xFFFFFFFFFFFFFFFFFFFFFFFFFFFFFFFFFFFFFFFF AND DUP2 MSTORE PUSH1 0x20 ADD SWAP1 DUP2 MSTORE PUSH1 0x20 ADD PUSH0 KECCAK256 DUP3 DUP2 SLOAD DUP2 LT PUSH2 0x2B6A JUMPI PUSH2 0x2B69 PUSH2 0x42AA JUMP JUMPDEST JUMPDEST SWAP1 PUSH0 MSTORE PUSH1 0x20 PUSH0 KECCAK256 ADD DUP2 SWAP1 SSTORE POP PUSH2 0x2B80 DUP3 DUP3 PUSH2 0x32E5 JUMP JUMPDEST POP JUMPDEST PUSH1 0xC PUSH0 DUP6 PUSH20 0xFFFFFFFFFFFFFFFFFFFFFFFFFFFFFFFFFFFFFFFF AND PUSH20 0xFFFFFFFFFFFFFFFFFFFFFFFFFFFFFFFFFFFFFFFF AND DUP2 MSTORE PUSH1 0x20 ADD SWAP1 DUP2 MSTORE PUSH1 0x20 ADD PUSH0 KECCAK256 DUP1 SLOAD DUP1 PUSH2 0x2BCF JUMPI PUSH2 0x2BCE PUSH2 0x4437 JUMP JUMPDEST JUMPDEST PUSH1 0x1 SWAP1 SUB DUP2 DUP2 SWAP1 PUSH0 MSTORE PUSH1 0x20 PUSH0 KECCAK256 ADD PUSH0 SWAP1 SSTORE SWAP1 SSTORE POP JUMPDEST PUSH0 PUSH20 0xFFFFFFFFFFFFFFFFFFFFFFFFFFFFFFFFFFFFFFFF AND DUP3 PUSH20 0xFFFFFFFFFFFFFFFFFFFFFFFFFFFFFFFFFFFFFFFF AND EQ PUSH2 0x2CDD JUMPI PUSH2 0x2C21 DUP2 DUP4 PUSH2 0x33B3 JUMP JUMPDEST PUSH1 0xC PUSH0 DUP4 PUSH20 0xFFFFFFFFFFFFFFFFFFFFFFFFFFFFFFFFFFFFFFFF AND PUSH20 0xFFFFFFFFFFFFFFFFFFFFFFFFFFFFFFFFFFFFFFFF AND DUP2 MSTORE PUSH1 0x20 ADD SWAP1 DUP2 MSTORE PUSH1 0x20 ADD PUSH0 KECCAK256 DUP2 SWAP1 DUP1 PUSH1 0x1 DUP2 SLOAD ADD DUP1 DUP3 SSTORE DUP1 SWAP2 POP POP PUSH1 0x1 SWAP1 SUB SWAP1 PUSH0 MSTORE PUSH1 0x20 PUSH0 KECCAK256 ADD PUSH0 SWAP1 SWAP2 SWAP1 SWAP2 SWAP1 SWAP2 POP SSTORE PUSH2 0x2CD8 DUP2 PUSH1 0x1 PUSH1 0xC PUSH0 DUP7 PUSH20 0xFFFFFFFFFFFFFFFFFFFFFFFFFFFFFFFFFFFFFFFF AND PUSH20 0xFFFFFFFFFFFFFFFFFFFFFFFFFFFFFFFFFFFFFFFF AND DUP2 MSTORE PUSH1 0x20 ADD SWAP1 DUP2 MSTORE PUSH1 0x20 ADD PUSH0 KECCAK256 DUP1 SLOAD SWAP1 POP PUSH2 0x2CD3 SWAP2 SWAP1 PUSH2 0x4244 JUMP JUMPDEST PUSH2 0x32E5 JUMP JUMPDEST PUSH2 0x2CF2 JUMP JUMPDEST PUSH1 0xB PUSH0 DUP3 DUP2 MSTORE PUSH1 0x20 ADD SWAP1 DUP2 MSTORE PUSH1 0x20 ADD PUSH0 KECCAK256 PUSH0 SWAP1 SSTORE JUMPDEST DUP1 DUP3 PUSH20 0xFFFFFFFFFFFFFFFFFFFFFFFFFFFFFFFFFFFFFFFF AND DUP5 PUSH20 0xFFFFFFFFFFFFFFFFFFFFFFFFFFFFFFFFFFFFFFFF AND PUSH32 0xDDF252AD1BE2C89B69C2B068FC378DAA952BA7F163C4A11628F55A4DF523B3EF PUSH1 0x40 MLOAD PUSH1 0x40 MLOAD DUP1 SWAP2 SUB SWAP1 LOG4 POP POP POP JUMP JUMPDEST PUSH0 PUSH2 0x2D5C DUP4 PUSH2 0x1FD5 JUMP JUMPDEST DUP3 LT PUSH2 0x2D94 JUMPI PUSH1 0x40 MLOAD PUSH32 0x580821E700000000000000000000000000000000000000000000000000000000 DUP2 MSTORE PUSH1 0x4 ADD PUSH1 0x40 MLOAD DUP1 SWAP2 SUB SWAP1 REVERT JUMPDEST DUP3 PUSH1 0x1 ADD PUSH0 DUP4 DUP6 PUSH0 ADD PUSH0 SWAP1 SLOAD SWAP1 PUSH2 0x100 EXP SWAP1 DIV PUSH16 0xFFFFFFFFFFFFFFFFFFFFFFFFFFFFFFFF AND ADD PUSH16 0xFFFFFFFFFFFFFFFFFFFFFFFFFFFFFFFF AND PUSH16 0xFFFFFFFFFFFFFFFFFFFFFFFFFFFFFFFF AND DUP2 MSTORE PUSH1 0x20 ADD SWAP1 DUP2 MSTORE PUSH1 0x20 ADD PUSH0 KECCAK256 SLOAD SWAP1 POP SWAP3 SWAP2 POP POP JUMP JUMPDEST PUSH0 CALLER SWAP1 POP SWAP1 JUMP JUMPDEST PUSH0 PUSH2 0x2E05 DUP3 PUSH2 0x11A0 JUMP JUMPDEST SWAP1 POP PUSH0 JUMPDEST DUP2 DUP2 LT ISZERO PUSH2 0x2E25 JUMPI PUSH2 0x2E1A DUP4 PUSH2 0x3043 JUMP JUMPDEST DUP1 PUSH1 0x1 ADD SWAP1 POP PUSH2 0x2E09 JUMP JUMPDEST POP POP POP JUMP JUMPDEST PUSH0 PUSH32 0x0 PUSH2 0x2E55 DUP4 PUSH2 0x910 JUMP JUMPDEST PUSH2 0x2E5F SWAP2 SWAP1 PUSH2 0x4407 JUMP JUMPDEST SWAP1 POP PUSH0 PUSH2 0x2E6B DUP4 PUSH2 0x11A0 JUMP JUMPDEST SWAP1 POP PUSH0 JUMPDEST DUP2 DUP4 PUSH2 0x2E7B SWAP2 SWAP1 PUSH2 0x4244 JUMP JUMPDEST DUP2 LT ISZERO PUSH2 0x2E96 JUMPI PUSH2 0x2E8B DUP5 PUSH2 0x2E9C JUMP JUMPDEST DUP1 PUSH1 0x1 ADD SWAP1 POP PUSH2 0x2E6F JUMP JUMPDEST POP POP POP POP JUMP JUMPDEST PUSH0 PUSH20 0xFFFFFFFFFFFFFFFFFFFFFFFFFFFFFFFFFFFFFFFF AND DUP2 PUSH20 0xFFFFFFFFFFFFFFFFFFFFFFFFFFFFFFFFFFFFFFFF AND SUB PUSH2 0x2F01 JUMPI PUSH1 0x40 MLOAD PUSH32 0x9C8D2CD200000000000000000000000000000000000000000000000000000000 DUP2 MSTORE PUSH1 0x4 ADD PUSH1 0x40 MLOAD DUP1 SWAP2 SUB SWAP1 REVERT JUMPDEST PUSH0 PUSH2 0x2F0C PUSH1 0x1 PUSH2 0x3420 JUMP JUMPDEST PUSH2 0x2F21 JUMPI PUSH2 0x2F1A PUSH1 0x1 PUSH2 0x348C JUMP JUMPDEST SWAP1 POP PUSH2 0x2FC2 JUMP JUMPDEST PUSH1 0x6 PUSH0 DUP2 SLOAD PUSH2 0x2F2F SWAP1 PUSH2 0x4464 JUMP JUMPDEST SWAP2 SWAP1 POP DUP2 SWAP1 SSTORE POP PUSH32 0xFFFFFFFFFFFFFFFFFFFFFFFFFFFFFFFFFFFFFFFFFFFFFFFFFFFFFFFFFFFFFFFF PUSH1 0x6 SLOAD SUB PUSH2 0x2F91 JUMPI PUSH1 0x40 MLOAD PUSH32 0x303B682F00000000000000000000000000000000000000000000000000000000 DUP2 MSTORE PUSH1 0x4 ADD PUSH1 0x40 MLOAD DUP1 SWAP2 SUB SWAP1 REVERT JUMPDEST PUSH1 0x6 SLOAD PUSH32 0x8000000000000000000000000000000000000000000000000000000000000000 PUSH2 0x2FBF SWAP2 SWAP1 PUSH2 0x4277 JUMP JUMPDEST SWAP1 POP JUMPDEST PUSH0 PUSH2 0x2FCC DUP3 PUSH2 0x20BA JUMP JUMPDEST SWAP1 POP PUSH0 PUSH20 0xFFFFFFFFFFFFFFFFFFFFFFFFFFFFFFFFFFFFFFFF AND DUP2 PUSH20 0xFFFFFFFFFFFFFFFFFFFFFFFFFFFFFFFFFFFFFFFF AND EQ PUSH2 0x3033 JUMPI PUSH1 0x40 MLOAD PUSH32 0x23369FA600000000000000000000000000000000000000000000000000000000 DUP2 MSTORE PUSH1 0x4 ADD PUSH1 0x40 MLOAD DUP1 SWAP2 SUB SWAP1 REVERT JUMPDEST PUSH2 0x303E DUP2 DUP5 DUP5 PUSH2 0x29FA JUMP JUMPDEST POP POP POP JUMP JUMPDEST PUSH0 PUSH20 0xFFFFFFFFFFFFFFFFFFFFFFFFFFFFFFFFFFFFFFFF AND DUP2 PUSH20 0xFFFFFFFFFFFFFFFFFFFFFFFFFFFFFFFFFFFFFFFF AND SUB PUSH2 0x30A8 JUMPI PUSH1 0x40 MLOAD PUSH32 0xDDB5DE5E00000000000000000000000000000000000000000000000000000000 DUP2 MSTORE PUSH1 0x4 ADD PUSH1 0x40 MLOAD DUP1 SWAP2 SUB SWAP1 REVERT JUMPDEST PUSH0 PUSH1 0xC PUSH0 DUP4 PUSH20 0xFFFFFFFFFFFFFFFFFFFFFFFFFFFFFFFFFFFFFFFF AND PUSH20 0xFFFFFFFFFFFFFFFFFFFFFFFFFFFFFFFFFFFFFFFF AND DUP2 MSTORE PUSH1 0x20 ADD SWAP1 DUP2 MSTORE PUSH1 0x20 ADD PUSH0 KECCAK256 PUSH1 0x1 PUSH1 0xC PUSH0 DUP6 PUSH20 0xFFFFFFFFFFFFFFFFFFFFFFFFFFFFFFFFFFFFFFFF AND PUSH20 0xFFFFFFFFFFFFFFFFFFFFFFFFFFFFFFFFFFFFFFFF AND DUP2 MSTORE PUSH1 0x20 ADD SWAP1 DUP2 MSTORE PUSH1 0x20 ADD PUSH0 KECCAK256 DUP1 SLOAD SWAP1 POP PUSH2 0x3133 SWAP2 SWAP1 PUSH2 0x4244 JUMP JUMPDEST DUP2 SLOAD DUP2 LT PUSH2 0x3144 JUMPI PUSH2 0x3143 PUSH2 0x42AA JUMP JUMPDEST JUMPDEST SWAP1 PUSH0 MSTORE PUSH1 0x20 PUSH0 KECCAK256 ADD SLOAD SWAP1 POP PUSH2 0x315A DUP3 PUSH0 DUP4 PUSH2 0x29FA JUMP JUMPDEST PUSH2 0x316E DUP2 PUSH1 0x1 PUSH2 0x35E6 SWAP1 SWAP2 SWAP1 PUSH4 0xFFFFFFFF AND JUMP JUMPDEST POP POP JUMP JUMPDEST PUSH0 DUP1 PUSH0 SWAP1 POP PUSH27 0x184F03E93FF9F4DAA797ED6E38ED64BF6A1F010000000000000000 DUP4 LT PUSH2 0x31CE JUMPI PUSH27 0x184F03E93FF9F4DAA797ED6E38ED64BF6A1F010000000000000000 DUP4 DUP2 PUSH2 0x31C4 JUMPI PUSH2 0x31C3 PUSH2 0x43DA JUMP JUMPDEST JUMPDEST DIV SWAP3 POP PUSH1 0x40 DUP2 ADD SWAP1 POP JUMPDEST PUSH14 0x4EE2D6D415B85ACEF8100000000 DUP4 LT PUSH2 0x320B JUMPI PUSH14 0x4EE2D6D415B85ACEF8100000000 DUP4 DUP2 PUSH2 0x3201 JUMPI PUSH2 0x3200 PUSH2 0x43DA JUMP JUMPDEST JUMPDEST DIV SWAP3 POP PUSH1 0x20 DUP2 ADD SWAP1 POP JUMPDEST PUSH7 0x2386F26FC10000 DUP4 LT PUSH2 0x323A JUMPI PUSH7 0x2386F26FC10000 DUP4 DUP2 PUSH2 0x3230 JUMPI PUSH2 0x322F PUSH2 0x43DA JUMP JUMPDEST JUMPDEST DIV SWAP3 POP PUSH1 0x10 DUP2 ADD SWAP1 POP JUMPDEST PUSH4 0x5F5E100 DUP4 LT PUSH2 0x3263 JUMPI PUSH4 0x5F5E100 DUP4 DUP2 PUSH2 0x3259 JUMPI PUSH2 0x3258 PUSH2 0x43DA JUMP JUMPDEST JUMPDEST DIV SWAP3 POP PUSH1 0x8 DUP2 ADD SWAP1 POP JUMPDEST PUSH2 0x2710 DUP4 LT PUSH2 0x3288 JUMPI PUSH2 0x2710 DUP4 DUP2 PUSH2 0x327E JUMPI PUSH2 0x327D PUSH2 0x43DA JUMP JUMPDEST JUMPDEST DIV SWAP3 POP PUSH1 0x4 DUP2 ADD SWAP1 POP JUMPDEST PUSH1 0x64 DUP4 LT PUSH2 0x32AB JUMPI PUSH1 0x64 DUP4 DUP2 PUSH2 0x32A1 JUMPI PUSH2 0x32A0 PUSH2 0x43DA JUMP JUMPDEST JUMPDEST DIV SWAP3 POP PUSH1 0x2 DUP2 ADD SWAP1 POP JUMPDEST PUSH1 0xA DUP4 LT PUSH2 0x32BA JUMPI PUSH1 0x1 DUP2 ADD SWAP1 POP JUMPDEST DUP1 SWAP2 POP POP SWAP2 SWAP1 POP JUMP JUMPDEST PUSH0 DUP1 PUSH1 0xB PUSH0 DUP5 DUP2 MSTORE PUSH1 0x20 ADD SWAP1 DUP2 MSTORE PUSH1 0x20 ADD PUSH0 KECCAK256 SLOAD SWAP1 POP DUP1 PUSH1 0xA0 SHR SWAP2 POP POP SWAP2 SWAP1 POP JUMP JUMPDEST PUSH0 PUSH1 0xB PUSH0 DUP5 DUP2 MSTORE PUSH1 0x20 ADD SWAP1 DUP2 MSTORE PUSH1 0x20 ADD PUSH0 KECCAK256 SLOAD SWAP1 POP PUSH1 0xA0 PUSH32 0xFFFFFFFFFFFFFFFFFFFFFFFF0000000000000000000000000000000000000000 SWAP1 SHR DUP3 GT ISZERO PUSH2 0x3358 JUMPI PUSH1 0x40 MLOAD PUSH32 0xFCB3438C00000000000000000000000000000000000000000000000000000000 DUP2 MSTORE PUSH1 0x4 ADD PUSH1 0x40 MLOAD DUP1 SWAP2 SUB SWAP1 REVERT JUMPDEST PUSH32 0xFFFFFFFFFFFFFFFFFFFFFFFF0000000000000000000000000000000000000000 DUP3 PUSH1 0xA0 SHL AND PUSH20 0xFFFFFFFFFFFFFFFFFFFFFFFFFFFFFFFFFFFFFFFF DUP3 AND ADD SWAP1 POP DUP1 PUSH1 0xB PUSH0 DUP6 DUP2 MSTORE PUSH1 0x20 ADD SWAP1 DUP2 MSTORE PUSH1 0x20 ADD PUSH0 KECCAK256 DUP2 SWAP1 SSTORE POP POP POP POP JUMP JUMPDEST PUSH0 PUSH1 0xB PUSH0 DUP5 DUP2 MSTORE PUSH1 0x20 ADD SWAP1 DUP2 MSTORE PUSH1 0x20 ADD PUSH0 KECCAK256 SLOAD SWAP1 POP PUSH20 0xFFFFFFFFFFFFFFFFFFFFFFFFFFFFFFFFFFFFFFFF DUP3 AND PUSH32 0xFFFFFFFFFFFFFFFFFFFFFFFF0000000000000000000000000000000000000000 DUP3 AND ADD SWAP1 POP DUP1 PUSH1 0xB PUSH0 DUP6 DUP2 MSTORE PUSH1 0x20 ADD SWAP1 DUP2 MSTORE PUSH1 0x20 ADD PUSH0 KECCAK256 DUP2 SWAP1 SSTORE POP POP POP POP JUMP JUMPDEST PUSH0 DUP2 PUSH0 ADD PUSH0 SWAP1 SLOAD SWAP1 PUSH2 0x100 EXP SWAP1 DIV PUSH16 0xFFFFFFFFFFFFFFFFFFFFFFFFFFFFFFFF AND PUSH16 0xFFFFFFFFFFFFFFFFFFFFFFFFFFFFFFFF AND DUP3 PUSH0 ADD PUSH1 0x10 SWAP1 SLOAD SWAP1 PUSH2 0x100 EXP SWAP1 DIV PUSH16 0xFFFFFFFFFFFFFFFFFFFFFFFFFFFFFFFF AND PUSH16 0xFFFFFFFFFFFFFFFFFFFFFFFFFFFFFFFF AND EQ SWAP1 POP SWAP2 SWAP1 POP JUMP JUMPDEST PUSH0 DUP1 DUP3 PUSH0 ADD PUSH1 0x10 SWAP1 SLOAD SWAP1 PUSH2 0x100 EXP SWAP1 DIV PUSH16 0xFFFFFFFFFFFFFFFFFFFFFFFFFFFFFFFF AND SWAP1 POP DUP3 PUSH0 ADD PUSH0 SWAP1 SLOAD SWAP1 PUSH2 0x100 EXP SWAP1 DIV PUSH16 0xFFFFFFFFFFFFFFFFFFFFFFFFFFFFFFFF AND PUSH16 0xFFFFFFFFFFFFFFFFFFFFFFFFFFFFFFFF AND DUP2 PUSH16 0xFFFFFFFFFFFFFFFFFFFFFFFFFFFFFFFF AND SUB PUSH2 0x352B JUMPI PUSH1 0x40 MLOAD PUSH32 0x75E52F4F00000000000000000000000000000000000000000000000000000000 DUP2 MSTORE PUSH1 0x4 ADD PUSH1 0x40 MLOAD DUP1 SWAP2 SUB SWAP1 REVERT JUMPDEST DUP1 PUSH1 0x1 SWAP1 SUB SWAP1 POP DUP3 PUSH1 0x1 ADD PUSH0 DUP3 PUSH16 0xFFFFFFFFFFFFFFFFFFFFFFFFFFFFFFFF AND PUSH16 0xFFFFFFFFFFFFFFFFFFFFFFFFFFFFFFFF AND DUP2 MSTORE PUSH1 0x20 ADD SWAP1 DUP2 MSTORE PUSH1 0x20 ADD PUSH0 KECCAK256 SLOAD SWAP2 POP DUP3 PUSH1 0x1 ADD PUSH0 DUP3 PUSH16 0xFFFFFFFFFFFFFFFFFFFFFFFFFFFFFFFF AND PUSH16 0xFFFFFFFFFFFFFFFFFFFFFFFFFFFFFFFF AND DUP2 MSTORE PUSH1 0x20 ADD SWAP1 DUP2 MSTORE PUSH1 0x20 ADD PUSH0 KECCAK256 PUSH0 SWAP1 SSTORE DUP1 DUP4 PUSH0 ADD PUSH1 0x10 PUSH2 0x100 EXP DUP2 SLOAD DUP2 PUSH16 0xFFFFFFFFFFFFFFFFFFFFFFFFFFFFFFFF MUL NOT AND SWAP1 DUP4 PUSH16 0xFFFFFFFFFFFFFFFFFFFFFFFFFFFFFFFF AND MUL OR SWAP1 SSTORE POP POP SWAP2 SWAP1 POP JUMP JUMPDEST PUSH0 PUSH1 0x1 DUP4 PUSH0 ADD PUSH0 SWAP1 SLOAD SWAP1 PUSH2 0x100 EXP SWAP1 DIV PUSH16 0xFFFFFFFFFFFFFFFFFFFFFFFFFFFFFFFF AND SUB SWAP1 POP DUP3 PUSH0 ADD PUSH1 0x10 SWAP1 SLOAD SWAP1 PUSH2 0x100 EXP SWAP1 DIV PUSH16 0xFFFFFFFFFFFFFFFFFFFFFFFFFFFFFFFF AND PUSH16 0xFFFFFFFFFFFFFFFFFFFFFFFFFFFFFFFF AND DUP2 PUSH16 0xFFFFFFFFFFFFFFFFFFFFFFFFFFFFFFFF AND SUB PUSH2 0x3687 JUMPI PUSH1 0x40 MLOAD PUSH32 0x8ACB5F2700000000000000000000000000000000000000000000000000000000 DUP2 MSTORE PUSH1 0x4 ADD PUSH1 0x40 MLOAD DUP1 SWAP2 SUB SWAP1 REVERT JUMPDEST DUP2 DUP4 PUSH1 0x1 ADD PUSH0 DUP4 PUSH16 0xFFFFFFFFFFFFFFFFFFFFFFFFFFFFFFFF AND PUSH16 0xFFFFFFFFFFFFFFFFFFFFFFFFFFFFFFFF AND DUP2 MSTORE PUSH1 0x20 ADD SWAP1 DUP2 MSTORE PUSH1 0x20 ADD PUSH0 KECCAK256 DUP2 SWAP1 SSTORE POP DUP1 DUP4 PUSH0 ADD PUSH0 PUSH2 0x100 EXP DUP2 SLOAD DUP2 PUSH16 0xFFFFFFFFFFFFFFFFFFFFFFFFFFFFFFFF MUL NOT AND SWAP1 DUP4 PUSH16 0xFFFFFFFFFFFFFFFFFFFFFFFFFFFFFFFF AND MUL OR SWAP1 SSTORE POP POP POP POP JUMP JUMPDEST PUSH0 PUSH1 0x40 MLOAD SWAP1 POP SWAP1 JUMP JUMPDEST PUSH0 DUP1 REVERT JUMPDEST PUSH0 DUP1 REVERT JUMPDEST PUSH0 PUSH32 0xFFFFFFFF00000000000000000000000000000000000000000000000000000000 DUP3 AND SWAP1 POP SWAP2 SWAP1 POP JUMP JUMPDEST PUSH2 0x3746 DUP2 PUSH2 0x3712 JUMP JUMPDEST DUP2 EQ PUSH2 0x3750 JUMPI PUSH0 DUP1 REVERT JUMPDEST POP JUMP JUMPDEST PUSH0 DUP2 CALLDATALOAD SWAP1 POP PUSH2 0x3761 DUP2 PUSH2 0x373D JUMP JUMPDEST SWAP3 SWAP2 POP POP JUMP JUMPDEST PUSH0 PUSH1 0x20 DUP3 DUP5 SUB SLT ISZERO PUSH2 0x377C JUMPI PUSH2 0x377B PUSH2 0x370A JUMP JUMPDEST JUMPDEST PUSH0 PUSH2 0x3789 DUP5 DUP3 DUP6 ADD PUSH2 0x3753 JUMP JUMPDEST SWAP2 POP POP SWAP3 SWAP2 POP POP JUMP JUMPDEST PUSH0 DUP2 ISZERO ISZERO SWAP1 POP SWAP2 SWAP1 POP JUMP JUMPDEST PUSH2 0x37A6 DUP2 PUSH2 0x3792 JUMP JUMPDEST DUP3 MSTORE POP POP JUMP JUMPDEST PUSH0 PUSH1 0x20 DUP3 ADD SWAP1 POP PUSH2 0x37BF PUSH0 DUP4 ADD DUP5 PUSH2 0x379D JUMP JUMPDEST SWAP3 SWAP2 POP POP JUMP JUMPDEST PUSH0 PUSH20 0xFFFFFFFFFFFFFFFFFFFFFFFFFFFFFFFFFFFFFFFF DUP3 AND SWAP1 POP SWAP2 SWAP1 POP JUMP JUMPDEST PUSH0 PUSH2 0x37EE DUP3 PUSH2 0x37C5 JUMP JUMPDEST SWAP1 POP SWAP2 SWAP1 POP JUMP JUMPDEST PUSH2 0x37FE DUP2 PUSH2 0x37E4 JUMP JUMPDEST DUP2 EQ PUSH2 0x3808 JUMPI PUSH0 DUP1 REVERT JUMPDEST POP JUMP JUMPDEST PUSH0 DUP2 CALLDATALOAD SWAP1 POP PUSH2 0x3819 DUP2 PUSH2 0x37F5 JUMP JUMPDEST SWAP3 SWAP2 POP POP JUMP JUMPDEST PUSH0 PUSH1 0x20 DUP3 DUP5 SUB SLT ISZERO PUSH2 0x3834 JUMPI PUSH2 0x3833 PUSH2 0x370A JUMP JUMPDEST JUMPDEST PUSH0 PUSH2 0x3841 DUP5 DUP3 DUP6 ADD PUSH2 0x380B JUMP JUMPDEST SWAP2 POP POP SWAP3 SWAP2 POP POP JUMP JUMPDEST PUSH0 DUP2 SWAP1 POP SWAP2 SWAP1 POP JUMP JUMPDEST PUSH2 0x385C DUP2 PUSH2 0x384A JUMP JUMPDEST DUP3 MSTORE POP POP JUMP JUMPDEST PUSH0 PUSH1 0x20 DUP3 ADD SWAP1 POP PUSH2 0x3875 PUSH0 DUP4 ADD DUP5 PUSH2 0x3853 JUMP JUMPDEST SWAP3 SWAP2 POP POP JUMP JUMPDEST PUSH0 DUP2 MLOAD SWAP1 POP SWAP2 SWAP1 POP JUMP JUMPDEST PUSH0 DUP3 DUP3 MSTORE PUSH1 0x20 DUP3 ADD SWAP1 POP SWAP3 SWAP2 POP POP JUMP JUMPDEST PUSH0 JUMPDEST DUP4 DUP2 LT ISZERO PUSH2 0x38B2 JUMPI DUP1 DUP3 ADD MLOAD DUP2 DUP5 ADD MSTORE PUSH1 0x20 DUP2 ADD SWAP1 POP PUSH2 0x3897 JUMP JUMPDEST PUSH0 DUP5 DUP5 ADD MSTORE POP POP POP POP JUMP JUMPDEST PUSH0 PUSH1 0x1F NOT PUSH1 0x1F DUP4 ADD AND SWAP1 POP SWAP2 SWAP1 POP JUMP JUMPDEST PUSH0 PUSH2 0x38D7 DUP3 PUSH2 0x387B JUMP JUMPDEST PUSH2 0x38E1 DUP2 DUP6 PUSH2 0x3885 JUMP JUMPDEST SWAP4 POP PUSH2 0x38F1 DUP2 DUP6 PUSH1 0x20 DUP7 ADD PUSH2 0x3895 JUMP JUMPDEST PUSH2 0x38FA DUP2 PUSH2 0x38BD JUMP JUMPDEST DUP5 ADD SWAP2 POP POP SWAP3 SWAP2 POP POP JUMP JUMPDEST PUSH0 PUSH1 0x20 DUP3 ADD SWAP1 POP DUP2 DUP2 SUB PUSH0 DUP4 ADD MSTORE PUSH2 0x391D DUP2 DUP5 PUSH2 0x38CD JUMP JUMPDEST SWAP1 POP SWAP3 SWAP2 POP POP JUMP JUMPDEST PUSH2 0x392E DUP2 PUSH2 0x384A JUMP JUMPDEST DUP2 EQ PUSH2 0x3938 JUMPI PUSH0 DUP1 REVERT JUMPDEST POP JUMP JUMPDEST PUSH0 DUP2 CALLDATALOAD SWAP1 POP PUSH2 0x3949 DUP2 PUSH2 0x3925 JUMP JUMPDEST SWAP3 SWAP2 POP POP JUMP JUMPDEST PUSH0 PUSH1 0x20 DUP3 DUP5 SUB SLT ISZERO PUSH2 0x3964 JUMPI PUSH2 0x3963 PUSH2 0x370A JUMP JUMPDEST JUMPDEST PUSH0 PUSH2 0x3971 DUP5 DUP3 DUP6 ADD PUSH2 0x393B JUMP JUMPDEST SWAP2 POP POP SWAP3 SWAP2 POP POP JUMP JUMPDEST PUSH2 0x3983 DUP2 PUSH2 0x37E4 JUMP JUMPDEST DUP3 MSTORE POP POP JUMP JUMPDEST PUSH0 PUSH1 0x20 DUP3 ADD SWAP1 POP PUSH2 0x399C PUSH0 DUP4 ADD DUP5 PUSH2 0x397A JUMP JUMPDEST SWAP3 SWAP2 POP POP JUMP JUMPDEST PUSH0 DUP1 PUSH1 0x40 DUP4 DUP6 SUB SLT ISZERO PUSH2 0x39B8 JUMPI PUSH2 0x39B7 PUSH2 0x370A JUMP JUMPDEST JUMPDEST PUSH0 PUSH2 0x39C5 DUP6 DUP3 DUP7 ADD PUSH2 0x380B JUMP JUMPDEST SWAP3 POP POP PUSH1 0x20 PUSH2 0x39D6 DUP6 DUP3 DUP7 ADD PUSH2 0x393B JUMP JUMPDEST SWAP2 POP POP SWAP3 POP SWAP3 SWAP1 POP JUMP JUMPDEST PUSH0 DUP1 PUSH0 PUSH1 0x60 DUP5 DUP7 SUB SLT ISZERO PUSH2 0x39F7 JUMPI PUSH2 0x39F6 PUSH2 0x370A JUMP JUMPDEST JUMPDEST PUSH0 PUSH2 0x3A04 DUP7 DUP3 DUP8 ADD PUSH2 0x380B JUMP JUMPDEST SWAP4 POP POP PUSH1 0x20 PUSH2 0x3A15 DUP7 DUP3 DUP8 ADD PUSH2 0x380B JUMP JUMPDEST SWAP3 POP POP PUSH1 0x40 PUSH2 0x3A26 DUP7 DUP3 DUP8 ADD PUSH2 0x393B JUMP JUMPDEST SWAP2 POP POP SWAP3 POP SWAP3 POP SWAP3 JUMP JUMPDEST PUSH0 PUSH1 0xFF DUP3 AND SWAP1 POP SWAP2 SWAP1 POP JUMP JUMPDEST PUSH2 0x3A45 DUP2 PUSH2 0x3A30 JUMP JUMPDEST DUP3 MSTORE POP POP JUMP JUMPDEST PUSH0 PUSH1 0x20 DUP3 ADD SWAP1 POP PUSH2 0x3A5E PUSH0 DUP4 ADD DUP5 PUSH2 0x3A3C JUMP JUMPDEST SWAP3 SWAP2 POP POP JUMP JUMPDEST PUSH0 DUP2 SWAP1 POP SWAP2 SWAP1 POP JUMP JUMPDEST PUSH2 0x3A76 DUP2 PUSH2 0x3A64 JUMP JUMPDEST DUP3 MSTORE POP POP JUMP JUMPDEST PUSH0 PUSH1 0x20 DUP3 ADD SWAP1 POP PUSH2 0x3A8F PUSH0 DUP4 ADD DUP5 PUSH2 0x3A6D JUMP JUMPDEST SWAP3 SWAP2 POP POP JUMP JUMPDEST PUSH2 0x3A9E DUP2 PUSH2 0x3792 JUMP JUMPDEST DUP2 EQ PUSH2 0x3AA8 JUMPI PUSH0 DUP1 REVERT JUMPDEST POP JUMP JUMPDEST PUSH0 DUP2 CALLDATALOAD SWAP1 POP PUSH2 0x3AB9 DUP2 PUSH2 0x3A95 JUMP JUMPDEST SWAP3 SWAP2 POP POP JUMP JUMPDEST PUSH0 PUSH1 0x20 DUP3 DUP5 SUB SLT ISZERO PUSH2 0x3AD4 JUMPI PUSH2 0x3AD3 PUSH2 0x370A JUMP JUMPDEST JUMPDEST PUSH0 PUSH2 0x3AE1 DUP5 DUP3 DUP6 ADD PUSH2 0x3AAB JUMP JUMPDEST SWAP2 POP POP SWAP3 SWAP2 POP POP JUMP JUMPDEST PUSH0 DUP1 PUSH1 0x40 DUP4 DUP6 SUB SLT ISZERO PUSH2 0x3B00 JUMPI PUSH2 0x3AFF PUSH2 0x370A JUMP JUMPDEST JUMPDEST PUSH0 PUSH2 0x3B0D DUP6 DUP3 DUP7 ADD PUSH2 0x380B JUMP JUMPDEST SWAP3 POP POP PUSH1 0x20 PUSH2 0x3B1E DUP6 DUP3 DUP7 ADD PUSH2 0x3AAB JUMP JUMPDEST SWAP2 POP POP SWAP3 POP SWAP3 SWAP1 POP JUMP JUMPDEST PUSH0 DUP2 MLOAD SWAP1 POP SWAP2 SWAP1 POP JUMP JUMPDEST PUSH0 DUP3 DUP3 MSTORE PUSH1 0x20 DUP3 ADD SWAP1 POP SWAP3 SWAP2 POP POP JUMP JUMPDEST PUSH0 DUP2 SWAP1 POP PUSH1 0x20 DUP3 ADD SWAP1 POP SWAP2 SWAP1 POP JUMP JUMPDEST PUSH2 0x3B5A DUP2 PUSH2 0x384A JUMP JUMPDEST DUP3 MSTORE POP POP JUMP JUMPDEST PUSH0 PUSH2 0x3B6B DUP4 DUP4 PUSH2 0x3B51 JUMP JUMPDEST PUSH1 0x20 DUP4 ADD SWAP1 POP SWAP3 SWAP2 POP POP JUMP JUMPDEST PUSH0 PUSH1 0x20 DUP3 ADD SWAP1 POP SWAP2 SWAP1 POP JUMP JUMPDEST PUSH0 PUSH2 0x3B8D DUP3 PUSH2 0x3B28 JUMP JUMPDEST PUSH2 0x3B97 DUP2 DUP6 PUSH2 0x3B32 JUMP JUMPDEST SWAP4 POP PUSH2 0x3BA2 DUP4 PUSH2 0x3B42 JUMP JUMPDEST DUP1 PUSH0 JUMPDEST DUP4 DUP2 LT ISZERO PUSH2 0x3BD2 JUMPI DUP2 MLOAD PUSH2 0x3BB9 DUP9 DUP3 PUSH2 0x3B60 JUMP JUMPDEST SWAP8 POP PUSH2 0x3BC4 DUP4 PUSH2 0x3B77 JUMP JUMPDEST SWAP3 POP POP PUSH1 0x1 DUP2 ADD SWAP1 POP PUSH2 0x3BA5 JUMP JUMPDEST POP DUP6 SWAP4 POP POP POP POP SWAP3 SWAP2 POP POP JUMP JUMPDEST PUSH0 PUSH1 0x20 DUP3 ADD SWAP1 POP DUP2 DUP2 SUB PUSH0 DUP4 ADD MSTORE PUSH2 0x3BF7 DUP2 DUP5 PUSH2 0x3B83 JUMP JUMPDEST SWAP1 POP SWAP3 SWAP2 POP POP JUMP JUMPDEST PUSH0 DUP1 REVERT JUMPDEST PUSH0 DUP1 REVERT JUMPDEST PUSH32 0x4E487B7100000000000000000000000000000000000000000000000000000000 PUSH0 MSTORE PUSH1 0x41 PUSH1 0x4 MSTORE PUSH1 0x24 PUSH0 REVERT JUMPDEST PUSH2 0x3C3D DUP3 PUSH2 0x38BD JUMP JUMPDEST DUP2 ADD DUP2 DUP2 LT PUSH8 0xFFFFFFFFFFFFFFFF DUP3 GT OR ISZERO PUSH2 0x3C5C JUMPI PUSH2 0x3C5B PUSH2 0x3C07 JUMP JUMPDEST JUMPDEST DUP1 PUSH1 0x40 MSTORE POP POP POP JUMP JUMPDEST PUSH0 PUSH2 0x3C6E PUSH2 0x3701 JUMP JUMPDEST SWAP1 POP PUSH2 0x3C7A DUP3 DUP3 PUSH2 0x3C34 JUMP JUMPDEST SWAP2 SWAP1 POP JUMP JUMPDEST PUSH0 PUSH8 0xFFFFFFFFFFFFFFFF DUP3 GT ISZERO PUSH2 0x3C99 JUMPI PUSH2 0x3C98 PUSH2 0x3C07 JUMP JUMPDEST JUMPDEST PUSH2 0x3CA2 DUP3 PUSH2 0x38BD JUMP JUMPDEST SWAP1 POP PUSH1 0x20 DUP2 ADD SWAP1 POP SWAP2 SWAP1 POP JUMP JUMPDEST DUP3 DUP2 DUP4 CALLDATACOPY PUSH0 DUP4 DUP4 ADD MSTORE POP POP POP JUMP JUMPDEST PUSH0 PUSH2 0x3CCF PUSH2 0x3CCA DUP5 PUSH2 0x3C7F JUMP JUMPDEST PUSH2 0x3C65 JUMP JUMPDEST SWAP1 POP DUP3 DUP2 MSTORE PUSH1 0x20 DUP2 ADD DUP5 DUP5 DUP5 ADD GT ISZERO PUSH2 0x3CEB JUMPI PUSH2 0x3CEA PUSH2 0x3C03 JUMP JUMPDEST JUMPDEST PUSH2 0x3CF6 DUP5 DUP3 DUP6 PUSH2 0x3CAF JUMP JUMPDEST POP SWAP4 SWAP3 POP POP POP JUMP JUMPDEST PUSH0 DUP3 PUSH1 0x1F DUP4 ADD SLT PUSH2 0x3D12 JUMPI PUSH2 0x3D11 PUSH2 0x3BFF JUMP JUMPDEST JUMPDEST DUP2 CALLDATALOAD PUSH2 0x3D22 DUP5 DUP3 PUSH1 0x20 DUP7 ADD PUSH2 0x3CBD JUMP JUMPDEST SWAP2 POP POP SWAP3 SWAP2 POP POP JUMP JUMPDEST PUSH0 DUP1 PUSH0 DUP1 PUSH1 0x80 DUP6 DUP8 SUB SLT ISZERO PUSH2 0x3D43 JUMPI PUSH2 0x3D42 PUSH2 0x370A JUMP JUMPDEST JUMPDEST PUSH0 PUSH2 0x3D50 DUP8 DUP3 DUP9 ADD PUSH2 0x380B JUMP JUMPDEST SWAP5 POP POP PUSH1 0x20 PUSH2 0x3D61 DUP8 DUP3 DUP9 ADD PUSH2 0x380B JUMP JUMPDEST SWAP4 POP POP PUSH1 0x40 PUSH2 0x3D72 DUP8 DUP3 DUP9 ADD PUSH2 0x393B JUMP JUMPDEST SWAP3 POP POP PUSH1 0x60 DUP6 ADD CALLDATALOAD PUSH8 0xFFFFFFFFFFFFFFFF DUP2 GT ISZERO PUSH2 0x3D93 JUMPI PUSH2 0x3D92 PUSH2 0x370E JUMP JUMPDEST JUMPDEST PUSH2 0x3D9F DUP8 DUP3 DUP9 ADD PUSH2 0x3CFE JUMP JUMPDEST SWAP2 POP POP SWAP3 SWAP6 SWAP2 SWAP5 POP SWAP3 POP JUMP JUMPDEST PUSH2 0x3DB4 DUP2 PUSH2 0x3A30 JUMP JUMPDEST DUP2 EQ PUSH2 0x3DBE JUMPI PUSH0 DUP1 REVERT JUMPDEST POP JUMP JUMPDEST PUSH0 DUP2 CALLDATALOAD SWAP1 POP PUSH2 0x3DCF DUP2 PUSH2 0x3DAB JUMP JUMPDEST SWAP3 SWAP2 POP POP JUMP JUMPDEST PUSH2 0x3DDE DUP2 PUSH2 0x3A64 JUMP JUMPDEST DUP2 EQ PUSH2 0x3DE8 JUMPI PUSH0 DUP1 REVERT JUMPDEST POP JUMP JUMPDEST PUSH0 DUP2 CALLDATALOAD SWAP1 POP PUSH2 0x3DF9 DUP2 PUSH2 0x3DD5 JUMP JUMPDEST SWAP3 SWAP2 POP POP JUMP JUMPDEST PUSH0 DUP1 PUSH0 DUP1 PUSH0 DUP1 PUSH0 PUSH1 0xE0 DUP9 DUP11 SUB SLT ISZERO PUSH2 0x3E1A JUMPI PUSH2 0x3E19 PUSH2 0x370A JUMP JUMPDEST JUMPDEST PUSH0 PUSH2 0x3E27 DUP11 DUP3 DUP12 ADD PUSH2 0x380B JUMP JUMPDEST SWAP8 POP POP PUSH1 0x20 PUSH2 0x3E38 DUP11 DUP3 DUP12 ADD PUSH2 0x380B JUMP JUMPDEST SWAP7 POP POP PUSH1 0x40 PUSH2 0x3E49 DUP11 DUP3 DUP12 ADD PUSH2 0x393B JUMP JUMPDEST SWAP6 POP POP PUSH1 0x60 PUSH2 0x3E5A DUP11 DUP3 DUP12 ADD PUSH2 0x393B JUMP JUMPDEST SWAP5 POP POP PUSH1 0x80 PUSH2 0x3E6B DUP11 DUP3 DUP12 ADD PUSH2 0x3DC1 JUMP JUMPDEST SWAP4 POP POP PUSH1 0xA0 PUSH2 0x3E7C DUP11 DUP3 DUP12 ADD PUSH2 0x3DEB JUMP JUMPDEST SWAP3 POP POP PUSH1 0xC0 PUSH2 0x3E8D DUP11 DUP3 DUP12 ADD PUSH2 0x3DEB JUMP JUMPDEST SWAP2 POP POP SWAP3 SWAP6 SWAP9 SWAP2 SWAP5 SWAP8 POP SWAP3 SWAP6 POP JUMP JUMPDEST PUSH0 DUP1 PUSH1 0x40 DUP4 DUP6 SUB SLT ISZERO PUSH2 0x3EB2 JUMPI PUSH2 0x3EB1 PUSH2 0x370A JUMP JUMPDEST JUMPDEST PUSH0 PUSH2 0x3EBF DUP6 DUP3 DUP7 ADD PUSH2 0x380B JUMP JUMPDEST SWAP3 POP POP PUSH1 0x20 PUSH2 0x3ED0 DUP6 DUP3 DUP7 ADD PUSH2 0x380B JUMP JUMPDEST SWAP2 POP POP SWAP3 POP SWAP3 SWAP1 POP JUMP JUMPDEST PUSH0 DUP1 PUSH1 0x40 DUP4 DUP6 SUB SLT ISZERO PUSH2 0x3EF0 JUMPI PUSH2 0x3EEF PUSH2 0x370A JUMP JUMPDEST JUMPDEST PUSH0 PUSH2 0x3EFD DUP6 DUP3 DUP7 ADD PUSH2 0x393B JUMP JUMPDEST SWAP3 POP POP PUSH1 0x20 PUSH2 0x3F0E DUP6 DUP3 DUP7 ADD PUSH2 0x393B JUMP JUMPDEST SWAP2 POP POP SWAP3 POP SWAP3 SWAP1 POP JUMP JUMPDEST PUSH32 0x4E487B7100000000000000000000000000000000000000000000000000000000 PUSH0 MSTORE PUSH1 0x22 PUSH1 0x4 MSTORE PUSH1 0x24 PUSH0 REVERT JUMPDEST PUSH0 PUSH1 0x2 DUP3 DIV SWAP1 POP PUSH1 0x1 DUP3 AND DUP1 PUSH2 0x3F5C JUMPI PUSH1 0x7F DUP3 AND SWAP2 POP JUMPDEST PUSH1 0x20 DUP3 LT DUP2 SUB PUSH2 0x3F6F JUMPI PUSH2 0x3F6E PUSH2 0x3F18 JUMP JUMPDEST JUMPDEST POP SWAP2 SWAP1 POP JUMP JUMPDEST PUSH0 DUP2 MLOAD SWAP1 POP SWAP2 SWAP1 POP JUMP JUMPDEST PUSH0 DUP3 DUP3 MSTORE PUSH1 0x20 DUP3 ADD SWAP1 POP SWAP3 SWAP2 POP POP JUMP JUMPDEST PUSH0 PUSH2 0x3F99 DUP3 PUSH2 0x3F75 JUMP JUMPDEST PUSH2 0x3FA3 DUP2 DUP6 PUSH2 0x3F7F JUMP JUMPDEST SWAP4 POP PUSH2 0x3FB3 DUP2 DUP6 PUSH1 0x20 DUP7 ADD PUSH2 0x3895 JUMP JUMPDEST PUSH2 0x3FBC DUP2 PUSH2 0x38BD JUMP JUMPDEST DUP5 ADD SWAP2 POP POP SWAP3 SWAP2 POP POP JUMP JUMPDEST PUSH0 PUSH1 0x80 DUP3 ADD SWAP1 POP PUSH2 0x3FDA PUSH0 DUP4 ADD DUP8 PUSH2 0x397A JUMP JUMPDEST PUSH2 0x3FE7 PUSH1 0x20 DUP4 ADD DUP7 PUSH2 0x397A JUMP JUMPDEST PUSH2 0x3FF4 PUSH1 0x40 DUP4 ADD DUP6 PUSH2 0x3853 JUMP JUMPDEST DUP2 DUP2 SUB PUSH1 0x60 DUP4 ADD MSTORE PUSH2 0x4006 DUP2 DUP5 PUSH2 0x3F8F JUMP JUMPDEST SWAP1 POP SWAP6 SWAP5 POP POP POP POP POP JUMP JUMPDEST PUSH0 DUP2 MLOAD SWAP1 POP PUSH2 0x401F DUP2 PUSH2 0x373D JUMP JUMPDEST SWAP3 SWAP2 POP POP JUMP JUMPDEST PUSH0 PUSH1 0x20 DUP3 DUP5 SUB SLT ISZERO PUSH2 0x403A JUMPI PUSH2 0x4039 PUSH2 0x370A JUMP JUMPDEST JUMPDEST PUSH0 PUSH2 0x4047 DUP5 DUP3 DUP6 ADD PUSH2 0x4011 JUMP JUMPDEST SWAP2 POP POP SWAP3 SWAP2 POP POP JUMP JUMPDEST PUSH32 0x68747470733A2F2F6578616D706C652E636F6D2F746F6B656E2F000000000000 DUP2 MSTORE POP JUMP JUMPDEST PUSH0 DUP2 SWAP1 POP SWAP3 SWAP2 POP POP JUMP JUMPDEST PUSH0 PUSH2 0x408A DUP3 PUSH2 0x387B JUMP JUMPDEST PUSH2 0x4094 DUP2 DUP6 PUSH2 0x4076 JUMP JUMPDEST SWAP4 POP PUSH2 0x40A4 DUP2 DUP6 PUSH1 0x20 DUP7 ADD PUSH2 0x3895 JUMP JUMPDEST DUP1 DUP5 ADD SWAP2 POP POP SWAP3 SWAP2 POP POP JUMP JUMPDEST PUSH0 PUSH2 0x40BA DUP3 PUSH2 0x4050 JUMP JUMPDEST PUSH1 0x1A DUP3 ADD SWAP2 POP PUSH2 0x40CA DUP3 DUP5 PUSH2 0x4080 JUMP JUMPDEST SWAP2 POP DUP2 SWAP1 POP SWAP3 SWAP2 POP POP JUMP JUMPDEST PUSH0 PUSH1 0xC0 DUP3 ADD SWAP1 POP PUSH2 0x40E8 PUSH0 DUP4 ADD DUP10 PUSH2 0x3A6D JUMP JUMPDEST PUSH2 0x40F5 PUSH1 0x20 DUP4 ADD DUP9 PUSH2 0x397A JUMP JUMPDEST PUSH2 0x4102 PUSH1 0x40 DUP4 ADD DUP8 PUSH2 0x397A JUMP JUMPDEST PUSH2 0x410F PUSH1 0x60 DUP4 ADD DUP7 PUSH2 0x3853 JUMP JUMPDEST PUSH2 0x411C PUSH1 0x80 DUP4 ADD DUP6 PUSH2 0x3853 JUMP JUMPDEST PUSH2 0x4129 PUSH1 0xA0 DUP4 ADD DUP5 PUSH2 0x3853 JUMP JUMPDEST SWAP8 SWAP7 POP POP POP POP POP POP POP JUMP JUMPDEST PUSH32 0x1901000000000000000000000000000000000000000000000000000000000000 PUSH0 DUP3 ADD MSTORE POP JUMP JUMPDEST PUSH0 PUSH2 0x4168 PUSH1 0x2 DUP4 PUSH2 0x4076 JUMP JUMPDEST SWAP2 POP PUSH2 0x4173 DUP3 PUSH2 0x4134 JUMP JUMPDEST PUSH1 0x2 DUP3 ADD SWAP1 POP SWAP2 SWAP1 POP JUMP JUMPDEST PUSH0 DUP2 SWAP1 POP SWAP2 SWAP1 POP JUMP JUMPDEST PUSH2 0x4198 PUSH2 0x4193 DUP3 PUSH2 0x3A64 JUMP JUMPDEST PUSH2 0x417E JUMP JUMPDEST DUP3 MSTORE POP POP JUMP JUMPDEST PUSH0 PUSH2 0x41A8 DUP3 PUSH2 0x415C JUMP JUMPDEST SWAP2 POP PUSH2 0x41B4 DUP3 DUP6 PUSH2 0x4187 JUMP JUMPDEST PUSH1 0x20 DUP3 ADD SWAP2 POP PUSH2 0x41C4 DUP3 DUP5 PUSH2 0x4187 JUMP JUMPDEST PUSH1 0x20 DUP3 ADD SWAP2 POP DUP2 SWAP1 POP SWAP4 SWAP3 POP POP POP JUMP JUMPDEST PUSH0 PUSH1 0x80 DUP3 ADD SWAP1 POP PUSH2 0x41E7 PUSH0 DUP4 ADD DUP8 PUSH2 0x3A6D JUMP JUMPDEST PUSH2 0x41F4 PUSH1 0x20 DUP4 ADD DUP7 PUSH2 0x3A3C JUMP JUMPDEST PUSH2 0x4201 PUSH1 0x40 DUP4 ADD DUP6 PUSH2 0x3A6D JUMP JUMPDEST PUSH2 0x420E PUSH1 0x60 DUP4 ADD DUP5 PUSH2 0x3A6D JUMP JUMPDEST SWAP6 SWAP5 POP POP POP POP POP JUMP JUMPDEST PUSH32 0x4E487B7100000000000000000000000000000000000000000000000000000000 PUSH0 MSTORE PUSH1 0x11 PUSH1 0x4 MSTORE PUSH1 0x24 PUSH0 REVERT JUMPDEST PUSH0 PUSH2 0x424E DUP3 PUSH2 0x384A JUMP JUMPDEST SWAP2 POP PUSH2 0x4259 DUP4 PUSH2 0x384A JUMP JUMPDEST SWAP3 POP DUP3 DUP3 SUB SWAP1 POP DUP2 DUP2 GT ISZERO PUSH2 0x4271 JUMPI PUSH2 0x4270 PUSH2 0x4217 JUMP JUMPDEST JUMPDEST SWAP3 SWAP2 POP POP JUMP JUMPDEST PUSH0 PUSH2 0x4281 DUP3 PUSH2 0x384A JUMP JUMPDEST SWAP2 POP PUSH2 0x428C DUP4 PUSH2 0x384A JUMP JUMPDEST SWAP3 POP DUP3 DUP3 ADD SWAP1 POP DUP1 DUP3 GT ISZERO PUSH2 0x42A4 JUMPI PUSH2 0x42A3 PUSH2 0x4217 JUMP JUMPDEST JUMPDEST SWAP3 SWAP2 POP POP JUMP JUMPDEST PUSH32 0x4E487B7100000000000000000000000000000000000000000000000000000000 PUSH0 MSTORE PUSH1 0x32 PUSH1 0x4 MSTORE PUSH1 0x24 PUSH0 REVERT JUMPDEST PUSH0 DUP2 SWAP1 POP SWAP3 SWAP2 POP POP JUMP JUMPDEST PUSH0 DUP2 SWAP1 POP DUP2 PUSH0 MSTORE PUSH1 0x20 PUSH0 KECCAK256 SWAP1 POP SWAP2 SWAP1 POP JUMP JUMPDEST PUSH0 DUP2 SLOAD PUSH2 0x42FF DUP2 PUSH2 0x3F45 JUMP JUMPDEST PUSH2 0x4309 DUP2 DUP7 PUSH2 0x42D7 JUMP JUMPDEST SWAP5 POP PUSH1 0x1 DUP3 AND PUSH0 DUP2 EQ PUSH2 0x4323 JUMPI PUSH1 0x1 DUP2 EQ PUSH2 0x4338 JUMPI PUSH2 0x436A JUMP JUMPDEST PUSH1 0xFF NOT DUP4 AND DUP7 MSTORE DUP2 ISZERO ISZERO DUP3 MUL DUP7 ADD SWAP4 POP PUSH2 0x436A JUMP JUMPDEST PUSH2 0x4341 DUP6 PUSH2 0x42E1 JUMP JUMPDEST PUSH0 JUMPDEST DUP4 DUP2 LT ISZERO PUSH2 0x4362 JUMPI DUP2 SLOAD DUP2 DUP10 ADD MSTORE PUSH1 0x1 DUP3 ADD SWAP2 POP PUSH1 0x20 DUP2 ADD SWAP1 POP PUSH2 0x4343 JUMP JUMPDEST DUP4 DUP9 ADD SWAP6 POP POP POP JUMPDEST POP POP POP SWAP3 SWAP2 POP POP JUMP JUMPDEST PUSH0 PUSH2 0x437E DUP3 DUP5 PUSH2 0x42F3 JUMP JUMPDEST SWAP2 POP DUP2 SWAP1 POP SWAP3 SWAP2 POP POP JUMP JUMPDEST PUSH0 PUSH1 0xA0 DUP3 ADD SWAP1 POP PUSH2 0x439C PUSH0 DUP4 ADD DUP9 PUSH2 0x3A6D JUMP JUMPDEST PUSH2 0x43A9 PUSH1 0x20 DUP4 ADD DUP8 PUSH2 0x3A6D JUMP JUMPDEST PUSH2 0x43B6 PUSH1 0x40 DUP4 ADD DUP7 PUSH2 0x3A6D JUMP JUMPDEST PUSH2 0x43C3 PUSH1 0x60 DUP4 ADD DUP6 PUSH2 0x3853 JUMP JUMPDEST PUSH2 0x43D0 PUSH1 0x80 DUP4 ADD DUP5 PUSH2 0x397A JUMP JUMPDEST SWAP7 SWAP6 POP POP POP POP POP POP JUMP JUMPDEST PUSH32 0x4E487B7100000000000000000000000000000000000000000000000000000000 PUSH0 MSTORE PUSH1 0x12 PUSH1 0x4 MSTORE PUSH1 0x24 PUSH0 REVERT JUMPDEST PUSH0 PUSH2 0x4411 DUP3 PUSH2 0x384A JUMP JUMPDEST SWAP2 POP PUSH2 0x441C DUP4 PUSH2 0x384A JUMP JUMPDEST SWAP3 POP DUP3 PUSH2 0x442C JUMPI PUSH2 0x442B PUSH2 0x43DA JUMP JUMPDEST JUMPDEST DUP3 DUP3 DIV SWAP1 POP SWAP3 SWAP2 POP POP JUMP JUMPDEST PUSH32 0x4E487B7100000000000000000000000000000000000000000000000000000000 PUSH0 MSTORE PUSH1 0x31 PUSH1 0x4 MSTORE PUSH1 0x24 PUSH0 REVERT JUMPDEST PUSH0 PUSH2 0x446E DUP3 PUSH2 0x384A JUMP JUMPDEST SWAP2 POP PUSH32 0xFFFFFFFFFFFFFFFFFFFFFFFFFFFFFFFFFFFFFFFFFFFFFFFFFFFFFFFFFFFFFFFF DUP3 SUB PUSH2 0x44A0 JUMPI PUSH2 0x449F PUSH2 0x4217 JUMP JUMPDEST JUMPDEST PUSH1 0x1 DUP3 ADD SWAP1 POP SWAP2 SWAP1 POP JUMP INVALID LOG2 PUSH5 0x6970667358 0x22 SLT KECCAK256 RETURNDATACOPY 0xC7 CALLDATACOPY 0x21 SIGNEXTEND 0xB1 0x21 CODECOPY 0xD5 DIV 0xD8 CALLDATALOAD PC 0xB6 0xF8 0xCE 0xA7 0xDA MUL NUMBER 0x21 0xD3 RETURN CALLER JUMPDEST EXTCODECOPY 0xD3 0xC1 NUMBER DUP10 SDIV 0xB2 PUSH5 0x736F6C6343 STOP ADDMOD XOR STOP CALLER LOG2 PUSH5 0x6970667358 0x22 SLT KECCAK256 0xF6 0xB0 PUSH28 0x5948AA5150DDA147A49D5FF44F290824750942F733871BCA90B069C2 0xED PUSH5 0x736F6C6343 STOP ADDMOD XOR STOP CALLER "
		},
		"gasEstimates": {
			"creation": {
				"codeDepositCost": "4514200",
				"executionCost": "10263",
				"totalCost": "4524463"
			},
			"external": {
				"deploy(address,string,string,uint8)": "infinite",
				"id()": "2425",
				"list(uint256)": "4921"
			}
		},
		"methodIdentifiers": {
			"deploy(address,string,string,uint8)": "ef26a315",
			"id()": "af640d0f",
			"list(uint256)": "80c9419e"
		}
	},
	"abi": [
		{
			"inputs": [
				{
					"internalType": "address",
					"name": "_owner",
					"type": "address"
				},
				{
					"internalType": "string",
					"name": "_name",
					"type": "string"
				},
				{
					"internalType": "string",
					"name": "_symbol",
					"type": "string"
				},
				{
					"internalType": "uint8",
					"name": "_decimals",
					"type": "uint8"
				}
			],
			"name": "deploy",
			"outputs": [],
			"stateMutability": "nonpayable",
			"type": "function"
		},
		{
			"inputs": [],
			"name": "id",
			"outputs": [
				{
					"internalType": "uint256",
					"name": "",
					"type": "uint256"
				}
			],
			"stateMutability": "view",
			"type": "function"
		},
		{
			"inputs": [
				{
					"internalType": "uint256",
					"name": "",
					"type": "uint256"
				}
			],
			"name": "list",
			"outputs": [
				{
					"internalType": "address",
					"name": "",
					"type": "address"
				}
			],
			"stateMutability": "view",
			"type": "function"
		}
	]
}